Archive member included to satisfy reference by file (symbol)

/usr/local/mcuxpressoide-11.0.0_2516/ide/plugins/com.nxp.mcuxpresso.tools.linux_11.0.0.201905131304/tools/bin/../lib/gcc/arm-none-eabi/8.2.1/../../../../arm-none-eabi/lib/thumb/v7e-m+fp/hard/libcr_nohost_nf.a(_cr__main.o)
                              ./startup/startup_mk64f12.o (__main)
/usr/local/mcuxpressoide-11.0.0_2516/ide/plugins/com.nxp.mcuxpresso.tools.linux_11.0.0.201905131304/tools/bin/../lib/gcc/arm-none-eabi/8.2.1/../../../../arm-none-eabi/lib/thumb/v7e-m+fp/hard/libcr_nohost_nf.a(_cr_assert.o)
                              ./utilities/fsl_debug_console.o (__assertion_failed)
/usr/local/mcuxpressoide-11.0.0_2516/ide/plugins/com.nxp.mcuxpresso.tools.linux_11.0.0.201905131304/tools/bin/../lib/gcc/arm-none-eabi/8.2.1/../../../../arm-none-eabi/lib/thumb/v7e-m+fp/hard/libcr_nohost_nf.a(__ciob.o)
                              /usr/local/mcuxpressoide-11.0.0_2516/ide/plugins/com.nxp.mcuxpresso.tools.linux_11.0.0.201905131304/tools/bin/../lib/gcc/arm-none-eabi/8.2.1/../../../../arm-none-eabi/lib/thumb/v7e-m+fp/hard/libcr_nohost_nf.a(_cr_assert.o) (__Ciob)
/usr/local/mcuxpressoide-11.0.0_2516/ide/plugins/com.nxp.mcuxpresso.tools.linux_11.0.0.201905131304/tools/bin/../lib/gcc/arm-none-eabi/8.2.1/../../../../arm-none-eabi/lib/thumb/v7e-m+fp/hard/libcr_nohost_nf.a(__sys_appexit.o)
                              /usr/local/mcuxpressoide-11.0.0_2516/ide/plugins/com.nxp.mcuxpresso.tools.linux_11.0.0.201905131304/tools/bin/../lib/gcc/arm-none-eabi/8.2.1/../../../../arm-none-eabi/lib/thumb/v7e-m+fp/hard/libcr_nohost_nf.a(_cr_assert.o) (__sys_appexit)
/usr/local/mcuxpressoide-11.0.0_2516/ide/plugins/com.nxp.mcuxpresso.tools.linux_11.0.0.201905131304/tools/bin/../lib/gcc/arm-none-eabi/8.2.1/../../../../arm-none-eabi/lib/thumb/v7e-m+fp/hard/libcr_c.a(memcpy.o)
                              ./amazon-freertos/freertos/queue.o (memcpy)
/usr/local/mcuxpressoide-11.0.0_2516/ide/plugins/com.nxp.mcuxpresso.tools.linux_11.0.0.201905131304/tools/bin/../lib/gcc/arm-none-eabi/8.2.1/../../../../arm-none-eabi/lib/thumb/v7e-m+fp/hard/libcr_c.a(memset.o)
                              ./utilities/fsl_debug_console.o (memset)
/usr/local/mcuxpressoide-11.0.0_2516/ide/plugins/com.nxp.mcuxpresso.tools.linux_11.0.0.201905131304/tools/bin/../lib/gcc/arm-none-eabi/8.2.1/../../../../arm-none-eabi/lib/thumb/v7e-m+fp/hard/libcr_c.a(_deferredlazyseek.o)
                              /usr/local/mcuxpressoide-11.0.0_2516/ide/plugins/com.nxp.mcuxpresso.tools.linux_11.0.0.201905131304/tools/bin/../lib/gcc/arm-none-eabi/8.2.1/../../../../arm-none-eabi/lib/thumb/v7e-m+fp/hard/libcr_nohost_nf.a(_cr_assert.o) (__flsbuf)
/usr/local/mcuxpressoide-11.0.0_2516/ide/plugins/com.nxp.mcuxpresso.tools.linux_11.0.0.201905131304/tools/bin/../lib/gcc/arm-none-eabi/8.2.1/../../../../arm-none-eabi/lib/thumb/v7e-m+fp/hard/libcr_c.a(_fflush.o)
                              /usr/local/mcuxpressoide-11.0.0_2516/ide/plugins/com.nxp.mcuxpresso.tools.linux_11.0.0.201905131304/tools/bin/../lib/gcc/arm-none-eabi/8.2.1/../../../../arm-none-eabi/lib/thumb/v7e-m+fp/hard/libcr_c.a(_deferredlazyseek.o) (_fflush)
/usr/local/mcuxpressoide-11.0.0_2516/ide/plugins/com.nxp.mcuxpresso.tools.linux_11.0.0.201905131304/tools/bin/../lib/gcc/arm-none-eabi/8.2.1/../../../../arm-none-eabi/lib/thumb/v7e-m+fp/hard/libcr_c.a(_writebuf.o)
                              /usr/local/mcuxpressoide-11.0.0_2516/ide/plugins/com.nxp.mcuxpresso.tools.linux_11.0.0.201905131304/tools/bin/../lib/gcc/arm-none-eabi/8.2.1/../../../../arm-none-eabi/lib/thumb/v7e-m+fp/hard/libcr_c.a(_deferredlazyseek.o) (_Cwritebuf)
/usr/local/mcuxpressoide-11.0.0_2516/ide/plugins/com.nxp.mcuxpresso.tools.linux_11.0.0.201905131304/tools/bin/../lib/gcc/arm-none-eabi/8.2.1/../../../../arm-none-eabi/lib/thumb/v7e-m+fp/hard/libcr_c.a(alloc.o)
                              ./drivers/fsl_common.o (malloc)
/usr/local/mcuxpressoide-11.0.0_2516/ide/plugins/com.nxp.mcuxpresso.tools.linux_11.0.0.201905131304/tools/bin/../lib/gcc/arm-none-eabi/8.2.1/../../../../arm-none-eabi/lib/thumb/v7e-m+fp/hard/libcr_c.a(fputs.o)
                              /usr/local/mcuxpressoide-11.0.0_2516/ide/plugins/com.nxp.mcuxpresso.tools.linux_11.0.0.201905131304/tools/bin/../lib/gcc/arm-none-eabi/8.2.1/../../../../arm-none-eabi/lib/thumb/v7e-m+fp/hard/libcr_nohost_nf.a(_cr_assert.o) (fputs)
/usr/local/mcuxpressoide-11.0.0_2516/ide/plugins/com.nxp.mcuxpresso.tools.linux_11.0.0.201905131304/tools/bin/../lib/gcc/arm-none-eabi/8.2.1/../../../../arm-none-eabi/lib/thumb/v7e-m+fp/hard/libcr_c.a(fseek.o)
                              /usr/local/mcuxpressoide-11.0.0_2516/ide/plugins/com.nxp.mcuxpresso.tools.linux_11.0.0.201905131304/tools/bin/../lib/gcc/arm-none-eabi/8.2.1/../../../../arm-none-eabi/lib/thumb/v7e-m+fp/hard/libcr_c.a(_deferredlazyseek.o) (fseek)
/usr/local/mcuxpressoide-11.0.0_2516/ide/plugins/com.nxp.mcuxpresso.tools.linux_11.0.0.201905131304/tools/bin/../lib/gcc/arm-none-eabi/8.2.1/../../../../arm-none-eabi/lib/thumb/v7e-m+fp/hard/libcr_c.a(ftell.o)
                              /usr/local/mcuxpressoide-11.0.0_2516/ide/plugins/com.nxp.mcuxpresso.tools.linux_11.0.0.201905131304/tools/bin/../lib/gcc/arm-none-eabi/8.2.1/../../../../arm-none-eabi/lib/thumb/v7e-m+fp/hard/libcr_c.a(fseek.o) (ftell)
/usr/local/mcuxpressoide-11.0.0_2516/ide/plugins/com.nxp.mcuxpresso.tools.linux_11.0.0.201905131304/tools/bin/../lib/gcc/arm-none-eabi/8.2.1/../../../../arm-none-eabi/lib/thumb/v7e-m+fp/hard/libcr_c.a(initio.o)
                              /usr/local/mcuxpressoide-11.0.0_2516/ide/plugins/com.nxp.mcuxpresso.tools.linux_11.0.0.201905131304/tools/bin/../lib/gcc/arm-none-eabi/8.2.1/../../../../arm-none-eabi/lib/thumb/v7e-m+fp/hard/libcr_nohost_nf.a(_cr__main.o) (_initio)
/usr/local/mcuxpressoide-11.0.0_2516/ide/plugins/com.nxp.mcuxpresso.tools.linux_11.0.0.201905131304/tools/bin/../lib/gcc/arm-none-eabi/8.2.1/../../../../arm-none-eabi/lib/thumb/v7e-m+fp/hard/libcr_c.a(setvbuf.o)
                              /usr/local/mcuxpressoide-11.0.0_2516/ide/plugins/com.nxp.mcuxpresso.tools.linux_11.0.0.201905131304/tools/bin/../lib/gcc/arm-none-eabi/8.2.1/../../../../arm-none-eabi/lib/thumb/v7e-m+fp/hard/libcr_c.a(initio.o) (setvbuf)
/usr/local/mcuxpressoide-11.0.0_2516/ide/plugins/com.nxp.mcuxpresso.tools.linux_11.0.0.201905131304/tools/bin/../lib/gcc/arm-none-eabi/8.2.1/../../../../arm-none-eabi/lib/thumb/v7e-m+fp/hard/libcr_c.a(stdlib.o)
                              ./source/TP4_FTOS.o (rand)
/usr/local/mcuxpressoide-11.0.0_2516/ide/plugins/com.nxp.mcuxpresso.tools.linux_11.0.0.201905131304/tools/bin/../lib/gcc/arm-none-eabi/8.2.1/../../../../arm-none-eabi/lib/thumb/v7e-m+fp/hard/libcr_c.a(strcpy.o)
                              ./amazon-freertos/TraceRecorder/streamports/Jlink_RTT/SEGGER_RTT.o (strcpy)
/usr/local/mcuxpressoide-11.0.0_2516/ide/plugins/com.nxp.mcuxpresso.tools.linux_11.0.0.201905131304/tools/bin/../lib/gcc/arm-none-eabi/8.2.1/../../../../arm-none-eabi/lib/thumb/v7e-m+fp/hard/libcr_c.a(strlen.o)
                              ./utilities/fsl_str.o (strlen)
/usr/local/mcuxpressoide-11.0.0_2516/ide/plugins/com.nxp.mcuxpresso.tools.linux_11.0.0.201905131304/tools/bin/../lib/gcc/arm-none-eabi/8.2.1/../../../../arm-none-eabi/lib/thumb/v7e-m+fp/hard/libcr_c.a(strncmp.o)
                              ./amazon-freertos/TraceRecorder/trcSnapshotRecorder.o (strncmp)
/usr/local/mcuxpressoide-11.0.0_2516/ide/plugins/com.nxp.mcuxpresso.tools.linux_11.0.0.201905131304/tools/bin/../lib/gcc/arm-none-eabi/8.2.1/../../../../arm-none-eabi/lib/thumb/v7e-m+fp/hard/libcr_c.a(__init_alloc.o)
                              /usr/local/mcuxpressoide-11.0.0_2516/ide/plugins/com.nxp.mcuxpresso.tools.linux_11.0.0.201905131304/tools/bin/../lib/gcc/arm-none-eabi/8.2.1/../../../../arm-none-eabi/lib/thumb/v7e-m+fp/hard/libcr_c.a(alloc.o) (__heaps)
/usr/local/mcuxpressoide-11.0.0_2516/ide/plugins/com.nxp.mcuxpresso.tools.linux_11.0.0.201905131304/tools/bin/../lib/gcc/arm-none-eabi/8.2.1/../../../../arm-none-eabi/lib/thumb/v7e-m+fp/hard/libcr_c.a(_cr_sbrk.o)
                              /usr/local/mcuxpressoide-11.0.0_2516/ide/plugins/com.nxp.mcuxpresso.tools.linux_11.0.0.201905131304/tools/bin/../lib/gcc/arm-none-eabi/8.2.1/../../../../arm-none-eabi/lib/thumb/v7e-m+fp/hard/libcr_c.a(alloc.o) (_sbrk)
/usr/local/mcuxpressoide-11.0.0_2516/ide/plugins/com.nxp.mcuxpresso.tools.linux_11.0.0.201905131304/tools/bin/../lib/gcc/arm-none-eabi/8.2.1/../../../../arm-none-eabi/lib/thumb/v7e-m+fp/hard/libcr_c.a(_fdopen.o)
                              /usr/local/mcuxpressoide-11.0.0_2516/ide/plugins/com.nxp.mcuxpresso.tools.linux_11.0.0.201905131304/tools/bin/../lib/gcc/arm-none-eabi/8.2.1/../../../../arm-none-eabi/lib/thumb/v7e-m+fp/hard/libcr_c.a(initio.o) (_fdopen)
/usr/local/mcuxpressoide-11.0.0_2516/ide/plugins/com.nxp.mcuxpresso.tools.linux_11.0.0.201905131304/tools/bin/../lib/gcc/arm-none-eabi/8.2.1/../../../../arm-none-eabi/lib/thumb/v7e-m+fp/hard/libcr_c.a(errno.o)
                              /usr/local/mcuxpressoide-11.0.0_2516/ide/plugins/com.nxp.mcuxpresso.tools.linux_11.0.0.201905131304/tools/bin/../lib/gcc/arm-none-eabi/8.2.1/../../../../arm-none-eabi/lib/thumb/v7e-m+fp/hard/libcr_c.a(ftell.o) (errno)
/usr/local/mcuxpressoide-11.0.0_2516/ide/plugins/com.nxp.mcuxpresso.tools.linux_11.0.0.201905131304/tools/bin/../lib/gcc/arm-none-eabi/8.2.1/../../../../arm-none-eabi/lib/thumb/v7e-m+fp/hard/libcr_c.a(fclose.o)
                              /usr/local/mcuxpressoide-11.0.0_2516/ide/plugins/com.nxp.mcuxpresso.tools.linux_11.0.0.201905131304/tools/bin/../lib/gcc/arm-none-eabi/8.2.1/../../../../arm-none-eabi/lib/thumb/v7e-m+fp/hard/libcr_c.a(initio.o) (fclose)
/usr/local/mcuxpressoide-11.0.0_2516/ide/plugins/com.nxp.mcuxpresso.tools.linux_11.0.0.201905131304/tools/bin/../lib/gcc/arm-none-eabi/8.2.1/../../../../arm-none-eabi/lib/thumb/v7e-m+fp/hard/libcr_c.a(fflush.o)
                              /usr/local/mcuxpressoide-11.0.0_2516/ide/plugins/com.nxp.mcuxpresso.tools.linux_11.0.0.201905131304/tools/bin/../lib/gcc/arm-none-eabi/8.2.1/../../../../arm-none-eabi/lib/thumb/v7e-m+fp/hard/libcr_c.a(fclose.o) (fflush)
/usr/local/mcuxpressoide-11.0.0_2516/ide/plugins/com.nxp.mcuxpresso.tools.linux_11.0.0.201905131304/tools/bin/../lib/gcc/arm-none-eabi/8.2.1/../../../../arm-none-eabi/lib/thumb/v7e-m+fp/hard/libcr_c.a(raise.o)
                              /usr/local/mcuxpressoide-11.0.0_2516/ide/plugins/com.nxp.mcuxpresso.tools.linux_11.0.0.201905131304/tools/bin/../lib/gcc/arm-none-eabi/8.2.1/../../../../arm-none-eabi/lib/thumb/v7e-m+fp/hard/libcr_c.a(stdlib.o) (raise)
/usr/local/mcuxpressoide-11.0.0_2516/ide/plugins/com.nxp.mcuxpresso.tools.linux_11.0.0.201905131304/tools/bin/../lib/gcc/arm-none-eabi/8.2.1/../../../../arm-none-eabi/lib/thumb/v7e-m+fp/hard/libcr_c.a(remove.o)
                              /usr/local/mcuxpressoide-11.0.0_2516/ide/plugins/com.nxp.mcuxpresso.tools.linux_11.0.0.201905131304/tools/bin/../lib/gcc/arm-none-eabi/8.2.1/../../../../arm-none-eabi/lib/thumb/v7e-m+fp/hard/libcr_c.a(fclose.o) (remove)
/usr/local/mcuxpressoide-11.0.0_2516/ide/plugins/com.nxp.mcuxpresso.tools.linux_11.0.0.201905131304/tools/bin/../lib/gcc/arm-none-eabi/8.2.1/../../../../arm-none-eabi/lib/thumb/v7e-m+fp/hard/libcr_c.a(_cr_check_heap.o)
                              /usr/local/mcuxpressoide-11.0.0_2516/ide/plugins/com.nxp.mcuxpresso.tools.linux_11.0.0.201905131304/tools/bin/../lib/gcc/arm-none-eabi/8.2.1/../../../../arm-none-eabi/lib/thumb/v7e-m+fp/hard/libcr_c.a(_cr_sbrk.o) (__check_heap_overflow)
/usr/local/mcuxpressoide-11.0.0_2516/ide/plugins/com.nxp.mcuxpresso.tools.linux_11.0.0.201905131304/tools/bin/../lib/gcc/arm-none-eabi/8.2.1/../../../../arm-none-eabi/lib/thumb/v7e-m+fp/hard/libcr_c.a(_do_fflush.o)
                              /usr/local/mcuxpressoide-11.0.0_2516/ide/plugins/com.nxp.mcuxpresso.tools.linux_11.0.0.201905131304/tools/bin/../lib/gcc/arm-none-eabi/8.2.1/../../../../arm-none-eabi/lib/thumb/v7e-m+fp/hard/libcr_c.a(fflush.o) (_do_fflush)
/usr/local/mcuxpressoide-11.0.0_2516/ide/plugins/com.nxp.mcuxpresso.tools.linux_11.0.0.201905131304/tools/bin/../lib/gcc/arm-none-eabi/8.2.1/thumb/v7e-m+fp/hard/libcr_eabihelpers.a(double.o)
                              ./amazon-freertos/TraceRecorder/trcSnapshotRecorder.o (__aeabi_d2uiz)
/usr/local/mcuxpressoide-11.0.0_2516/ide/plugins/com.nxp.mcuxpresso.tools.linux_11.0.0.201905131304/tools/bin/../lib/gcc/arm-none-eabi/8.2.1/thumb/v7e-m+fp/hard/libcr_eabihelpers.a(memcpy.o)
                              /usr/local/mcuxpressoide-11.0.0_2516/ide/plugins/com.nxp.mcuxpresso.tools.linux_11.0.0.201905131304/tools/bin/../lib/gcc/arm-none-eabi/8.2.1/../../../../arm-none-eabi/lib/thumb/v7e-m+fp/hard/libcr_c.a(memcpy.o) (__aeabi_memcpy)
/usr/local/mcuxpressoide-11.0.0_2516/ide/plugins/com.nxp.mcuxpresso.tools.linux_11.0.0.201905131304/tools/bin/../lib/gcc/arm-none-eabi/8.2.1/../../../../arm-none-eabi/lib/thumb/v7e-m+fp/hard/libcr_nohost_nf.a(__sys_close.o)
                              /usr/local/mcuxpressoide-11.0.0_2516/ide/plugins/com.nxp.mcuxpresso.tools.linux_11.0.0.201905131304/tools/bin/../lib/gcc/arm-none-eabi/8.2.1/../../../../arm-none-eabi/lib/thumb/v7e-m+fp/hard/libcr_c.a(fclose.o) (__sys_close)
/usr/local/mcuxpressoide-11.0.0_2516/ide/plugins/com.nxp.mcuxpresso.tools.linux_11.0.0.201905131304/tools/bin/../lib/gcc/arm-none-eabi/8.2.1/../../../../arm-none-eabi/lib/thumb/v7e-m+fp/hard/libcr_nohost_nf.a(__sys_flen.o)
                              /usr/local/mcuxpressoide-11.0.0_2516/ide/plugins/com.nxp.mcuxpresso.tools.linux_11.0.0.201905131304/tools/bin/../lib/gcc/arm-none-eabi/8.2.1/../../../../arm-none-eabi/lib/thumb/v7e-m+fp/hard/libcr_c.a(_writebuf.o) (__sys_flen)
/usr/local/mcuxpressoide-11.0.0_2516/ide/plugins/com.nxp.mcuxpresso.tools.linux_11.0.0.201905131304/tools/bin/../lib/gcc/arm-none-eabi/8.2.1/../../../../arm-none-eabi/lib/thumb/v7e-m+fp/hard/libcr_nohost_nf.a(__sys_istty.o)
                              /usr/local/mcuxpressoide-11.0.0_2516/ide/plugins/com.nxp.mcuxpresso.tools.linux_11.0.0.201905131304/tools/bin/../lib/gcc/arm-none-eabi/8.2.1/../../../../arm-none-eabi/lib/thumb/v7e-m+fp/hard/libcr_c.a(_deferredlazyseek.o) (__sys_istty)
/usr/local/mcuxpressoide-11.0.0_2516/ide/plugins/com.nxp.mcuxpresso.tools.linux_11.0.0.201905131304/tools/bin/../lib/gcc/arm-none-eabi/8.2.1/../../../../arm-none-eabi/lib/thumb/v7e-m+fp/hard/libcr_nohost_nf.a(__sys_remove.o)
                              /usr/local/mcuxpressoide-11.0.0_2516/ide/plugins/com.nxp.mcuxpresso.tools.linux_11.0.0.201905131304/tools/bin/../lib/gcc/arm-none-eabi/8.2.1/../../../../arm-none-eabi/lib/thumb/v7e-m+fp/hard/libcr_c.a(remove.o) (__sys_remove)
/usr/local/mcuxpressoide-11.0.0_2516/ide/plugins/com.nxp.mcuxpresso.tools.linux_11.0.0.201905131304/tools/bin/../lib/gcc/arm-none-eabi/8.2.1/../../../../arm-none-eabi/lib/thumb/v7e-m+fp/hard/libcr_nohost_nf.a(__sys_rename.o)
                              /usr/local/mcuxpressoide-11.0.0_2516/ide/plugins/com.nxp.mcuxpresso.tools.linux_11.0.0.201905131304/tools/bin/../lib/gcc/arm-none-eabi/8.2.1/../../../../arm-none-eabi/lib/thumb/v7e-m+fp/hard/libcr_c.a(remove.o) (__sys_rename)
/usr/local/mcuxpressoide-11.0.0_2516/ide/plugins/com.nxp.mcuxpresso.tools.linux_11.0.0.201905131304/tools/bin/../lib/gcc/arm-none-eabi/8.2.1/../../../../arm-none-eabi/lib/thumb/v7e-m+fp/hard/libcr_nohost_nf.a(__sys_seek.o)
                              /usr/local/mcuxpressoide-11.0.0_2516/ide/plugins/com.nxp.mcuxpresso.tools.linux_11.0.0.201905131304/tools/bin/../lib/gcc/arm-none-eabi/8.2.1/../../../../arm-none-eabi/lib/thumb/v7e-m+fp/hard/libcr_c.a(_writebuf.o) (__sys_seek)
/usr/local/mcuxpressoide-11.0.0_2516/ide/plugins/com.nxp.mcuxpresso.tools.linux_11.0.0.201905131304/tools/bin/../lib/gcc/arm-none-eabi/8.2.1/../../../../arm-none-eabi/lib/thumb/v7e-m+fp/hard/libcr_nohost_nf.a(__sys_tmpnam.o)
                              /usr/local/mcuxpressoide-11.0.0_2516/ide/plugins/com.nxp.mcuxpresso.tools.linux_11.0.0.201905131304/tools/bin/../lib/gcc/arm-none-eabi/8.2.1/../../../../arm-none-eabi/lib/thumb/v7e-m+fp/hard/libcr_c.a(fclose.o) (__sys_tmpnam)
/usr/local/mcuxpressoide-11.0.0_2516/ide/plugins/com.nxp.mcuxpresso.tools.linux_11.0.0.201905131304/tools/bin/../lib/gcc/arm-none-eabi/8.2.1/../../../../arm-none-eabi/lib/thumb/v7e-m+fp/hard/libcr_nohost_nf.a(__sys_write.o)
                              /usr/local/mcuxpressoide-11.0.0_2516/ide/plugins/com.nxp.mcuxpresso.tools.linux_11.0.0.201905131304/tools/bin/../lib/gcc/arm-none-eabi/8.2.1/../../../../arm-none-eabi/lib/thumb/v7e-m+fp/hard/libcr_c.a(_writebuf.o) (__sys_write)

Discarded input sections

 .group         0x0000000000000000        0xc ./utilities/fsl_debug_console.o
 .group         0x0000000000000000        0xc ./utilities/fsl_debug_console.o
 .group         0x0000000000000000        0xc ./utilities/fsl_debug_console.o
 .group         0x0000000000000000        0xc ./utilities/fsl_debug_console.o
 .group         0x0000000000000000        0xc ./utilities/fsl_debug_console.o
 .group         0x0000000000000000        0xc ./utilities/fsl_debug_console.o
 .group         0x0000000000000000        0xc ./utilities/fsl_debug_console.o
 .group         0x0000000000000000        0xc ./utilities/fsl_debug_console.o
 .group         0x0000000000000000        0xc ./utilities/fsl_debug_console.o
 .group         0x0000000000000000        0xc ./utilities/fsl_debug_console.o
 .group         0x0000000000000000        0xc ./utilities/fsl_debug_console.o
 .group         0x0000000000000000        0xc ./utilities/fsl_debug_console.o
 .group         0x0000000000000000        0xc ./utilities/fsl_debug_console.o
 .group         0x0000000000000000        0xc ./utilities/fsl_debug_console.o
 .group         0x0000000000000000        0xc ./utilities/fsl_debug_console.o
 .group         0x0000000000000000        0xc ./utilities/fsl_debug_console.o
 .group         0x0000000000000000        0xc ./utilities/fsl_debug_console.o
 .group         0x0000000000000000        0xc ./utilities/fsl_debug_console.o
Memory Configuration

Name             Origin             Length             Attributes
PROGRAM_FLASH    0x0000000000000000 0x0000000000100000 xr
SRAM_UPPER       0x0000000020000000 0x0000000000030000 xrw
SRAM_LOWER       0x000000001fff0000 0x0000000000010000 xrw
FLEX_RAM         0x0000000014000000 0x0000000000001000 xrw
*default*        0x0000000000000000 0xffffffffffffffff

Linker script and memory map

LOAD ./utilities/fsl_debug_console.o
LOAD ./utilities/fsl_str.o
LOAD ./startup/startup_mk64f12.o
LOAD ./source/TP4_FTOS.o
LOAD ./source/semihost_hardfault.o
LOAD ./drivers/fsl_adc16.o
LOAD ./drivers/fsl_clock.o
LOAD ./drivers/fsl_common.o
LOAD ./drivers/fsl_dspi.o
LOAD ./drivers/fsl_gpio.o
LOAD ./drivers/fsl_i2c.o
LOAD ./drivers/fsl_rtc.o
LOAD ./drivers/fsl_smc.o
LOAD ./drivers/fsl_uart.o
LOAD ./device/system_MK64F12.o
LOAD ./component/uart/uart_adapter.o
LOAD ./component/serial_manager/serial_manager.o
LOAD ./component/serial_manager/serial_port_uart.o
LOAD ./component/lists/generic_list.o
LOAD ./board/boards/board.o
LOAD ./board/boards/clock_config.o
LOAD ./board/boards/peripherals.o
LOAD ./board/boards/pin_mux.o
LOAD ./amazon-freertos/freertos/portable/heap_4.o
LOAD ./amazon-freertos/freertos/portable/port.o
LOAD ./amazon-freertos/freertos/event_groups.o
LOAD ./amazon-freertos/freertos/list.o
LOAD ./amazon-freertos/freertos/queue.o
LOAD ./amazon-freertos/freertos/stream_buffer.o
LOAD ./amazon-freertos/freertos/tasks.o
LOAD ./amazon-freertos/freertos/timers.o
LOAD ./amazon-freertos/TraceRecorder/streamports/USB_CDC/trcStreamingPort.o
LOAD ./amazon-freertos/TraceRecorder/streamports/TCPIP/trcStreamingPort.o
LOAD ./amazon-freertos/TraceRecorder/streamports/Jlink_RTT/SEGGER_RTT.o
LOAD ./amazon-freertos/TraceRecorder/streamports/Jlink_RTT/trcStreamingPort.o
LOAD ./amazon-freertos/TraceRecorder/streamports/File/trcStreamingPort.o
LOAD ./amazon-freertos/TraceRecorder/streamports/ARM_ITM/trcStreamingPort.o
LOAD ./amazon-freertos/TraceRecorder/streamports/AFR_WIFI_LOCAL/trcStreamingPort.o
LOAD ./amazon-freertos/TraceRecorder/trcKernelPort.o
LOAD ./amazon-freertos/TraceRecorder/trcSnapshotRecorder.o
LOAD ./amazon-freertos/TraceRecorder/trcStreamingRecorder.o
START GROUP
LOAD /usr/local/mcuxpressoide-11.0.0_2516/ide/plugins/com.nxp.mcuxpresso.tools.linux_11.0.0.201905131304/tools/bin/../lib/gcc/arm-none-eabi/8.2.1/../../../../arm-none-eabi/lib/thumb/v7e-m+fp/hard/libcr_nohost_nf.a
LOAD /usr/local/mcuxpressoide-11.0.0_2516/ide/plugins/com.nxp.mcuxpresso.tools.linux_11.0.0.201905131304/tools/bin/../lib/gcc/arm-none-eabi/8.2.1/../../../../arm-none-eabi/lib/thumb/v7e-m+fp/hard/libcr_c.a
LOAD /usr/local/mcuxpressoide-11.0.0_2516/ide/plugins/com.nxp.mcuxpresso.tools.linux_11.0.0.201905131304/tools/bin/../lib/gcc/arm-none-eabi/8.2.1/thumb/v7e-m+fp/hard/libcr_eabihelpers.a
LOAD /usr/local/mcuxpressoide-11.0.0_2516/ide/plugins/com.nxp.mcuxpresso.tools.linux_11.0.0.201905131304/tools/bin/../lib/gcc/arm-none-eabi/8.2.1/thumb/v7e-m+fp/hard/libgcc.a
END GROUP
                0x0000000000000000                __base_PROGRAM_FLASH = 0x0
                0x0000000000000000                __base_Flash = 0x0
                0x0000000000100000                __top_PROGRAM_FLASH = 0x100000
                0x0000000000100000                __top_Flash = 0x100000
                0x0000000020000000                __base_SRAM_UPPER = 0x20000000
                0x0000000020000000                __base_RAM = 0x20000000
                0x0000000020030000                __top_SRAM_UPPER = 0x20030000
                0x0000000020030000                __top_RAM = 0x20030000
                0x000000001fff0000                __base_SRAM_LOWER = 0x1fff0000
                0x000000001fff0000                __base_RAM2 = 0x1fff0000
                0x0000000020000000                __top_SRAM_LOWER = 0x20000000
                0x0000000020000000                __top_RAM2 = 0x20000000
                0x0000000014000000                __base_FLEX_RAM = 0x14000000
                0x0000000014000000                __base_RAM3 = 0x14000000
                0x0000000014001000                __top_FLEX_RAM = 0x14001000
                0x0000000014001000                __top_RAM3 = 0x14001000

.text           0x0000000000000000     0xaf50
 FILL mask 0xff
                0x0000000000000000                __vectors_start__ = ABSOLUTE (.)
 *(SORT_BY_ALIGNMENT(.isr_vector))
 .isr_vector    0x0000000000000000      0x198 ./startup/startup_mk64f12.o
                0x0000000000000000                __Vectors
                0x0000000000000000                g_pfnVectors
                0x0000000000000198                . = ALIGN (0x4)
                0x0000000000000198                __section_table_start = .
                0x0000000000000198                __data_section_table = .
                0x0000000000000198        0x4 LONG 0xaf50 LOADADDR (.data)
                0x000000000000019c        0x4 LONG 0x20000000 ADDR (.data)
                0x00000000000001a0        0x4 LONG 0x108 SIZEOF (.data)
                0x00000000000001a4        0x4 LONG 0xaf50 LOADADDR (.data_RAM2)
                0x00000000000001a8        0x4 LONG 0x1fff0000 ADDR (.data_RAM2)
                0x00000000000001ac        0x4 LONG 0x0 SIZEOF (.data_RAM2)
                0x00000000000001b0        0x4 LONG 0xaf50 LOADADDR (.data_RAM3)
                0x00000000000001b4        0x4 LONG 0x14000000 ADDR (.data_RAM3)
                0x00000000000001b8        0x4 LONG 0x0 SIZEOF (.data_RAM3)
                0x00000000000001bc                __data_section_table_end = .
                0x00000000000001bc                __bss_section_table = .
                0x00000000000001bc        0x4 LONG 0x20000108 ADDR (.bss)
                0x00000000000001c0        0x4 LONG 0x4588 SIZEOF (.bss)
                0x00000000000001c4        0x4 LONG 0x1fff0000 ADDR (.bss_RAM2)
                0x00000000000001c8        0x4 LONG 0x0 SIZEOF (.bss_RAM2)
                0x00000000000001cc        0x4 LONG 0x14000000 ADDR (.bss_RAM3)
                0x00000000000001d0        0x4 LONG 0x0 SIZEOF (.bss_RAM3)
                0x00000000000001d4                __bss_section_table_end = .
                0x00000000000001d4                __section_table_end = .
 *(SORT_BY_ALIGNMENT(.after_vectors*))
 .after_vectors.reset
                0x00000000000001d4       0x4c ./startup/startup_mk64f12.o
                0x00000000000001d4                ResetISR
 .after_vectors.init_data
                0x0000000000000220       0x1e ./startup/startup_mk64f12.o
                0x0000000000000220                data_init
 .after_vectors.init_bss
                0x000000000000023e       0x12 ./startup/startup_mk64f12.o
                0x000000000000023e                bss_init
 .after_vectors
                0x0000000000000250       0x14 ./startup/startup_mk64f12.o
                0x0000000000000250                NMI_Handler
                0x0000000000000254                MemManage_Handler
                0x0000000000000256                BusFault_Handler
                0x0000000000000258                UsageFault_Handler
                0x000000000000025c                DebugMon_Handler
                0x0000000000000262                DMA0_DriverIRQHandler
                0x0000000000000262                PORTB_DriverIRQHandler
                0x0000000000000262                DMA12_DriverIRQHandler
                0x0000000000000262                LPTMR0_DriverIRQHandler
                0x0000000000000262                DMA_Error_DriverIRQHandler
                0x0000000000000262                FTM1_DriverIRQHandler
                0x0000000000000262                FTM2_DriverIRQHandler
                0x0000000000000262                PIT2_DriverIRQHandler
                0x0000000000000262                SDHC_DriverIRQHandler
                0x0000000000000262                I2S0_Tx_DriverIRQHandler
                0x0000000000000262                RTC_Seconds_DriverIRQHandler
                0x0000000000000262                DMA6_DriverIRQHandler
                0x0000000000000262                LLWU_DriverIRQHandler
                0x0000000000000262                MCM_DriverIRQHandler
                0x0000000000000262                MCG_DriverIRQHandler
                0x0000000000000262                ENET_1588_Timer_DriverIRQHandler
                0x0000000000000262                DAC1_DriverIRQHandler
                0x0000000000000262                CMP1_DriverIRQHandler
                0x0000000000000262                FTM0_DriverIRQHandler
                0x0000000000000262                IntDefaultHandler
                0x0000000000000262                USB0_DriverIRQHandler
                0x0000000000000262                UART5_ERR_DriverIRQHandler
                0x0000000000000262                PORTC_DriverIRQHandler
                0x0000000000000262                DMA11_DriverIRQHandler
                0x0000000000000262                DAC0_DriverIRQHandler
                0x0000000000000262                DMA10_DriverIRQHandler
                0x0000000000000262                CMP2_DriverIRQHandler
                0x0000000000000262                UART2_ERR_DriverIRQHandler
                0x0000000000000262                LVD_LVW_DriverIRQHandler
                0x0000000000000262                PIT0_DriverIRQHandler
                0x0000000000000262                RNG_DriverIRQHandler
                0x0000000000000262                DMA5_DriverIRQHandler
                0x0000000000000262                DMA4_DriverIRQHandler
                0x0000000000000262                USBDCD_DriverIRQHandler
                0x0000000000000262                UART3_ERR_DriverIRQHandler
                0x0000000000000262                DMA3_DriverIRQHandler
                0x0000000000000262                DMA8_DriverIRQHandler
                0x0000000000000262                DMA9_DriverIRQHandler
                0x0000000000000262                UART0_ERR_DriverIRQHandler
                0x0000000000000262                CMT_DriverIRQHandler
                0x0000000000000262                Reserved71_DriverIRQHandler
                0x0000000000000262                ADC1_DriverIRQHandler
                0x0000000000000262                PORTA_DriverIRQHandler
                0x0000000000000262                DMA14_DriverIRQHandler
                0x0000000000000262                PIT3_DriverIRQHandler
                0x0000000000000262                PIT1_DriverIRQHandler
                0x0000000000000262                WDOG_EWM_DriverIRQHandler
                0x0000000000000262                PDB0_DriverIRQHandler
                0x0000000000000262                RTC_DriverIRQHandler
                0x0000000000000262                I2S0_Rx_DriverIRQHandler
                0x0000000000000262                Read_Collision_DriverIRQHandler
                0x0000000000000262                SWI_DriverIRQHandler
                0x0000000000000262                UART4_ERR_DriverIRQHandler
                0x0000000000000262                UART0_LON_DriverIRQHandler
                0x0000000000000262                DMA1_DriverIRQHandler
                0x0000000000000262                ENET_Receive_DriverIRQHandler
                0x0000000000000262                DMA13_DriverIRQHandler
                0x0000000000000262                ENET_Error_DriverIRQHandler
                0x0000000000000262                DMA15_DriverIRQHandler
                0x0000000000000262                ADC0_DriverIRQHandler
                0x0000000000000262                CMP0_DriverIRQHandler
                0x0000000000000262                CAN0_DriverIRQHandler
                0x0000000000000262                FTM3_DriverIRQHandler
                0x0000000000000262                UART1_ERR_DriverIRQHandler
                0x0000000000000262                DMA2_DriverIRQHandler
                0x0000000000000262                ENET_Transmit_DriverIRQHandler
                0x0000000000000262                PORTD_DriverIRQHandler
                0x0000000000000262                PORTE_DriverIRQHandler
                0x0000000000000262                FTFE_DriverIRQHandler
                0x0000000000000262                DMA7_DriverIRQHandler
                0x0000000000000400                . = 0x400
 *fill*         0x0000000000000264      0x19c ff
                0x0000000000000400                PROVIDE (__FLASH_CONFIG_START__ = .)
 *(SORT_BY_ALIGNMENT(.FlashConfig))
 .FlashConfig   0x0000000000000400       0x10 ./startup/startup_mk64f12.o
                0x0000000000000400                Flash_Config
                0x0000000000000410                PROVIDE (__FLASH_CONFIG_END__ = .)
                0x0000000000000001                ASSERT (! ((__FLASH_CONFIG_START__ == __FLASH_CONFIG_END__)), Linker Flash Config Support Enabled, but no .FlashConfig section provided within application)
 *(SORT_BY_ALIGNMENT(.text*))
 .text.SVC_Handler
                0x0000000000000410       0x28 ./amazon-freertos/freertos/portable/port.o
                0x0000000000000410                SVC_Handler
 *fill*         0x0000000000000438        0x8 ff
 .text.PendSV_Handler
                0x0000000000000440       0x68 ./amazon-freertos/freertos/portable/port.o
                0x0000000000000440                PendSV_Handler
 .text.DbgConsole_SendDataReliable
                0x00000000000004a8       0x58 ./utilities/fsl_debug_console.o
                0x00000000000004a8                DbgConsole_SendDataReliable
 .text.DbgConsole_Init
                0x0000000000000500      0x104 ./utilities/fsl_debug_console.o
                0x0000000000000500                DbgConsole_Init
 .text.DbgConsole_Printf
                0x0000000000000604       0x74 ./utilities/fsl_debug_console.o
                0x0000000000000604                DbgConsole_Printf
 .text.main     0x0000000000000678       0xac ./source/TP4_FTOS.o
                0x0000000000000678                main
 .text.Init_ADC
                0x0000000000000724       0x78 ./source/TP4_FTOS.o
                0x0000000000000724                Init_ADC
 .text.sensorTASK
                0x000000000000079c       0x80 ./source/TP4_FTOS.o
                0x000000000000079c                sensorTASK
 .text.keyboardTASK
                0x000000000000081c      0x144 ./source/TP4_FTOS.o
                0x000000000000081c                keyboardTASK
 .text.consumerTASK
                0x0000000000000960       0xb0 ./source/TP4_FTOS.o
                0x0000000000000960                consumerTASK
 .text.CLOCK_SetEr32kClock
                0x0000000000000a10       0x30 ./drivers/fsl_clock.o
 .text.CLOCK_SetPllFllSelClock
                0x0000000000000a40       0x3c ./drivers/fsl_clock.o
 .text.CLOCK_GetMcgExtClkFreq
                0x0000000000000a7c       0x78 ./drivers/fsl_clock.o
 .text.CLOCK_GetFllExtRefClkFreq
                0x0000000000000af4       0xd0 ./drivers/fsl_clock.o
 .text.CLOCK_GetInternalRefClkSelectFreq
                0x0000000000000bc4       0x44 ./drivers/fsl_clock.o
 .text.CLOCK_GetFllRefClkFreq
                0x0000000000000c08       0x2c ./drivers/fsl_clock.o
 .text.CLOCK_GetOscRangeFromFreq
                0x0000000000000c34       0x3c ./drivers/fsl_clock.o
 .text.CLOCK_GetCoreSysClkFreq
                0x0000000000000c70       0x28 ./drivers/fsl_clock.o
                0x0000000000000c70                CLOCK_GetCoreSysClkFreq
 .text.CLOCK_SetSimConfig
                0x0000000000000c98       0x38 ./drivers/fsl_clock.o
                0x0000000000000c98                CLOCK_SetSimConfig
 .text.CLOCK_EnableUsbfs0Clock
                0x0000000000000cd0      0x108 ./drivers/fsl_clock.o
                0x0000000000000cd0                CLOCK_EnableUsbfs0Clock
 .text.CLOCK_GetOutClkFreq
                0x0000000000000dd8       0x64 ./drivers/fsl_clock.o
                0x0000000000000dd8                CLOCK_GetOutClkFreq
 .text.CLOCK_GetFllFreq
                0x0000000000000e3c       0x7c ./drivers/fsl_clock.o
                0x0000000000000e3c                CLOCK_GetFllFreq
 .text.CLOCK_GetPll0Freq
                0x0000000000000eb8       0x68 ./drivers/fsl_clock.o
                0x0000000000000eb8                CLOCK_GetPll0Freq
 .text.CLOCK_SetExternalRefClkConfig
                0x0000000000000f20       0x6c ./drivers/fsl_clock.o
                0x0000000000000f20                CLOCK_SetExternalRefClkConfig
 .text.CLOCK_SetInternalRefClkConfig
                0x0000000000000f8c      0x104 ./drivers/fsl_clock.o
                0x0000000000000f8c                CLOCK_SetInternalRefClkConfig
 .text.CLOCK_EnablePll0
                0x0000000000001090       0x84 ./drivers/fsl_clock.o
                0x0000000000001090                CLOCK_EnablePll0
 .text.CLOCK_InitOsc0
                0x0000000000001114       0x8c ./drivers/fsl_clock.o
                0x0000000000001114                CLOCK_InitOsc0
 .text.CLOCK_SetPbeMode
                0x00000000000011a0       0xa8 ./drivers/fsl_clock.o
                0x00000000000011a0                CLOCK_SetPbeMode
 .text.CLOCK_BootToPeeMode
                0x0000000000001248       0x64 ./drivers/fsl_clock.o
                0x0000000000001248                CLOCK_BootToPeeMode
 .text.DSPI_CommonIRQHandler
                0x00000000000012ac       0x40 ./drivers/fsl_dspi.o
 .text.SPI0_DriverIRQHandler
                0x00000000000012ec       0x30 ./drivers/fsl_dspi.o
                0x00000000000012ec                SPI0_DriverIRQHandler
 .text.SPI1_DriverIRQHandler
                0x000000000000131c       0x30 ./drivers/fsl_dspi.o
                0x000000000000131c                SPI1_DriverIRQHandler
 .text.SPI2_DriverIRQHandler
                0x000000000000134c       0x30 ./drivers/fsl_dspi.o
                0x000000000000134c                SPI2_DriverIRQHandler
 .text.I2C_TransferCommonIRQHandler
                0x000000000000137c       0x54 ./drivers/fsl_i2c.o
 .text.I2C0_DriverIRQHandler
                0x00000000000013d0       0x1c ./drivers/fsl_i2c.o
                0x00000000000013d0                I2C0_DriverIRQHandler
 .text.I2C1_DriverIRQHandler
                0x00000000000013ec       0x1c ./drivers/fsl_i2c.o
                0x00000000000013ec                I2C1_DriverIRQHandler
 .text.I2C2_DriverIRQHandler
                0x0000000000001408       0x1c ./drivers/fsl_i2c.o
                0x0000000000001408                I2C2_DriverIRQHandler
 .text.UART_GetInstance
                0x0000000000001424       0x54 ./drivers/fsl_uart.o
                0x0000000000001424                UART_GetInstance
 .text.UART_Init
                0x0000000000001478      0x2d8 ./drivers/fsl_uart.o
                0x0000000000001478                UART_Init
 .text.UART_GetDefaultConfig
                0x0000000000001750       0x68 ./drivers/fsl_uart.o
                0x0000000000001750                UART_GetDefaultConfig
 .text.UART0_DriverIRQHandler
                0x00000000000017b8       0x28 ./drivers/fsl_uart.o
                0x00000000000017b8                UART0_DriverIRQHandler
 .text.UART1_DriverIRQHandler
                0x00000000000017e0       0x28 ./drivers/fsl_uart.o
                0x00000000000017e0                UART1_DriverIRQHandler
 .text.UART2_DriverIRQHandler
                0x0000000000001808       0x28 ./drivers/fsl_uart.o
                0x0000000000001808                UART2_DriverIRQHandler
 .text.UART3_DriverIRQHandler
                0x0000000000001830       0x28 ./drivers/fsl_uart.o
                0x0000000000001830                UART3_DriverIRQHandler
 .text.UART4_DriverIRQHandler
                0x0000000000001858       0x28 ./drivers/fsl_uart.o
                0x0000000000001858                UART4_DriverIRQHandler
 .text.UART5_DriverIRQHandler
                0x0000000000001880       0x28 ./drivers/fsl_uart.o
                0x0000000000001880                UART5_DriverIRQHandler
 .text.SystemInit
                0x00000000000018a8       0x3c ./device/system_MK64F12.o
                0x00000000000018a8                SystemInit
 .text.HAL_UartInit
                0x00000000000018e4      0x108 ./component/uart/uart_adapter.o
                0x00000000000018e4                HAL_UartInit
 .text.HAL_UartSendBlocking
                0x00000000000019ec       0x64 ./component/uart/uart_adapter.o
                0x00000000000019ec                HAL_UartSendBlocking
 .text.SerialManager_Write
                0x0000000000001a50       0x6c ./component/serial_manager/serial_manager.o
 .text.SerialManager_Init
                0x0000000000001abc       0x74 ./component/serial_manager/serial_manager.o
                0x0000000000001abc                SerialManager_Init
 .text.SerialManager_OpenWriteHandle
                0x0000000000001b30       0x58 ./component/serial_manager/serial_manager.o
                0x0000000000001b30                SerialManager_OpenWriteHandle
 .text.SerialManager_OpenReadHandle
                0x0000000000001b88       0x60 ./component/serial_manager/serial_manager.o
                0x0000000000001b88                SerialManager_OpenReadHandle
 .text.Serial_UartInit
                0x0000000000001be8       0x80 ./component/serial_manager/serial_port_uart.o
                0x0000000000001be8                Serial_UartInit
 .text.Serial_UartWrite
                0x0000000000001c68       0x58 ./component/serial_manager/serial_port_uart.o
                0x0000000000001c68                Serial_UartWrite
 .text.CLOCK_SetSdhc0Clock
                0x0000000000001cc0       0x3c ./board/boards/clock_config.o
 .text.CLOCK_SetEnetTime0Clock
                0x0000000000001cfc       0x3c ./board/boards/clock_config.o
 .text.CLOCK_SetRmii0Clock
                0x0000000000001d38       0x3c ./board/boards/clock_config.o
 .text.CLOCK_SetTraceClock
                0x0000000000001d74       0x3c ./board/boards/clock_config.o
 .text.CLOCK_SetClkOutClock
                0x0000000000001db0       0x38 ./board/boards/clock_config.o
 .text.CLOCK_SetSimSafeDivs
                0x0000000000001de8       0x20 ./board/boards/clock_config.o
 .text.CLOCK_SetXtal0Freq
                0x0000000000001e08       0x20 ./board/boards/clock_config.o
 .text.CLOCK_CONFIG_SetFllExtRefDiv
                0x0000000000001e28       0x3c ./board/boards/clock_config.o
 .text.BOARD_BootClockRUN
                0x0000000000001e64       0x88 ./board/boards/clock_config.o
                0x0000000000001e64                BOARD_BootClockRUN
 .text.PORT_SetPinConfig
                0x0000000000001eec       0x38 ./board/boards/pin_mux.o
 .text.BOARD_InitPins
                0x0000000000001f24       0x30 ./board/boards/pin_mux.o
                0x0000000000001f24                BOARD_InitPins
 .text.BOARD_InitDEBUG_UARTPins
                0x0000000000001f54       0x6c ./board/boards/pin_mux.o
                0x0000000000001f54                BOARD_InitDEBUG_UARTPins
 .text.pvPortMalloc
                0x0000000000001fc0      0x1a4 ./amazon-freertos/freertos/portable/heap_4.o
                0x0000000000001fc0                pvPortMalloc
 .text.vPortFree
                0x0000000000002164       0xc0 ./amazon-freertos/freertos/portable/heap_4.o
                0x0000000000002164                vPortFree
 .text.prvHeapInit
                0x0000000000002224       0xc4 ./amazon-freertos/freertos/portable/heap_4.o
 .text.prvInsertBlockIntoFreeList
                0x00000000000022e8       0xb4 ./amazon-freertos/freertos/portable/heap_4.o
 .text.pxPortInitialiseStack
                0x000000000000239c       0x68 ./amazon-freertos/freertos/portable/port.o
                0x000000000000239c                pxPortInitialiseStack
 .text.prvTaskExitError
                0x0000000000002404       0x54 ./amazon-freertos/freertos/portable/port.o
 .text.prvPortStartFirstTask
                0x0000000000002458       0x28 ./amazon-freertos/freertos/portable/port.o
 .text.xPortStartScheduler
                0x0000000000002480      0x15c ./amazon-freertos/freertos/portable/port.o
                0x0000000000002480                xPortStartScheduler
 .text.vPortEnterCritical
                0x00000000000025dc       0x5c ./amazon-freertos/freertos/portable/port.o
                0x00000000000025dc                vPortEnterCritical
 .text.vPortExitCritical
                0x0000000000002638       0x50 ./amazon-freertos/freertos/portable/port.o
                0x0000000000002638                vPortExitCritical
 .text.SysTick_Handler
                0x0000000000002688       0x40 ./amazon-freertos/freertos/portable/port.o
                0x0000000000002688                SysTick_Handler
 .text.vPortSetupTimerInterrupt
                0x00000000000026c8       0x48 ./amazon-freertos/freertos/portable/port.o
                0x00000000000026c8                vPortSetupTimerInterrupt
 .text.vPortEnableVFP
                0x0000000000002710       0x14 ./amazon-freertos/freertos/portable/port.o
 .text.vPortValidateInterruptPriority
                0x0000000000002724       0x7c ./amazon-freertos/freertos/portable/port.o
                0x0000000000002724                vPortValidateInterruptPriority
 .text.xQueueGenericReset
                0x00000000000027a0       0xd0 ./amazon-freertos/freertos/queue.o
                0x00000000000027a0                xQueueGenericReset
 .text.xQueueGenericCreate
                0x0000000000002870       0xb0 ./amazon-freertos/freertos/queue.o
                0x0000000000002870                xQueueGenericCreate
 .text.prvInitialiseNewQueue
                0x0000000000002920      0x128 ./amazon-freertos/freertos/queue.o
 .text.xQueueGenericSend
                0x0000000000002a48      0x414 ./amazon-freertos/freertos/queue.o
                0x0000000000002a48                xQueueGenericSend
 .text.xQueueGenericSendFromISR
                0x0000000000002e5c      0x208 ./amazon-freertos/freertos/queue.o
                0x0000000000002e5c                xQueueGenericSendFromISR
 .text.xQueueReceive
                0x0000000000003064      0x404 ./amazon-freertos/freertos/queue.o
                0x0000000000003064                xQueueReceive
 .text.vQueueAddToRegistry
                0x0000000000003468       0x74 ./amazon-freertos/freertos/queue.o
                0x0000000000003468                vQueueAddToRegistry
 .text.prvAddNewTaskToReadyList
                0x00000000000034dc      0x1a8 ./amazon-freertos/freertos/tasks.o
 .text.vTaskDelay
                0x0000000000003684       0xd8 ./amazon-freertos/freertos/tasks.o
                0x0000000000003684                vTaskDelay
 .text.vTaskStartScheduler
                0x000000000000375c       0xcc ./amazon-freertos/freertos/tasks.o
                0x000000000000375c                vTaskStartScheduler
 .text.vTaskSuspendAll
                0x0000000000003828       0x1c ./amazon-freertos/freertos/tasks.o
                0x0000000000003828                vTaskSuspendAll
 .text.xTaskResumeAll
                0x0000000000003844      0x160 ./amazon-freertos/freertos/tasks.o
                0x0000000000003844                xTaskResumeAll
 .text.xTaskGetTickCount
                0x00000000000039a4       0x20 ./amazon-freertos/freertos/tasks.o
                0x00000000000039a4                xTaskGetTickCount
 .text.xTaskIncrementTick
                0x00000000000039c4      0x1b4 ./amazon-freertos/freertos/tasks.o
                0x00000000000039c4                xTaskIncrementTick
 .text.vTaskSwitchContext
                0x0000000000003b78       0xe8 ./amazon-freertos/freertos/tasks.o
                0x0000000000003b78                vTaskSwitchContext
 .text.vTaskPlaceOnEventList
                0x0000000000003c60       0x48 ./amazon-freertos/freertos/tasks.o
                0x0000000000003c60                vTaskPlaceOnEventList
 .text.vTaskPlaceOnEventListRestricted
                0x0000000000003ca8       0xcc ./amazon-freertos/freertos/tasks.o
                0x0000000000003ca8                vTaskPlaceOnEventListRestricted
 .text.xTaskRemoveFromEventList
                0x0000000000003d74       0xec ./amazon-freertos/freertos/tasks.o
                0x0000000000003d74                xTaskRemoveFromEventList
 .text.vTaskInternalSetTimeOutState
                0x0000000000003e60       0x2c ./amazon-freertos/freertos/tasks.o
                0x0000000000003e60                vTaskInternalSetTimeOutState
 .text.xTaskCheckForTimeOut
                0x0000000000003e8c       0xc0 ./amazon-freertos/freertos/tasks.o
                0x0000000000003e8c                xTaskCheckForTimeOut
 .text.vTaskMissedYield
                0x0000000000003f4c       0x18 ./amazon-freertos/freertos/tasks.o
                0x0000000000003f4c                vTaskMissedYield
 .text.prvIdleTask
                0x0000000000003f64       0x30 ./amazon-freertos/freertos/tasks.o
 .text.prvInitialiseTaskLists
                0x0000000000003f94       0x80 ./amazon-freertos/freertos/tasks.o
 .text.prvCheckTasksWaitingTermination
                0x0000000000004014       0x58 ./amazon-freertos/freertos/tasks.o
 .text.uxTaskGetStackHighWaterMark
                0x000000000000406c       0x38 ./amazon-freertos/freertos/tasks.o
                0x000000000000406c                uxTaskGetStackHighWaterMark
 .text.prvResetNextTaskUnblockTime
                0x00000000000040a4       0x40 ./amazon-freertos/freertos/tasks.o
 .text.xTaskGetCurrentTaskHandle
                0x00000000000040e4       0x20 ./amazon-freertos/freertos/tasks.o
                0x00000000000040e4                xTaskGetCurrentTaskHandle
 .text.xTaskGetSchedulerState
                0x0000000000004104       0x3c ./amazon-freertos/freertos/tasks.o
                0x0000000000004104                xTaskGetSchedulerState
 .text.xTaskPriorityDisinherit
                0x0000000000004140      0x18c ./amazon-freertos/freertos/tasks.o
                0x0000000000004140                xTaskPriorityDisinherit
 .text.prvAddCurrentTaskToDelayedList
                0x00000000000042cc       0xcc ./amazon-freertos/freertos/tasks.o
 .text.xTimerCreateTimerTask
                0x0000000000004398       0x60 ./amazon-freertos/freertos/timers.o
                0x0000000000004398                xTimerCreateTimerTask
 .text.xTimerGenericCommand
                0x00000000000043f8       0x98 ./amazon-freertos/freertos/timers.o
                0x00000000000043f8                xTimerGenericCommand
 .text.prvProcessExpiredTimer
                0x0000000000004490       0x98 ./amazon-freertos/freertos/timers.o
 .text.prvProcessTimerOrBlockTask
                0x0000000000004528       0x9c ./amazon-freertos/freertos/timers.o
 .text.prvGetNextExpireTime
                0x00000000000045c4       0x48 ./amazon-freertos/freertos/timers.o
 .text.prvSampleTimeNow
                0x000000000000460c       0x40 ./amazon-freertos/freertos/timers.o
 .text.prvInsertTimerInActiveList
                0x000000000000464c       0x84 ./amazon-freertos/freertos/timers.o
 .text.prvProcessReceivedCommands
                0x00000000000046d0      0x1b8 ./amazon-freertos/freertos/timers.o
 .text.prvSwitchTimerLists
                0x0000000000004888       0xc8 ./amazon-freertos/freertos/timers.o
 .text.prvCheckForValidListAndQueue
                0x0000000000004950       0x6c ./amazon-freertos/freertos/timers.o
 .text.prvAddTaskToStackMonitor
                0x00000000000049bc       0x6c ./amazon-freertos/TraceRecorder/trcKernelPort.o
                0x00000000000049bc                prvAddTaskToStackMonitor
 .text.prvReportStackUsage
                0x0000000000004a28       0xc8 ./amazon-freertos/TraceRecorder/trcKernelPort.o
                0x0000000000004a28                prvReportStackUsage
 .text.vTraceEnable
                0x0000000000004af0       0x6c ./amazon-freertos/TraceRecorder/trcKernelPort.o
                0x0000000000004af0                vTraceEnable
 .text.vTraceInitObjectPropertyTable
                0x0000000000004b5c      0x19c ./amazon-freertos/TraceRecorder/trcKernelPort.o
                0x0000000000004b5c                vTraceInitObjectPropertyTable
 .text.vTraceInitObjectHandleStack
                0x0000000000004cf8       0xc8 ./amazon-freertos/TraceRecorder/trcKernelPort.o
                0x0000000000004cf8                vTraceInitObjectHandleStack
 .text.pszTraceGetErrorNotEnoughHandles
                0x0000000000004dc0       0x98 ./amazon-freertos/TraceRecorder/trcKernelPort.o
                0x0000000000004dc0                pszTraceGetErrorNotEnoughHandles
 .text.uiTraceStart
                0x0000000000004e58       0xdc ./amazon-freertos/TraceRecorder/trcSnapshotRecorder.o
                0x0000000000004e58                uiTraceStart
 .text.vTraceStop
                0x0000000000004f34       0x30 ./amazon-freertos/TraceRecorder/trcSnapshotRecorder.o
                0x0000000000004f34                vTraceStop
 .text.xTraceIsRecordingEnabled
                0x0000000000004f64       0x24 ./amazon-freertos/TraceRecorder/trcSnapshotRecorder.o
                0x0000000000004f64                xTraceIsRecordingEnabled
 .text.prvTraceStoreTaskReady
                0x0000000000004f88       0xc8 ./amazon-freertos/TraceRecorder/trcSnapshotRecorder.o
                0x0000000000004f88                prvTraceStoreTaskReady
 .text.vTraceStoreMemMangEvent
                0x0000000000005050      0x118 ./amazon-freertos/TraceRecorder/trcSnapshotRecorder.o
                0x0000000000005050                vTraceStoreMemMangEvent
 .text.prvTraceStoreKernelCall
                0x0000000000005168       0xf8 ./amazon-freertos/TraceRecorder/trcSnapshotRecorder.o
                0x0000000000005168                prvTraceStoreKernelCall
 .text.prvTraceStoreKernelCallWithParam
                0x0000000000005260      0x110 ./amazon-freertos/TraceRecorder/trcSnapshotRecorder.o
                0x0000000000005260                prvTraceStoreKernelCallWithParam
 .text.prvTraceGetParam
                0x0000000000005370       0x78 ./amazon-freertos/TraceRecorder/trcSnapshotRecorder.o
 .text.prvTraceStoreKernelCallWithNumericParamOnly
                0x00000000000053e8       0xc8 ./amazon-freertos/TraceRecorder/trcSnapshotRecorder.o
                0x00000000000053e8                prvTraceStoreKernelCallWithNumericParamOnly
 .text.prvTraceStoreTaskswitch
                0x00000000000054b0       0xe0 ./amazon-freertos/TraceRecorder/trcSnapshotRecorder.o
                0x00000000000054b0                prvTraceStoreTaskswitch
 .text.prvTraceSetPriorityProperty
                0x0000000000005590       0x78 ./amazon-freertos/TraceRecorder/trcSnapshotRecorder.o
                0x0000000000005590                prvTraceSetPriorityProperty
 .text.prvTraceGetPriorityProperty
                0x0000000000005608       0x7c ./amazon-freertos/TraceRecorder/trcSnapshotRecorder.o
                0x0000000000005608                prvTraceGetPriorityProperty
 .text.prvTraceSetObjectState
                0x0000000000005684       0x78 ./amazon-freertos/TraceRecorder/trcSnapshotRecorder.o
                0x0000000000005684                prvTraceSetObjectState
 .text.prvTraceGetObjectState
                0x00000000000056fc       0x78 ./amazon-freertos/TraceRecorder/trcSnapshotRecorder.o
 .text.prvTraceSetTaskInstanceFinished
                0x0000000000005774       0x54 ./amazon-freertos/TraceRecorder/trcSnapshotRecorder.o
                0x0000000000005774                prvTraceSetTaskInstanceFinished
 .text.prvTraceInitTraceData
                0x00000000000057c8      0x228 ./amazon-freertos/TraceRecorder/trcSnapshotRecorder.o
                0x00000000000057c8                prvTraceInitTraceData
 .text.prvTraceNextFreeEventBufferSlot
                0x00000000000059f0       0x48 ./amazon-freertos/TraceRecorder/trcSnapshotRecorder.o
 .text.uiIndexOfObject
                0x0000000000005a38       0xb0 ./amazon-freertos/TraceRecorder/trcSnapshotRecorder.o
                0x0000000000005a38                uiIndexOfObject
 .text.prvTraceGetObjectHandle
                0x0000000000005ae8      0x158 ./amazon-freertos/TraceRecorder/trcSnapshotRecorder.o
                0x0000000000005ae8                prvTraceGetObjectHandle
 .text.prvMarkObjectAsUsed
                0x0000000000005c40       0x3c ./amazon-freertos/TraceRecorder/trcSnapshotRecorder.o
                0x0000000000005c40                prvMarkObjectAsUsed
 .text.prvTraceSetObjectName
                0x0000000000005c7c       0xbc ./amazon-freertos/TraceRecorder/trcSnapshotRecorder.o
                0x0000000000005c7c                prvTraceSetObjectName
 .text.prvTraceError
                0x0000000000005d38       0x58 ./amazon-freertos/TraceRecorder/trcSnapshotRecorder.o
                0x0000000000005d38                prvTraceError
 .text.prvCheckDataToBeOverwrittenForMultiEntryEvents
                0x0000000000005d90      0x114 ./amazon-freertos/TraceRecorder/trcSnapshotRecorder.o
 .text.prvTraceUpdateCounters
                0x0000000000005ea4       0x50 ./amazon-freertos/TraceRecorder/trcSnapshotRecorder.o
 .text.prvTraceGetDTS
                0x0000000000005ef4      0x1b0 ./amazon-freertos/TraceRecorder/trcSnapshotRecorder.o
 .text.prvTraceInitCortexM
                0x00000000000060a4       0x6c ./amazon-freertos/TraceRecorder/trcSnapshotRecorder.o
                0x00000000000060a4                prvTraceInitCortexM
 .text.prvTracePortGetTimeStamp
                0x0000000000006110       0x94 ./amazon-freertos/TraceRecorder/trcSnapshotRecorder.o
                0x0000000000006110                prvTracePortGetTimeStamp
 .text.__assertion_failed
                0x00000000000061a4       0x4c /usr/local/mcuxpressoide-11.0.0_2516/ide/plugins/com.nxp.mcuxpresso.tools.linux_11.0.0.201905131304/tools/bin/../lib/gcc/arm-none-eabi/8.2.1/../../../../arm-none-eabi/lib/thumb/v7e-m+fp/hard/libcr_nohost_nf.a(_cr_assert.o)
                0x00000000000061a4                __assertion_failed
 .text._Cwritebuf
                0x00000000000061f0       0x6c /usr/local/mcuxpressoide-11.0.0_2516/ide/plugins/com.nxp.mcuxpresso.tools.linux_11.0.0.201905131304/tools/bin/../lib/gcc/arm-none-eabi/8.2.1/../../../../arm-none-eabi/lib/thumb/v7e-m+fp/hard/libcr_c.a(_writebuf.o)
                0x00000000000061f0                _Cwritebuf
 .text.malloc   0x000000000000625c       0xc8 /usr/local/mcuxpressoide-11.0.0_2516/ide/plugins/com.nxp.mcuxpresso.tools.linux_11.0.0.201905131304/tools/bin/../lib/gcc/arm-none-eabi/8.2.1/../../../../arm-none-eabi/lib/thumb/v7e-m+fp/hard/libcr_c.a(alloc.o)
                0x000000000000625c                malloc
 .text._Csys_alloc
                0x0000000000006324       0x20 /usr/local/mcuxpressoide-11.0.0_2516/ide/plugins/com.nxp.mcuxpresso.tools.linux_11.0.0.201905131304/tools/bin/../lib/gcc/arm-none-eabi/8.2.1/../../../../arm-none-eabi/lib/thumb/v7e-m+fp/hard/libcr_c.a(alloc.o)
                0x0000000000006324                _Csys_alloc
 .text.fseek    0x0000000000006344      0x100 /usr/local/mcuxpressoide-11.0.0_2516/ide/plugins/com.nxp.mcuxpresso.tools.linux_11.0.0.201905131304/tools/bin/../lib/gcc/arm-none-eabi/8.2.1/../../../../arm-none-eabi/lib/thumb/v7e-m+fp/hard/libcr_c.a(fseek.o)
                0x0000000000006344                fseek
 .text.ftell    0x0000000000006444       0x48 /usr/local/mcuxpressoide-11.0.0_2516/ide/plugins/com.nxp.mcuxpresso.tools.linux_11.0.0.201905131304/tools/bin/../lib/gcc/arm-none-eabi/8.2.1/../../../../arm-none-eabi/lib/thumb/v7e-m+fp/hard/libcr_c.a(ftell.o)
                0x0000000000006444                ftell
 .text._initio  0x000000000000648c       0x78 /usr/local/mcuxpressoide-11.0.0_2516/ide/plugins/com.nxp.mcuxpresso.tools.linux_11.0.0.201905131304/tools/bin/../lib/gcc/arm-none-eabi/8.2.1/../../../../arm-none-eabi/lib/thumb/v7e-m+fp/hard/libcr_c.a(initio.o)
                0x000000000000648c                _initio
 .text._terminateio
                0x0000000000006504       0x50 /usr/local/mcuxpressoide-11.0.0_2516/ide/plugins/com.nxp.mcuxpresso.tools.linux_11.0.0.201905131304/tools/bin/../lib/gcc/arm-none-eabi/8.2.1/../../../../arm-none-eabi/lib/thumb/v7e-m+fp/hard/libcr_c.a(initio.o)
                0x0000000000006504                _terminateio
 .text.setvbuf  0x0000000000006554       0x40 /usr/local/mcuxpressoide-11.0.0_2516/ide/plugins/com.nxp.mcuxpresso.tools.linux_11.0.0.201905131304/tools/bin/../lib/gcc/arm-none-eabi/8.2.1/../../../../arm-none-eabi/lib/thumb/v7e-m+fp/hard/libcr_c.a(setvbuf.o)
                0x0000000000006554                setvbuf
 .text.rand     0x0000000000006594       0x48 /usr/local/mcuxpressoide-11.0.0_2516/ide/plugins/com.nxp.mcuxpresso.tools.linux_11.0.0.201905131304/tools/bin/../lib/gcc/arm-none-eabi/8.2.1/../../../../arm-none-eabi/lib/thumb/v7e-m+fp/hard/libcr_c.a(stdlib.o)
                0x0000000000006594                rand
 .text.exit     0x00000000000065dc       0x2c /usr/local/mcuxpressoide-11.0.0_2516/ide/plugins/com.nxp.mcuxpresso.tools.linux_11.0.0.201905131304/tools/bin/../lib/gcc/arm-none-eabi/8.2.1/../../../../arm-none-eabi/lib/thumb/v7e-m+fp/hard/libcr_c.a(stdlib.o)
                0x00000000000065dc                exit
 .text._sbrk    0x0000000000006608       0x3c /usr/local/mcuxpressoide-11.0.0_2516/ide/plugins/com.nxp.mcuxpresso.tools.linux_11.0.0.201905131304/tools/bin/../lib/gcc/arm-none-eabi/8.2.1/../../../../arm-none-eabi/lib/thumb/v7e-m+fp/hard/libcr_c.a(_cr_sbrk.o)
                0x0000000000006608                _sbrk
 .text.fflush   0x0000000000006644       0x44 /usr/local/mcuxpressoide-11.0.0_2516/ide/plugins/com.nxp.mcuxpresso.tools.linux_11.0.0.201905131304/tools/bin/../lib/gcc/arm-none-eabi/8.2.1/../../../../arm-none-eabi/lib/thumb/v7e-m+fp/hard/libcr_c.a(fflush.o)
                0x0000000000006644                fflush
 .text.__check_heap_overflow
                0x0000000000006688       0x18 /usr/local/mcuxpressoide-11.0.0_2516/ide/plugins/com.nxp.mcuxpresso.tools.linux_11.0.0.201905131304/tools/bin/../lib/gcc/arm-none-eabi/8.2.1/../../../../arm-none-eabi/lib/thumb/v7e-m+fp/hard/libcr_c.a(_cr_check_heap.o)
                0x0000000000006688                __check_heap_overflow
 .text.DbgConsole_PrintCallback
                0x00000000000066a0       0x64 ./utilities/fsl_debug_console.o
 .text.ConvertRadixNumToString
                0x0000000000006704      0x114 ./utilities/fsl_str.o
 .text.StrFormatPrintf
                0x0000000000006818      0x30c ./utilities/fsl_str.o
                0x0000000000006818                StrFormatPrintf
 .text.DMA0_IRQHandler
                0x0000000000006b24        0x8 ./startup/startup_mk64f12.o
                0x0000000000006b24                DMA0_IRQHandler
 .text.DMA1_IRQHandler
                0x0000000000006b2c        0x8 ./startup/startup_mk64f12.o
                0x0000000000006b2c                DMA1_IRQHandler
 .text.DMA2_IRQHandler
                0x0000000000006b34        0x8 ./startup/startup_mk64f12.o
                0x0000000000006b34                DMA2_IRQHandler
 .text.DMA3_IRQHandler
                0x0000000000006b3c        0x8 ./startup/startup_mk64f12.o
                0x0000000000006b3c                DMA3_IRQHandler
 .text.DMA4_IRQHandler
                0x0000000000006b44        0x8 ./startup/startup_mk64f12.o
                0x0000000000006b44                DMA4_IRQHandler
 .text.DMA5_IRQHandler
                0x0000000000006b4c        0x8 ./startup/startup_mk64f12.o
                0x0000000000006b4c                DMA5_IRQHandler
 .text.DMA6_IRQHandler
                0x0000000000006b54        0x8 ./startup/startup_mk64f12.o
                0x0000000000006b54                DMA6_IRQHandler
 .text.DMA7_IRQHandler
                0x0000000000006b5c        0x8 ./startup/startup_mk64f12.o
                0x0000000000006b5c                DMA7_IRQHandler
 .text.DMA8_IRQHandler
                0x0000000000006b64        0x8 ./startup/startup_mk64f12.o
                0x0000000000006b64                DMA8_IRQHandler
 .text.DMA9_IRQHandler
                0x0000000000006b6c        0x8 ./startup/startup_mk64f12.o
                0x0000000000006b6c                DMA9_IRQHandler
 .text.DMA10_IRQHandler
                0x0000000000006b74        0x8 ./startup/startup_mk64f12.o
                0x0000000000006b74                DMA10_IRQHandler
 .text.DMA11_IRQHandler
                0x0000000000006b7c        0x8 ./startup/startup_mk64f12.o
                0x0000000000006b7c                DMA11_IRQHandler
 .text.DMA12_IRQHandler
                0x0000000000006b84        0x8 ./startup/startup_mk64f12.o
                0x0000000000006b84                DMA12_IRQHandler
 .text.DMA13_IRQHandler
                0x0000000000006b8c        0x8 ./startup/startup_mk64f12.o
                0x0000000000006b8c                DMA13_IRQHandler
 .text.DMA14_IRQHandler
                0x0000000000006b94        0x8 ./startup/startup_mk64f12.o
                0x0000000000006b94                DMA14_IRQHandler
 .text.DMA15_IRQHandler
                0x0000000000006b9c        0x8 ./startup/startup_mk64f12.o
                0x0000000000006b9c                DMA15_IRQHandler
 .text.DMA_Error_IRQHandler
                0x0000000000006ba4        0x8 ./startup/startup_mk64f12.o
                0x0000000000006ba4                DMA_Error_IRQHandler
 .text.MCM_IRQHandler
                0x0000000000006bac        0x8 ./startup/startup_mk64f12.o
                0x0000000000006bac                MCM_IRQHandler
 .text.FTFE_IRQHandler
                0x0000000000006bb4        0x8 ./startup/startup_mk64f12.o
                0x0000000000006bb4                FTFE_IRQHandler
 .text.Read_Collision_IRQHandler
                0x0000000000006bbc        0x8 ./startup/startup_mk64f12.o
                0x0000000000006bbc                Read_Collision_IRQHandler
 .text.LVD_LVW_IRQHandler
                0x0000000000006bc4        0x8 ./startup/startup_mk64f12.o
                0x0000000000006bc4                LVD_LVW_IRQHandler
 .text.LLWU_IRQHandler
                0x0000000000006bcc        0x8 ./startup/startup_mk64f12.o
                0x0000000000006bcc                LLWU_IRQHandler
 .text.WDOG_EWM_IRQHandler
                0x0000000000006bd4        0x8 ./startup/startup_mk64f12.o
                0x0000000000006bd4                WDOG_EWM_IRQHandler
 .text.RNG_IRQHandler
                0x0000000000006bdc        0x8 ./startup/startup_mk64f12.o
                0x0000000000006bdc                RNG_IRQHandler
 .text.I2C0_IRQHandler
                0x0000000000006be4        0x8 ./startup/startup_mk64f12.o
                0x0000000000006be4                I2C0_IRQHandler
 .text.I2C1_IRQHandler
                0x0000000000006bec        0x8 ./startup/startup_mk64f12.o
                0x0000000000006bec                I2C1_IRQHandler
 .text.SPI0_IRQHandler
                0x0000000000006bf4        0x8 ./startup/startup_mk64f12.o
                0x0000000000006bf4                SPI0_IRQHandler
 .text.SPI1_IRQHandler
                0x0000000000006bfc        0x8 ./startup/startup_mk64f12.o
                0x0000000000006bfc                SPI1_IRQHandler
 .text.I2S0_Tx_IRQHandler
                0x0000000000006c04        0x8 ./startup/startup_mk64f12.o
                0x0000000000006c04                I2S0_Tx_IRQHandler
 .text.I2S0_Rx_IRQHandler
                0x0000000000006c0c        0x8 ./startup/startup_mk64f12.o
                0x0000000000006c0c                I2S0_Rx_IRQHandler
 .text.UART0_LON_IRQHandler
                0x0000000000006c14        0x8 ./startup/startup_mk64f12.o
                0x0000000000006c14                UART0_LON_IRQHandler
 .text.UART0_RX_TX_IRQHandler
                0x0000000000006c1c        0x8 ./startup/startup_mk64f12.o
                0x0000000000006c1c                UART0_RX_TX_IRQHandler
 .text.UART0_ERR_IRQHandler
                0x0000000000006c24        0x8 ./startup/startup_mk64f12.o
                0x0000000000006c24                UART0_ERR_IRQHandler
 .text.UART1_RX_TX_IRQHandler
                0x0000000000006c2c        0x8 ./startup/startup_mk64f12.o
                0x0000000000006c2c                UART1_RX_TX_IRQHandler
 .text.UART1_ERR_IRQHandler
                0x0000000000006c34        0x8 ./startup/startup_mk64f12.o
                0x0000000000006c34                UART1_ERR_IRQHandler
 .text.UART2_RX_TX_IRQHandler
                0x0000000000006c3c        0x8 ./startup/startup_mk64f12.o
                0x0000000000006c3c                UART2_RX_TX_IRQHandler
 .text.UART2_ERR_IRQHandler
                0x0000000000006c44        0x8 ./startup/startup_mk64f12.o
                0x0000000000006c44                UART2_ERR_IRQHandler
 .text.UART3_RX_TX_IRQHandler
                0x0000000000006c4c        0x8 ./startup/startup_mk64f12.o
                0x0000000000006c4c                UART3_RX_TX_IRQHandler
 .text.UART3_ERR_IRQHandler
                0x0000000000006c54        0x8 ./startup/startup_mk64f12.o
                0x0000000000006c54                UART3_ERR_IRQHandler
 .text.ADC0_IRQHandler
                0x0000000000006c5c        0x8 ./startup/startup_mk64f12.o
                0x0000000000006c5c                ADC0_IRQHandler
 .text.CMP0_IRQHandler
                0x0000000000006c64        0x8 ./startup/startup_mk64f12.o
                0x0000000000006c64                CMP0_IRQHandler
 .text.CMP1_IRQHandler
                0x0000000000006c6c        0x8 ./startup/startup_mk64f12.o
                0x0000000000006c6c                CMP1_IRQHandler
 .text.FTM0_IRQHandler
                0x0000000000006c74        0x8 ./startup/startup_mk64f12.o
                0x0000000000006c74                FTM0_IRQHandler
 .text.FTM1_IRQHandler
                0x0000000000006c7c        0x8 ./startup/startup_mk64f12.o
                0x0000000000006c7c                FTM1_IRQHandler
 .text.FTM2_IRQHandler
                0x0000000000006c84        0x8 ./startup/startup_mk64f12.o
                0x0000000000006c84                FTM2_IRQHandler
 .text.CMT_IRQHandler
                0x0000000000006c8c        0x8 ./startup/startup_mk64f12.o
                0x0000000000006c8c                CMT_IRQHandler
 .text.RTC_IRQHandler
                0x0000000000006c94        0x8 ./startup/startup_mk64f12.o
                0x0000000000006c94                RTC_IRQHandler
 .text.RTC_Seconds_IRQHandler
                0x0000000000006c9c        0x8 ./startup/startup_mk64f12.o
                0x0000000000006c9c                RTC_Seconds_IRQHandler
 .text.PIT0_IRQHandler
                0x0000000000006ca4        0x8 ./startup/startup_mk64f12.o
                0x0000000000006ca4                PIT0_IRQHandler
 .text.PIT1_IRQHandler
                0x0000000000006cac        0x8 ./startup/startup_mk64f12.o
                0x0000000000006cac                PIT1_IRQHandler
 .text.PIT2_IRQHandler
                0x0000000000006cb4        0x8 ./startup/startup_mk64f12.o
                0x0000000000006cb4                PIT2_IRQHandler
 .text.PIT3_IRQHandler
                0x0000000000006cbc        0x8 ./startup/startup_mk64f12.o
                0x0000000000006cbc                PIT3_IRQHandler
 .text.PDB0_IRQHandler
                0x0000000000006cc4        0x8 ./startup/startup_mk64f12.o
                0x0000000000006cc4                PDB0_IRQHandler
 .text.USB0_IRQHandler
                0x0000000000006ccc        0x8 ./startup/startup_mk64f12.o
                0x0000000000006ccc                USB0_IRQHandler
 .text.USBDCD_IRQHandler
                0x0000000000006cd4        0x8 ./startup/startup_mk64f12.o
                0x0000000000006cd4                USBDCD_IRQHandler
 .text.Reserved71_IRQHandler
                0x0000000000006cdc        0x8 ./startup/startup_mk64f12.o
                0x0000000000006cdc                Reserved71_IRQHandler
 .text.DAC0_IRQHandler
                0x0000000000006ce4        0x8 ./startup/startup_mk64f12.o
                0x0000000000006ce4                DAC0_IRQHandler
 .text.MCG_IRQHandler
                0x0000000000006cec        0x8 ./startup/startup_mk64f12.o
                0x0000000000006cec                MCG_IRQHandler
 .text.LPTMR0_IRQHandler
                0x0000000000006cf4        0x8 ./startup/startup_mk64f12.o
                0x0000000000006cf4                LPTMR0_IRQHandler
 .text.PORTA_IRQHandler
                0x0000000000006cfc        0x8 ./startup/startup_mk64f12.o
                0x0000000000006cfc                PORTA_IRQHandler
 .text.PORTB_IRQHandler
                0x0000000000006d04        0x8 ./startup/startup_mk64f12.o
                0x0000000000006d04                PORTB_IRQHandler
 .text.PORTC_IRQHandler
                0x0000000000006d0c        0x8 ./startup/startup_mk64f12.o
                0x0000000000006d0c                PORTC_IRQHandler
 .text.PORTD_IRQHandler
                0x0000000000006d14        0x8 ./startup/startup_mk64f12.o
                0x0000000000006d14                PORTD_IRQHandler
 .text.PORTE_IRQHandler
                0x0000000000006d1c        0x8 ./startup/startup_mk64f12.o
                0x0000000000006d1c                PORTE_IRQHandler
 .text.SWI_IRQHandler
                0x0000000000006d24        0x8 ./startup/startup_mk64f12.o
                0x0000000000006d24                SWI_IRQHandler
 .text.SPI2_IRQHandler
                0x0000000000006d2c        0x8 ./startup/startup_mk64f12.o
                0x0000000000006d2c                SPI2_IRQHandler
 .text.UART4_RX_TX_IRQHandler
                0x0000000000006d34        0x8 ./startup/startup_mk64f12.o
                0x0000000000006d34                UART4_RX_TX_IRQHandler
 .text.UART4_ERR_IRQHandler
                0x0000000000006d3c        0x8 ./startup/startup_mk64f12.o
                0x0000000000006d3c                UART4_ERR_IRQHandler
 .text.UART5_RX_TX_IRQHandler
                0x0000000000006d44        0x8 ./startup/startup_mk64f12.o
                0x0000000000006d44                UART5_RX_TX_IRQHandler
 .text.UART5_ERR_IRQHandler
                0x0000000000006d4c        0x8 ./startup/startup_mk64f12.o
                0x0000000000006d4c                UART5_ERR_IRQHandler
 .text.CMP2_IRQHandler
                0x0000000000006d54        0x8 ./startup/startup_mk64f12.o
                0x0000000000006d54                CMP2_IRQHandler
 .text.FTM3_IRQHandler
                0x0000000000006d5c        0x8 ./startup/startup_mk64f12.o
                0x0000000000006d5c                FTM3_IRQHandler
 .text.DAC1_IRQHandler
                0x0000000000006d64        0x8 ./startup/startup_mk64f12.o
                0x0000000000006d64                DAC1_IRQHandler
 .text.ADC1_IRQHandler
                0x0000000000006d6c        0x8 ./startup/startup_mk64f12.o
                0x0000000000006d6c                ADC1_IRQHandler
 .text.I2C2_IRQHandler
                0x0000000000006d74        0x8 ./startup/startup_mk64f12.o
                0x0000000000006d74                I2C2_IRQHandler
 .text.CAN0_ORed_Message_buffer_IRQHandler
                0x0000000000006d7c        0x8 ./startup/startup_mk64f12.o
                0x0000000000006d7c                CAN0_ORed_Message_buffer_IRQHandler
 .text.CAN0_Bus_Off_IRQHandler
                0x0000000000006d84        0x8 ./startup/startup_mk64f12.o
                0x0000000000006d84                CAN0_Bus_Off_IRQHandler
 .text.CAN0_Error_IRQHandler
                0x0000000000006d8c        0x8 ./startup/startup_mk64f12.o
                0x0000000000006d8c                CAN0_Error_IRQHandler
 .text.CAN0_Tx_Warning_IRQHandler
                0x0000000000006d94        0x8 ./startup/startup_mk64f12.o
                0x0000000000006d94                CAN0_Tx_Warning_IRQHandler
 .text.CAN0_Rx_Warning_IRQHandler
                0x0000000000006d9c        0x8 ./startup/startup_mk64f12.o
                0x0000000000006d9c                CAN0_Rx_Warning_IRQHandler
 .text.CAN0_Wake_Up_IRQHandler
                0x0000000000006da4        0x8 ./startup/startup_mk64f12.o
                0x0000000000006da4                CAN0_Wake_Up_IRQHandler
 .text.SDHC_IRQHandler
                0x0000000000006dac        0x8 ./startup/startup_mk64f12.o
                0x0000000000006dac                SDHC_IRQHandler
 .text.ENET_1588_Timer_IRQHandler
                0x0000000000006db4        0x8 ./startup/startup_mk64f12.o
                0x0000000000006db4                ENET_1588_Timer_IRQHandler
 .text.ENET_Transmit_IRQHandler
                0x0000000000006dbc        0x8 ./startup/startup_mk64f12.o
                0x0000000000006dbc                ENET_Transmit_IRQHandler
 .text.ENET_Receive_IRQHandler
                0x0000000000006dc4        0x8 ./startup/startup_mk64f12.o
                0x0000000000006dc4                ENET_Receive_IRQHandler
 .text.ENET_Error_IRQHandler
                0x0000000000006dcc        0x8 ./startup/startup_mk64f12.o
                0x0000000000006dcc                ENET_Error_IRQHandler
 .text.HardFault_Handler
                0x0000000000006dd4       0x2c ./source/semihost_hardfault.o
                0x0000000000006dd4                HardFault_Handler
 .text.CLOCK_EnableClock
                0x0000000000006e00       0x34 ./drivers/fsl_clock.o
 .text.CLOCK_DisableClock
                0x0000000000006e34       0x38 ./drivers/fsl_clock.o
 .text.OSC_SetExtRefClkConfig
                0x0000000000006e6c       0x34 ./drivers/fsl_clock.o
 .text.OSC_SetCapLoad
                0x0000000000006ea0       0x34 ./drivers/fsl_clock.o
 .text.CLOCK_GetPll0RefFreq
                0x0000000000006ed4        0xe ./drivers/fsl_clock.o
 .text.DSPI_IsMaster
                0x0000000000006ee2       0x22 ./drivers/fsl_dspi.o
 .text.CLOCK_EnableClock
                0x0000000000006f04       0x34 ./drivers/fsl_uart.o
 .text.UART_WriteBlocking
                0x0000000000006f38       0x3e ./drivers/fsl_uart.o
                0x0000000000006f38                UART_WriteBlocking
 .text.UART0_RX_TX_DriverIRQHandler
                0x0000000000006f76       0x10 ./drivers/fsl_uart.o
                0x0000000000006f76                UART0_RX_TX_DriverIRQHandler
 .text.UART1_RX_TX_DriverIRQHandler
                0x0000000000006f86       0x10 ./drivers/fsl_uart.o
                0x0000000000006f86                UART1_RX_TX_DriverIRQHandler
 .text.UART2_RX_TX_DriverIRQHandler
                0x0000000000006f96       0x10 ./drivers/fsl_uart.o
                0x0000000000006f96                UART2_RX_TX_DriverIRQHandler
 .text.UART3_RX_TX_DriverIRQHandler
                0x0000000000006fa6       0x10 ./drivers/fsl_uart.o
                0x0000000000006fa6                UART3_RX_TX_DriverIRQHandler
 .text.UART4_RX_TX_DriverIRQHandler
                0x0000000000006fb6       0x10 ./drivers/fsl_uart.o
                0x0000000000006fb6                UART4_RX_TX_DriverIRQHandler
 .text.UART5_RX_TX_DriverIRQHandler
                0x0000000000006fc6       0x10 ./drivers/fsl_uart.o
                0x0000000000006fc6                UART5_RX_TX_DriverIRQHandler
 .text.SystemInitHook
                0x0000000000006fd6        0xe ./device/system_MK64F12.o
                0x0000000000006fd6                SystemInitHook
 .text.HAL_UartGetStatus
                0x0000000000006fe4       0x22 ./component/uart/uart_adapter.o
 .text.SerialManager_StartWriting
                0x0000000000007006       0x4a ./component/serial_manager/serial_manager.o
 .text.SerialManager_WriteBlocking
                0x0000000000007050       0x20 ./component/serial_manager/serial_manager.o
                0x0000000000007050                SerialManager_WriteBlocking
 .text.BOARD_InitDebugConsole
                0x0000000000007070       0x22 ./board/boards/board.o
                0x0000000000007070                BOARD_InitDebugConsole
 .text.BOARD_InitBootClocks
                0x0000000000007092        0xc ./board/boards/clock_config.o
                0x0000000000007092                BOARD_InitBootClocks
 .text.BOARD_InitPeripherals
                0x000000000000709e        0xe ./board/boards/peripherals.o
                0x000000000000709e                BOARD_InitPeripherals
 .text.BOARD_InitBootPeripherals
                0x00000000000070ac        0xc ./board/boards/peripherals.o
                0x00000000000070ac                BOARD_InitBootPeripherals
 .text.CLOCK_EnableClock
                0x00000000000070b8       0x34 ./board/boards/pin_mux.o
 .text.PORT_SetPinMux
                0x00000000000070ec       0x3a ./board/boards/pin_mux.o
 .text.BOARD_InitBootPins
                0x0000000000007126       0x10 ./board/boards/pin_mux.o
                0x0000000000007126                BOARD_InitBootPins
 .text.vListInitialise
                0x0000000000007136       0x40 ./amazon-freertos/freertos/list.o
                0x0000000000007136                vListInitialise
 .text.vListInitialiseItem
                0x0000000000007176       0x1a ./amazon-freertos/freertos/list.o
                0x0000000000007176                vListInitialiseItem
 .text.vListInsertEnd
                0x0000000000007190       0x48 ./amazon-freertos/freertos/list.o
                0x0000000000007190                vListInsertEnd
 .text.vListInsert
                0x00000000000071d8       0x72 ./amazon-freertos/freertos/list.o
                0x00000000000071d8                vListInsert
 .text.uxListRemove
                0x000000000000724a       0x54 ./amazon-freertos/freertos/list.o
                0x000000000000724a                uxListRemove
 .text.uxQueueMessagesWaiting
                0x000000000000729e       0x3a ./amazon-freertos/freertos/queue.o
                0x000000000000729e                uxQueueMessagesWaiting
 .text.uxQueueGetQueueNumber
                0x00000000000072d8       0x18 ./amazon-freertos/freertos/queue.o
                0x00000000000072d8                uxQueueGetQueueNumber
 .text.vQueueSetQueueNumber
                0x00000000000072f0       0x1c ./amazon-freertos/freertos/queue.o
                0x00000000000072f0                vQueueSetQueueNumber
 .text.ucQueueGetQueueType
                0x000000000000730c       0x1a ./amazon-freertos/freertos/queue.o
                0x000000000000730c                ucQueueGetQueueType
 .text.prvCopyDataToQueue
                0x0000000000007326       0xd4 ./amazon-freertos/freertos/queue.o
 .text.prvCopyDataFromQueue
                0x00000000000073fa       0x4c ./amazon-freertos/freertos/queue.o
 .text.prvUnlockQueue
                0x0000000000007446       0xa4 ./amazon-freertos/freertos/queue.o
 .text.prvIsQueueEmpty
                0x00000000000074ea       0x2c ./amazon-freertos/freertos/queue.o
 .text.prvIsQueueFull
                0x0000000000007516       0x30 ./amazon-freertos/freertos/queue.o
 .text.vQueueWaitForMessageRestricted
                0x0000000000007546       0x68 ./amazon-freertos/freertos/queue.o
                0x0000000000007546                vQueueWaitForMessageRestricted
 .text.xTaskCreate
                0x00000000000075ae       0x82 ./amazon-freertos/freertos/tasks.o
                0x00000000000075ae                xTaskCreate
 .text.prvInitialiseNewTask
                0x0000000000007630      0x13a ./amazon-freertos/freertos/tasks.o
 .text.uxTaskGetTaskNumber
                0x000000000000776a       0x2c ./amazon-freertos/freertos/tasks.o
                0x000000000000776a                uxTaskGetTaskNumber
 .text.vTaskSetTaskNumber
                0x0000000000007796       0x26 ./amazon-freertos/freertos/tasks.o
                0x0000000000007796                vTaskSetTaskNumber
 .text.prvTaskCheckFreeStackSpace
                0x00000000000077bc       0x38 ./amazon-freertos/freertos/tasks.o
 .text.prvDeleteTCB
                0x00000000000077f4       0x20 ./amazon-freertos/freertos/tasks.o
 .text.prvTimerTask
                0x0000000000007814       0x24 ./amazon-freertos/freertos/timers.o
 .text.prvTraceGetQueueNumber
                0x0000000000007838       0x18 ./amazon-freertos/TraceRecorder/trcKernelPort.o
                0x0000000000007838                prvTraceGetQueueNumber
 .text.prvTraceGetQueueType
                0x0000000000007850       0x18 ./amazon-freertos/TraceRecorder/trcKernelPort.o
                0x0000000000007850                prvTraceGetQueueType
 .text.prvTraceGetTaskNumberLow16
                0x0000000000007868       0x1a ./amazon-freertos/TraceRecorder/trcKernelPort.o
                0x0000000000007868                prvTraceGetTaskNumberLow16
 .text.prvTraceGetTaskNumberHigh16
                0x0000000000007882       0x1c ./amazon-freertos/TraceRecorder/trcKernelPort.o
                0x0000000000007882                prvTraceGetTaskNumberHigh16
 .text.prvTraceSetTaskNumberLow16
                0x000000000000789e       0x2c ./amazon-freertos/TraceRecorder/trcKernelPort.o
                0x000000000000789e                prvTraceSetTaskNumberLow16
 .text.prvTraceSetTaskNumberHigh16
                0x00000000000078ca       0x2c ./amazon-freertos/TraceRecorder/trcKernelPort.o
                0x00000000000078ca                prvTraceSetTaskNumberHigh16
 .text.prvTraceGetQueueNumberLow16
                0x00000000000078f6       0x1a ./amazon-freertos/TraceRecorder/trcKernelPort.o
                0x00000000000078f6                prvTraceGetQueueNumberLow16
 .text.prvTraceGetQueueNumberHigh16
                0x0000000000007910       0x1c ./amazon-freertos/TraceRecorder/trcKernelPort.o
                0x0000000000007910                prvTraceGetQueueNumberHigh16
 .text.prvTraceSetQueueNumberLow16
                0x000000000000792c       0x2c ./amazon-freertos/TraceRecorder/trcKernelPort.o
                0x000000000000792c                prvTraceSetQueueNumberLow16
 .text.prvTraceSetQueueNumberHigh16
                0x0000000000007958       0x2c ./amazon-freertos/TraceRecorder/trcKernelPort.o
                0x0000000000007958                prvTraceSetQueueNumberHigh16
 .text.prvTraceGetCurrentTaskHandle
                0x0000000000007984        0xe ./amazon-freertos/TraceRecorder/trcKernelPort.o
                0x0000000000007984                prvTraceGetCurrentTaskHandle
 .text.TzCtrl   0x0000000000007992       0x1e ./amazon-freertos/TraceRecorder/trcKernelPort.o
 .text.vTraceStart
                0x00000000000079b0        0xc ./amazon-freertos/TraceRecorder/trcSnapshotRecorder.o
                0x00000000000079b0                vTraceStart
 .text.prvStrncpy
                0x00000000000079bc       0x4c ./amazon-freertos/TraceRecorder/trcSnapshotRecorder.o
 .text.__main   0x0000000000007a08        0xe /usr/local/mcuxpressoide-11.0.0_2516/ide/plugins/com.nxp.mcuxpresso.tools.linux_11.0.0.201905131304/tools/bin/../lib/gcc/arm-none-eabi/8.2.1/../../../../arm-none-eabi/lib/thumb/v7e-m+fp/hard/libcr_nohost_nf.a(_cr__main.o)
                0x0000000000007a08                __main
 .text.__sys_appexit
                0x0000000000007a16        0x2 /usr/local/mcuxpressoide-11.0.0_2516/ide/plugins/com.nxp.mcuxpresso.tools.linux_11.0.0.201905131304/tools/bin/../lib/gcc/arm-none-eabi/8.2.1/../../../../arm-none-eabi/lib/thumb/v7e-m+fp/hard/libcr_nohost_nf.a(__sys_appexit.o)
                0x0000000000007a16                __exit
                0x0000000000007a16                __sys_appexit
 .text.memcpy   0x0000000000007a18        0x4 /usr/local/mcuxpressoide-11.0.0_2516/ide/plugins/com.nxp.mcuxpresso.tools.linux_11.0.0.201905131304/tools/bin/../lib/gcc/arm-none-eabi/8.2.1/../../../../arm-none-eabi/lib/thumb/v7e-m+fp/hard/libcr_c.a(memcpy.o)
                0x0000000000007a18                memcpy
 .text.memset   0x0000000000007a1c        0x4 /usr/local/mcuxpressoide-11.0.0_2516/ide/plugins/com.nxp.mcuxpresso.tools.linux_11.0.0.201905131304/tools/bin/../lib/gcc/arm-none-eabi/8.2.1/../../../../arm-none-eabi/lib/thumb/v7e-m+fp/hard/libcr_c.a(memset.o)
                0x0000000000007a1c                memset
 .text._deferredlazyseek
                0x0000000000007a20       0x40 /usr/local/mcuxpressoide-11.0.0_2516/ide/plugins/com.nxp.mcuxpresso.tools.linux_11.0.0.201905131304/tools/bin/../lib/gcc/arm-none-eabi/8.2.1/../../../../arm-none-eabi/lib/thumb/v7e-m+fp/hard/libcr_c.a(_deferredlazyseek.o)
                0x0000000000007a20                _deferredlazyseek
 .text.__flsbuf
                0x0000000000007a60      0x140 /usr/local/mcuxpressoide-11.0.0_2516/ide/plugins/com.nxp.mcuxpresso.tools.linux_11.0.0.201905131304/tools/bin/../lib/gcc/arm-none-eabi/8.2.1/../../../../arm-none-eabi/lib/thumb/v7e-m+fp/hard/libcr_c.a(_deferredlazyseek.o)
                0x0000000000007a60                __flsbuf
 .text._fflush  0x0000000000007ba0       0x52 /usr/local/mcuxpressoide-11.0.0_2516/ide/plugins/com.nxp.mcuxpresso.tools.linux_11.0.0.201905131304/tools/bin/../lib/gcc/arm-none-eabi/8.2.1/../../../../arm-none-eabi/lib/thumb/v7e-m+fp/hard/libcr_c.a(_fflush.o)
                0x0000000000007ba0                _fflush
 .text.free     0x0000000000007bf2       0x30 /usr/local/mcuxpressoide-11.0.0_2516/ide/plugins/com.nxp.mcuxpresso.tools.linux_11.0.0.201905131304/tools/bin/../lib/gcc/arm-none-eabi/8.2.1/../../../../arm-none-eabi/lib/thumb/v7e-m+fp/hard/libcr_c.a(alloc.o)
                0x0000000000007bf2                free
 .text.fputs    0x0000000000007c22       0x2c /usr/local/mcuxpressoide-11.0.0_2516/ide/plugins/com.nxp.mcuxpresso.tools.linux_11.0.0.201905131304/tools/bin/../lib/gcc/arm-none-eabi/8.2.1/../../../../arm-none-eabi/lib/thumb/v7e-m+fp/hard/libcr_c.a(fputs.o)
                0x0000000000007c22                fputs
 .text.strlen   0x0000000000007c4e       0x4c /usr/local/mcuxpressoide-11.0.0_2516/ide/plugins/com.nxp.mcuxpresso.tools.linux_11.0.0.201905131304/tools/bin/../lib/gcc/arm-none-eabi/8.2.1/../../../../arm-none-eabi/lib/thumb/v7e-m+fp/hard/libcr_c.a(strlen.o)
                0x0000000000007c4e                strlen
 .text._fdopen  0x0000000000007c9a       0x68 /usr/local/mcuxpressoide-11.0.0_2516/ide/plugins/com.nxp.mcuxpresso.tools.linux_11.0.0.201905131304/tools/bin/../lib/gcc/arm-none-eabi/8.2.1/../../../../arm-none-eabi/lib/thumb/v7e-m+fp/hard/libcr_c.a(_fdopen.o)
                0x0000000000007c9a                _fdopen
 .text.fclose   0x0000000000007d02       0x58 /usr/local/mcuxpressoide-11.0.0_2516/ide/plugins/com.nxp.mcuxpresso.tools.linux_11.0.0.201905131304/tools/bin/../lib/gcc/arm-none-eabi/8.2.1/../../../../arm-none-eabi/lib/thumb/v7e-m+fp/hard/libcr_c.a(fclose.o)
                0x0000000000007d02                fclose
 .text.remove   0x0000000000007d5a       0x14 /usr/local/mcuxpressoide-11.0.0_2516/ide/plugins/com.nxp.mcuxpresso.tools.linux_11.0.0.201905131304/tools/bin/../lib/gcc/arm-none-eabi/8.2.1/../../../../arm-none-eabi/lib/thumb/v7e-m+fp/hard/libcr_c.a(remove.o)
                0x0000000000007d5a                remove
 .text._do_fflush
                0x0000000000007d6e       0x40 /usr/local/mcuxpressoide-11.0.0_2516/ide/plugins/com.nxp.mcuxpresso.tools.linux_11.0.0.201905131304/tools/bin/../lib/gcc/arm-none-eabi/8.2.1/../../../../arm-none-eabi/lib/thumb/v7e-m+fp/hard/libcr_c.a(_do_fflush.o)
                0x0000000000007d6e                _do_fflush
 .text.__aeabi_memcpy
                0x0000000000007dae       0x34 /usr/local/mcuxpressoide-11.0.0_2516/ide/plugins/com.nxp.mcuxpresso.tools.linux_11.0.0.201905131304/tools/bin/../lib/gcc/arm-none-eabi/8.2.1/thumb/v7e-m+fp/hard/libcr_eabihelpers.a(memcpy.o)
                0x0000000000007dae                __aeabi_memcpy
                0x0000000000007db8                __aeabi_memcpy4
                0x0000000000007db8                __aeabi_memcpy8
 .text.__aeabi_memset_lowlevel
                0x0000000000007de2       0x32 /usr/local/mcuxpressoide-11.0.0_2516/ide/plugins/com.nxp.mcuxpresso.tools.linux_11.0.0.201905131304/tools/bin/../lib/gcc/arm-none-eabi/8.2.1/thumb/v7e-m+fp/hard/libcr_eabihelpers.a(memcpy.o)
                0x0000000000007de2                __aeabi_lowlevel_memset
 .text.__sys_close
                0x0000000000007e14        0x6 /usr/local/mcuxpressoide-11.0.0_2516/ide/plugins/com.nxp.mcuxpresso.tools.linux_11.0.0.201905131304/tools/bin/../lib/gcc/arm-none-eabi/8.2.1/../../../../arm-none-eabi/lib/thumb/v7e-m+fp/hard/libcr_nohost_nf.a(__sys_close.o)
                0x0000000000007e14                __sys_close
 .text.__sys_flen
                0x0000000000007e1a        0x6 /usr/local/mcuxpressoide-11.0.0_2516/ide/plugins/com.nxp.mcuxpresso.tools.linux_11.0.0.201905131304/tools/bin/../lib/gcc/arm-none-eabi/8.2.1/../../../../arm-none-eabi/lib/thumb/v7e-m+fp/hard/libcr_nohost_nf.a(__sys_flen.o)
                0x0000000000007e1a                __sys_flen
 .text.__sys_istty
                0x0000000000007e20        0x6 /usr/local/mcuxpressoide-11.0.0_2516/ide/plugins/com.nxp.mcuxpresso.tools.linux_11.0.0.201905131304/tools/bin/../lib/gcc/arm-none-eabi/8.2.1/../../../../arm-none-eabi/lib/thumb/v7e-m+fp/hard/libcr_nohost_nf.a(__sys_istty.o)
                0x0000000000007e20                __sys_istty
 .text.__sys_remove
                0x0000000000007e26        0x6 /usr/local/mcuxpressoide-11.0.0_2516/ide/plugins/com.nxp.mcuxpresso.tools.linux_11.0.0.201905131304/tools/bin/../lib/gcc/arm-none-eabi/8.2.1/../../../../arm-none-eabi/lib/thumb/v7e-m+fp/hard/libcr_nohost_nf.a(__sys_remove.o)
                0x0000000000007e26                __sys_remove
 .text.__sys_seek
                0x0000000000007e2c        0x6 /usr/local/mcuxpressoide-11.0.0_2516/ide/plugins/com.nxp.mcuxpresso.tools.linux_11.0.0.201905131304/tools/bin/../lib/gcc/arm-none-eabi/8.2.1/../../../../arm-none-eabi/lib/thumb/v7e-m+fp/hard/libcr_nohost_nf.a(__sys_seek.o)
                0x0000000000007e2c                __sys_seek
 .text.__sys_tmpnam
                0x0000000000007e32        0x6 /usr/local/mcuxpressoide-11.0.0_2516/ide/plugins/com.nxp.mcuxpresso.tools.linux_11.0.0.201905131304/tools/bin/../lib/gcc/arm-none-eabi/8.2.1/../../../../arm-none-eabi/lib/thumb/v7e-m+fp/hard/libcr_nohost_nf.a(__sys_tmpnam.o)
                0x0000000000007e32                __sys_tmpnam
 .text.__sys_write
                0x0000000000007e38        0x4 /usr/local/mcuxpressoide-11.0.0_2516/ide/plugins/com.nxp.mcuxpresso.tools.linux_11.0.0.201905131304/tools/bin/../lib/gcc/arm-none-eabi/8.2.1/../../../../arm-none-eabi/lib/thumb/v7e-m+fp/hard/libcr_nohost_nf.a(__sys_write.o)
                0x0000000000007e38                __sys_write
 *(SORT_BY_ALIGNMENT(.rodata) SORT_BY_ALIGNMENT(.rodata.*) SORT_BY_ALIGNMENT(.constdata) SORT_BY_ALIGNMENT(.constdata.*))
 .rodata        0x0000000000007e3c      0x21f ./utilities/fsl_debug_console.o
 *fill*         0x000000000000805b        0x1 ff
 .rodata        0x000000000000805c      0x2c9 ./source/TP4_FTOS.o
 *fill*         0x0000000000008325        0x3 ff
 .rodata        0x0000000000008328      0x1df ./drivers/fsl_clock.o
 *fill*         0x0000000000008507        0x1 ff
 .rodata.fllFactorTable.7853
                0x0000000000008508       0x10 ./drivers/fsl_clock.o
 .rodata        0x0000000000008518      0x625 ./drivers/fsl_dspi.o
 *fill*         0x0000000000008b3d        0x3 ff
 .rodata.s_uartBases
                0x0000000000008b40       0x18 ./drivers/fsl_uart.o
 .rodata.s_uartClock
                0x0000000000008b58       0x18 ./drivers/fsl_uart.o
 .rodata        0x0000000000008b70      0x514 ./drivers/fsl_uart.o
 .rodata.s_UartAdapterBase
                0x0000000000009084       0x18 ./component/uart/uart_adapter.o
 .rodata        0x000000000000909c      0x25e ./component/uart/uart_adapter.o
 *fill*         0x00000000000092fa        0x2 ff
 .rodata        0x00000000000092fc      0x525 ./component/serial_manager/serial_manager.o
 *fill*         0x0000000000009821        0x3 ff
 .rodata        0x0000000000009824      0x244 ./component/serial_manager/serial_port_uart.o
 .rodata.mcgConfig_BOARD_BootClockRUN
                0x0000000000009a68        0xb ./board/boards/clock_config.o
                0x0000000000009a68                mcgConfig_BOARD_BootClockRUN
 *fill*         0x0000000000009a73        0x1 ff
 .rodata.simConfig_BOARD_BootClockRUN
                0x0000000000009a74        0x8 ./board/boards/clock_config.o
                0x0000000000009a74                simConfig_BOARD_BootClockRUN
 .rodata.oscConfig_BOARD_BootClockRUN
                0x0000000000009a7c        0x8 ./board/boards/clock_config.o
                0x0000000000009a7c                oscConfig_BOARD_BootClockRUN
 .rodata        0x0000000000009a84       0x26 ./board/boards/pin_mux.o
 *fill*         0x0000000000009aaa        0x2 ff
 .rodata        0x0000000000009aac        0x5 ./amazon-freertos/freertos/tasks.o
 *fill*         0x0000000000009ab1        0x3 ff
 .rodata        0x0000000000009ab4        0xd ./amazon-freertos/freertos/timers.o
 *fill*         0x0000000000009ac1        0x3 ff
 .rodata        0x0000000000009ac4      0x37a ./amazon-freertos/TraceRecorder/trcKernelPort.o
 *fill*         0x0000000000009e3e        0x2 ff
 .rodata        0x0000000000009e40     0x10d4 ./amazon-freertos/TraceRecorder/trcSnapshotRecorder.o
 .rodata.__num_Ciob_streams
                0x000000000000af14        0x4 /usr/local/mcuxpressoide-11.0.0_2516/ide/plugins/com.nxp.mcuxpresso.tools.linux_11.0.0.201905131304/tools/bin/../lib/gcc/arm-none-eabi/8.2.1/../../../../arm-none-eabi/lib/thumb/v7e-m+fp/hard/libcr_nohost_nf.a(__ciob.o)
                0x000000000000af14                __num_Ciob_streams
 .rodata.__assertion_failed.str1.1
                0x000000000000af18       0x15 /usr/local/mcuxpressoide-11.0.0_2516/ide/plugins/com.nxp.mcuxpresso.tools.linux_11.0.0.201905131304/tools/bin/../lib/gcc/arm-none-eabi/8.2.1/../../../../arm-none-eabi/lib/thumb/v7e-m+fp/hard/libcr_nohost_nf.a(_cr_assert.o)
 .rodata._Csys_alloc.str1.1
                0x000000000000af2d       0x18 /usr/local/mcuxpressoide-11.0.0_2516/ide/plugins/com.nxp.mcuxpresso.tools.linux_11.0.0.201905131304/tools/bin/../lib/gcc/arm-none-eabi/8.2.1/../../../../arm-none-eabi/lib/thumb/v7e-m+fp/hard/libcr_c.a(alloc.o)
 .rodata._initio.str1.1
                0x000000000000af45        0x4 /usr/local/mcuxpressoide-11.0.0_2516/ide/plugins/com.nxp.mcuxpresso.tools.linux_11.0.0.201905131304/tools/bin/../lib/gcc/arm-none-eabi/8.2.1/../../../../arm-none-eabi/lib/thumb/v7e-m+fp/hard/libcr_c.a(initio.o)
                0x000000000000af50                . = ALIGN (0x8)
 *fill*         0x000000000000af49        0x7 ff

.glue_7         0x000000000000af50        0x0
 .glue_7        0x000000000000af50        0x0 linker stubs

.glue_7t        0x000000000000af50        0x0
 .glue_7t       0x000000000000af50        0x0 linker stubs

.vfp11_veneer   0x000000000000af50        0x0
 .vfp11_veneer  0x000000000000af50        0x0 linker stubs

.v4_bx          0x000000000000af50        0x0
 .v4_bx         0x000000000000af50        0x0 linker stubs

.iplt           0x000000000000af50        0x0
 .iplt          0x000000000000af50        0x0 ./utilities/fsl_debug_console.o

.rel.dyn        0x000000000000af50        0x0
 .rel.iplt      0x000000000000af50        0x0 ./utilities/fsl_debug_console.o

.ARM.extab
 *(SORT_BY_ALIGNMENT(.ARM.extab*) SORT_BY_ALIGNMENT(.gnu.linkonce.armextab.*))
                0x000000000000af50                __exidx_start = .

.ARM.exidx
 *(SORT_BY_ALIGNMENT(.ARM.exidx*) SORT_BY_ALIGNMENT(.gnu.linkonce.armexidx.*))
                0x000000000000af50                __exidx_end = .
                0x000000000000af50                _etext = .

.m_usb_data
 *(SORT_BY_ALIGNMENT(m_usb_bdt))

.data_RAM2      0x000000001fff0000        0x0 load address 0x000000000000af50
 FILL mask 0xff
                [!provide]                        PROVIDE (__start_data_RAM2 = .)
 *(SORT_BY_ALIGNMENT(.ramfunc.$RAM2))
 *(SORT_BY_ALIGNMENT(.ramfunc.$SRAM_LOWER))
 *(SORT_BY_ALIGNMENT(.data.$RAM2))
 *(SORT_BY_ALIGNMENT(.data.$SRAM_LOWER))
 *(SORT_BY_ALIGNMENT(.data.$RAM2.*))
 *(SORT_BY_ALIGNMENT(.data.$SRAM_LOWER.*))
                0x000000001fff0000                . = ALIGN (0x8)
                [!provide]                        PROVIDE (__end_data_RAM2 = .)

.data_RAM3      0x0000000014000000        0x0 load address 0x000000000000af50
 FILL mask 0xff
                [!provide]                        PROVIDE (__start_data_RAM3 = .)
 *(SORT_BY_ALIGNMENT(.ramfunc.$RAM3))
 *(SORT_BY_ALIGNMENT(.ramfunc.$FLEX_RAM))
 *(SORT_BY_ALIGNMENT(.data.$RAM3))
 *(SORT_BY_ALIGNMENT(.data.$FLEX_RAM))
 *(SORT_BY_ALIGNMENT(.data.$RAM3.*))
 *(SORT_BY_ALIGNMENT(.data.$FLEX_RAM.*))
                0x0000000014000000                . = ALIGN (0x8)
                [!provide]                        PROVIDE (__end_data_RAM3 = .)

.uninit_RESERVED
                0x0000000020000000        0x0
                0x0000000020000000                . = ALIGN (0x8)
 *(SORT_BY_ALIGNMENT(.bss.$RESERVED*))
                0x0000000020000000                . = ALIGN (0x8)
                0x0000000020000000                _end_uninit_RESERVED = .

.data           0x0000000020000000      0x108 load address 0x000000000000af50
 FILL mask 0xff
                0x0000000020000000                _data = .
 *(SORT_BY_ALIGNMENT(vtable))
 *(SORT_BY_ALIGNMENT(.ramfunc*))
 *(SORT_BY_ALIGNMENT(.data*))
 .data.s_slowIrcFreq
                0x0000000020000000        0x4 ./drivers/fsl_clock.o
 .data.s_fastIrcFreq
                0x0000000020000004        0x4 ./drivers/fsl_clock.o
 .data.SystemCoreClock
                0x0000000020000008        0x4 ./device/system_MK64F12.o
                0x0000000020000008                SystemCoreClock
 .data.uxCriticalNesting
                0x000000002000000c        0x4 ./amazon-freertos/freertos/portable/port.o
 .data.TraceQueueClassTable
                0x0000000020000010        0x5 ./amazon-freertos/TraceRecorder/trcKernelPort.o
                0x0000000020000010                TraceQueueClassTable
 *fill*         0x0000000020000015        0x3 ff
 .data.readyEventsEnabled
                0x0000000020000018        0x4 ./amazon-freertos/TraceRecorder/trcSnapshotRecorder.o
 .data._random_j
                0x000000002000001c        0x4 /usr/local/mcuxpressoide-11.0.0_2516/ide/plugins/com.nxp.mcuxpresso.tools.linux_11.0.0.201905131304/tools/bin/../lib/gcc/arm-none-eabi/8.2.1/../../../../arm-none-eabi/lib/thumb/v7e-m+fp/hard/libcr_c.a(stdlib.o)
 .data._random_k
                0x0000000020000020        0x4 /usr/local/mcuxpressoide-11.0.0_2516/ide/plugins/com.nxp.mcuxpresso.tools.linux_11.0.0.201905131304/tools/bin/../lib/gcc/arm-none-eabi/8.2.1/../../../../arm-none-eabi/lib/thumb/v7e-m+fp/hard/libcr_c.a(stdlib.o)
 .data._random_number_seed
                0x0000000020000024       0xdc /usr/local/mcuxpressoide-11.0.0_2516/ide/plugins/com.nxp.mcuxpresso.tools.linux_11.0.0.201905131304/tools/bin/../lib/gcc/arm-none-eabi/8.2.1/../../../../arm-none-eabi/lib/thumb/v7e-m+fp/hard/libcr_c.a(stdlib.o)
 .data.CurrentFilterMask
                0x0000000020000100        0x2 ./amazon-freertos/TraceRecorder/trcSnapshotRecorder.o
                0x0000000020000100                CurrentFilterMask
 .data.CurrentFilterGroup
                0x0000000020000102        0x2 ./amazon-freertos/TraceRecorder/trcSnapshotRecorder.o
                0x0000000020000102                CurrentFilterGroup
                0x0000000020000108                . = ALIGN (0x8)
 *fill*         0x0000000020000104        0x4 ff
                0x0000000020000108                _edata = .

.igot.plt       0x0000000020000108        0x0 load address 0x000000000000b058
 .igot.plt      0x0000000020000108        0x0 ./utilities/fsl_debug_console.o

.bss_RAM2       0x000000001fff0000        0x0
                0x000000001fff0000                . = ALIGN (0x8)
                [!provide]                        PROVIDE (__start_bss_RAM2 = .)
 *(SORT_BY_ALIGNMENT(.bss.$RAM2))
 *(SORT_BY_ALIGNMENT(.bss.$SRAM_LOWER))
 *(SORT_BY_ALIGNMENT(.bss.$RAM2.*))
 *(SORT_BY_ALIGNMENT(.bss.$SRAM_LOWER.*))
                0x000000001fff0000                . = ALIGN ((. != 0x0)?0x8:0x1)
                [!provide]                        PROVIDE (__end_bss_RAM2 = .)

.bss_RAM3       0x0000000014000000        0x0
                0x0000000014000000                . = ALIGN (0x8)
                [!provide]                        PROVIDE (__start_bss_RAM3 = .)
 *(SORT_BY_ALIGNMENT(.bss.$RAM3))
 *(SORT_BY_ALIGNMENT(.bss.$FLEX_RAM))
 *(SORT_BY_ALIGNMENT(.bss.$RAM3.*))
 *(SORT_BY_ALIGNMENT(.bss.$FLEX_RAM.*))
                0x0000000014000000                . = ALIGN ((. != 0x0)?0x8:0x1)
                [!provide]                        PROVIDE (__end_bss_RAM3 = .)

.bss            0x0000000020000108     0x4588
                0x0000000020000108                . = ALIGN (0x8)
                0x0000000020000108                _bss = .
 *(SORT_BY_ALIGNMENT(.bss*))
 .bss.s_debugConsoleState
                0x0000000020000108       0x1c ./utilities/fsl_debug_console.o
 .bss.g_serialHandle
                0x0000000020000124        0x4 ./utilities/fsl_debug_console.o
                0x0000000020000124                g_serialHandle
 .bss.g_xtal0Freq
                0x0000000020000128        0x4 ./drivers/fsl_clock.o
                0x0000000020000128                g_xtal0Freq
 .bss.g_xtal32Freq
                0x000000002000012c        0x4 ./drivers/fsl_clock.o
                0x000000002000012c                g_xtal32Freq
 .bss.g_dspiHandle
                0x0000000020000130        0xc ./drivers/fsl_dspi.o
 .bss.s_dspiMasterIsr
                0x000000002000013c        0x4 ./drivers/fsl_dspi.o
 .bss.s_dspiSlaveIsr
                0x0000000020000140        0x4 ./drivers/fsl_dspi.o
 .bss.s_i2cHandle
                0x0000000020000144        0xc ./drivers/fsl_i2c.o
 .bss.s_i2cMasterIsr
                0x0000000020000150        0x4 ./drivers/fsl_i2c.o
 .bss.s_i2cSlaveIsr
                0x0000000020000154        0x4 ./drivers/fsl_i2c.o
 .bss.s_uartHandle
                0x0000000020000158       0x18 ./drivers/fsl_uart.o
 .bss.s_uartIsr
                0x0000000020000170        0x4 ./drivers/fsl_uart.o
 .bss.ucHeap    0x0000000020000174     0x2800 ./amazon-freertos/freertos/portable/heap_4.o
 .bss.xStart    0x0000000020002974        0x8 ./amazon-freertos/freertos/portable/heap_4.o
 .bss.pxEnd     0x000000002000297c        0x4 ./amazon-freertos/freertos/portable/heap_4.o
 .bss.xFreeBytesRemaining
                0x0000000020002980        0x4 ./amazon-freertos/freertos/portable/heap_4.o
 .bss.xMinimumEverFreeBytesRemaining
                0x0000000020002984        0x4 ./amazon-freertos/freertos/portable/heap_4.o
 .bss.xBlockAllocatedBit
                0x0000000020002988        0x4 ./amazon-freertos/freertos/portable/heap_4.o
 .bss.ulMaxPRIGROUPValue
                0x000000002000298c        0x4 ./amazon-freertos/freertos/portable/port.o
 .bss.xQueueRegistry
                0x0000000020002990       0x40 ./amazon-freertos/freertos/queue.o
                0x0000000020002990                xQueueRegistry
 .bss.pxCurrentTCB
                0x00000000200029d0        0x4 ./amazon-freertos/freertos/tasks.o
                0x00000000200029d0                pxCurrentTCB
 .bss.pxReadyTasksLists
                0x00000000200029d4       0x64 ./amazon-freertos/freertos/tasks.o
 .bss.xDelayedTaskList1
                0x0000000020002a38       0x14 ./amazon-freertos/freertos/tasks.o
 .bss.xDelayedTaskList2
                0x0000000020002a4c       0x14 ./amazon-freertos/freertos/tasks.o
 .bss.pxDelayedTaskList
                0x0000000020002a60        0x4 ./amazon-freertos/freertos/tasks.o
 .bss.pxOverflowDelayedTaskList
                0x0000000020002a64        0x4 ./amazon-freertos/freertos/tasks.o
 .bss.xPendingReadyList
                0x0000000020002a68       0x14 ./amazon-freertos/freertos/tasks.o
 .bss.xTasksWaitingTermination
                0x0000000020002a7c       0x14 ./amazon-freertos/freertos/tasks.o
 .bss.uxDeletedTasksWaitingCleanUp
                0x0000000020002a90        0x4 ./amazon-freertos/freertos/tasks.o
 .bss.xSuspendedTaskList
                0x0000000020002a94       0x14 ./amazon-freertos/freertos/tasks.o
 .bss.uxCurrentNumberOfTasks
                0x0000000020002aa8        0x4 ./amazon-freertos/freertos/tasks.o
 .bss.xTickCount
                0x0000000020002aac        0x4 ./amazon-freertos/freertos/tasks.o
 .bss.uxTopReadyPriority
                0x0000000020002ab0        0x4 ./amazon-freertos/freertos/tasks.o
 .bss.xSchedulerRunning
                0x0000000020002ab4        0x4 ./amazon-freertos/freertos/tasks.o
 .bss.uxPendedTicks
                0x0000000020002ab8        0x4 ./amazon-freertos/freertos/tasks.o
 .bss.xYieldPending
                0x0000000020002abc        0x4 ./amazon-freertos/freertos/tasks.o
 .bss.xNumOfOverflows
                0x0000000020002ac0        0x4 ./amazon-freertos/freertos/tasks.o
 .bss.uxTaskNumber
                0x0000000020002ac4        0x4 ./amazon-freertos/freertos/tasks.o
 .bss.xNextTaskUnblockTime
                0x0000000020002ac8        0x4 ./amazon-freertos/freertos/tasks.o
 .bss.xIdleTaskHandle
                0x0000000020002acc        0x4 ./amazon-freertos/freertos/tasks.o
 .bss.uxSchedulerSuspended
                0x0000000020002ad0        0x4 ./amazon-freertos/freertos/tasks.o
 .bss.xActiveTimerList1
                0x0000000020002ad4       0x14 ./amazon-freertos/freertos/timers.o
 .bss.xActiveTimerList2
                0x0000000020002ae8       0x14 ./amazon-freertos/freertos/timers.o
 .bss.pxCurrentTimerList
                0x0000000020002afc        0x4 ./amazon-freertos/freertos/timers.o
 .bss.pxOverflowTimerList
                0x0000000020002b00        0x4 ./amazon-freertos/freertos/timers.o
 .bss.xTimerQueue
                0x0000000020002b04        0x4 ./amazon-freertos/freertos/timers.o
 .bss.xTimerTaskHandle
                0x0000000020002b08        0x4 ./amazon-freertos/freertos/timers.o
 .bss.xLastTime.8122
                0x0000000020002b0c        0x4 ./amazon-freertos/freertos/timers.o
 .bss.HandleTzCtrl
                0x0000000020002b10        0x4 ./amazon-freertos/TraceRecorder/trcKernelPort.o
 .bss.tasksInStackMonitor
                0x0000000020002b14       0x50 ./amazon-freertos/TraceRecorder/trcKernelPort.o
                0x0000000020002b14                tasksInStackMonitor
 .bss.tasksNotIncluded
                0x0000000020002b64        0x4 ./amazon-freertos/TraceRecorder/trcKernelPort.o
                0x0000000020002b64                tasksNotIncluded
 .bss.i.7878    0x0000000020002b68        0x4 ./amazon-freertos/TraceRecorder/trcKernelPort.o
 .bss.isPendingContextSwitch
                0x0000000020002b6c        0x4 ./amazon-freertos/TraceRecorder/trcSnapshotRecorder.o
                0x0000000020002b6c                isPendingContextSwitch
 .bss.uiTraceTickCount
                0x0000000020002b70        0x4 ./amazon-freertos/TraceRecorder/trcSnapshotRecorder.o
                0x0000000020002b70                uiTraceTickCount
 .bss.trace_disable_timestamp
                0x0000000020002b74        0x4 ./amazon-freertos/TraceRecorder/trcSnapshotRecorder.o
                0x0000000020002b74                trace_disable_timestamp
 .bss.last_timestamp
                0x0000000020002b78        0x4 ./amazon-freertos/TraceRecorder/trcSnapshotRecorder.o
 .bss.recorder_busy
                0x0000000020002b7c        0x4 ./amazon-freertos/TraceRecorder/trcSnapshotRecorder.o
                0x0000000020002b7c                recorder_busy
 .bss.timestampFrequency
                0x0000000020002b80        0x4 ./amazon-freertos/TraceRecorder/trcSnapshotRecorder.o
                0x0000000020002b80                timestampFrequency
 .bss.traceErrorMessage
                0x0000000020002b84        0x4 ./amazon-freertos/TraceRecorder/trcSnapshotRecorder.o
                0x0000000020002b84                traceErrorMessage
 .bss.vTraceStopHookPtr
                0x0000000020002b88        0x4 ./amazon-freertos/TraceRecorder/trcSnapshotRecorder.o
                0x0000000020002b88                vTraceStopHookPtr
 .bss.heapMemUsage
                0x0000000020002b8c        0x4 ./amazon-freertos/TraceRecorder/trcSnapshotRecorder.o
 .bss.objectHandleStacks
                0x0000000020002b90       0x8e ./amazon-freertos/TraceRecorder/trcSnapshotRecorder.o
                0x0000000020002b90                objectHandleStacks
 *fill*         0x0000000020002c1e        0x2 
 .bss.init_hwtc_count
                0x0000000020002c20        0x4 ./amazon-freertos/TraceRecorder/trcSnapshotRecorder.o
                0x0000000020002c20                init_hwtc_count
 .bss.RecorderData
                0x0000000020002c24     0x1908 ./amazon-freertos/TraceRecorder/trcSnapshotRecorder.o
                0x0000000020002c24                RecorderData
 .bss.RecorderDataPtr
                0x000000002000452c        0x4 ./amazon-freertos/TraceRecorder/trcSnapshotRecorder.o
                0x000000002000452c                RecorderDataPtr
 .bss.indexOfHandle.7870
                0x0000000020004530        0x4 ./amazon-freertos/TraceRecorder/trcSnapshotRecorder.o
 .bss.old_timestamp.7933
                0x0000000020004534        0x4 ./amazon-freertos/TraceRecorder/trcSnapshotRecorder.o
 .bss.last_hwtc_count.7986
                0x0000000020004538        0x4 ./amazon-freertos/TraceRecorder/trcSnapshotRecorder.o
 .bss.last_hwtc_rest.7988
                0x000000002000453c        0x4 ./amazon-freertos/TraceRecorder/trcSnapshotRecorder.o
 .bss.__Ciob    0x0000000020004540       0xb4 /usr/local/mcuxpressoide-11.0.0_2516/ide/plugins/com.nxp.mcuxpresso.tools.linux_11.0.0.201905131304/tools/bin/../lib/gcc/arm-none-eabi/8.2.1/../../../../arm-none-eabi/lib/thumb/v7e-m+fp/hard/libcr_nohost_nf.a(__ciob.o)
                0x0000000020004540                __Ciob
 .bss._exitvector
                0x00000000200045f4       0x84 /usr/local/mcuxpressoide-11.0.0_2516/ide/plugins/com.nxp.mcuxpresso.tools.linux_11.0.0.201905131304/tools/bin/../lib/gcc/arm-none-eabi/8.2.1/../../../../arm-none-eabi/lib/thumb/v7e-m+fp/hard/libcr_c.a(stdlib.o)
                0x00000000200045f4                _exitvector
 .bss._number_of_exit_functions
                0x0000000020004678        0x4 /usr/local/mcuxpressoide-11.0.0_2516/ide/plugins/com.nxp.mcuxpresso.tools.linux_11.0.0.201905131304/tools/bin/../lib/gcc/arm-none-eabi/8.2.1/../../../../arm-none-eabi/lib/thumb/v7e-m+fp/hard/libcr_c.a(stdlib.o)
                0x0000000020004678                _number_of_exit_functions
 .bss.__end_of_heap
                0x000000002000467c        0x4 /usr/local/mcuxpressoide-11.0.0_2516/ide/plugins/com.nxp.mcuxpresso.tools.linux_11.0.0.201905131304/tools/bin/../lib/gcc/arm-none-eabi/8.2.1/../../../../arm-none-eabi/lib/thumb/v7e-m+fp/hard/libcr_c.a(__init_alloc.o)
                0x000000002000467c                __end_of_heap
 .bss.__heaps   0x0000000020004680        0x4 /usr/local/mcuxpressoide-11.0.0_2516/ide/plugins/com.nxp.mcuxpresso.tools.linux_11.0.0.201905131304/tools/bin/../lib/gcc/arm-none-eabi/8.2.1/../../../../arm-none-eabi/lib/thumb/v7e-m+fp/hard/libcr_c.a(__init_alloc.o)
                0x0000000020004680                __heaps
 .bss.errno     0x0000000020004684        0x4 /usr/local/mcuxpressoide-11.0.0_2516/ide/plugins/com.nxp.mcuxpresso.tools.linux_11.0.0.201905131304/tools/bin/../lib/gcc/arm-none-eabi/8.2.1/../../../../arm-none-eabi/lib/thumb/v7e-m+fp/hard/libcr_c.a(errno.o)
                0x0000000020004684                errno
 .bss.idx.7897  0x0000000020004688        0x2 ./amazon-freertos/TraceRecorder/trcSnapshotRecorder.o
 .bss.ucMaxSysCallPriority
                0x000000002000468a        0x1 ./amazon-freertos/freertos/portable/port.o
 .bss.handle_of_last_logged_task
                0x000000002000468b        0x1 ./amazon-freertos/TraceRecorder/trcSnapshotRecorder.o
                0x000000002000468b                handle_of_last_logged_task
 *(SORT_BY_ALIGNMENT(COMMON))
                0x0000000020004690                . = ALIGN (0x8)
 *fill*         0x000000002000468c        0x4 
                0x0000000020004690                _ebss = .
                [!provide]                        PROVIDE (end = .)

.noinit_RAM2    0x000000001fff0000        0x0
                0x000000001fff0000                . = ALIGN (0x8)
 *(SORT_BY_ALIGNMENT(.noinit.$RAM2))
 *(SORT_BY_ALIGNMENT(.noinit.$SRAM_LOWER))
 *(SORT_BY_ALIGNMENT(.noinit.$RAM2.*))
 *(SORT_BY_ALIGNMENT(.noinit.$SRAM_LOWER.*))
                0x000000001fff0000                . = ALIGN (0x8)

.noinit_RAM3    0x0000000014000000        0x0
                0x0000000014000000                . = ALIGN (0x8)
 *(SORT_BY_ALIGNMENT(.noinit.$RAM3))
 *(SORT_BY_ALIGNMENT(.noinit.$FLEX_RAM))
 *(SORT_BY_ALIGNMENT(.noinit.$RAM3.*))
 *(SORT_BY_ALIGNMENT(.noinit.$FLEX_RAM.*))
                0x0000000014000000                . = ALIGN (0x8)

.noinit         0x0000000020004690        0x0
                0x0000000020004690                . = ALIGN (0x8)
                0x0000000020004690                _noinit = .
 *(SORT_BY_ALIGNMENT(.noinit*))
                0x0000000020004690                . = ALIGN (0x8)
                0x0000000020004690                _end_noinit = .
                0x0000000000001000                _HeapSize = 0x1000

.heap           0x0000000020004690     0x1000
                0x0000000020004690                _pvHeapStart = .
                0x0000000020005690                . = (. + _HeapSize)
 *fill*         0x0000000020004690     0x1000 
                0x0000000020005690                . = ALIGN (0x8)
                0x0000000020005690                _pvHeapLimit = .
                0x0000000000001000                _StackSize = 0x1000

.heap2stackfill
                0x0000000020005690     0x1000
                0x0000000020006690                . = (. + _StackSize)
 *fill*         0x0000000020005690     0x1000 

.stack          0x000000002002f000        0x0
                0x000000002002f000                _vStackBase = .
                0x000000002002f000                . = ALIGN (0x8)
                0x0000000020030000                _vStackTop = (. + _StackSize)
                0x0000000000000000                _image_start = LOADADDR (.text)
                0x000000000000b058                _image_end = (LOADADDR (.data) + SIZEOF (.data))
                0x000000000000b058                _image_size = (_image_end - _image_start)
OUTPUT(TP4_FRTOS.axf elf32-littlearm)

.debug_info     0x0000000000000000    0x1a978
 .debug_info    0x0000000000000000     0x1025 ./utilities/fsl_debug_console.o
 .debug_info    0x0000000000001025      0x55e ./utilities/fsl_str.o
 .debug_info    0x0000000000001583      0x92e ./startup/startup_mk64f12.o
 .debug_info    0x0000000000001eb1     0x118c ./source/TP4_FTOS.o
 .debug_info    0x000000000000303d       0x3c ./source/semihost_hardfault.o
 .debug_info    0x0000000000003079     0x22c4 ./drivers/fsl_clock.o
 .debug_info    0x000000000000533d     0x2593 ./drivers/fsl_dspi.o
 .debug_info    0x00000000000078d0     0x1ede ./drivers/fsl_i2c.o
 .debug_info    0x00000000000097ae     0x1ba2 ./drivers/fsl_uart.o
 .debug_info    0x000000000000b350      0x690 ./device/system_MK64F12.o
 .debug_info    0x000000000000b9e0     0x102d ./component/uart/uart_adapter.o
 .debug_info    0x000000000000ca0d      0x765 ./component/serial_manager/serial_manager.o
 .debug_info    0x000000000000d172      0xb1c ./component/serial_manager/serial_port_uart.o
 .debug_info    0x000000000000dc8e      0x4b9 ./board/boards/board.o
 .debug_info    0x000000000000e147      0xcd0 ./board/boards/clock_config.o
 .debug_info    0x000000000000ee17       0x4e ./board/boards/peripherals.o
 .debug_info    0x000000000000ee65      0xc8e ./board/boards/pin_mux.o
 .debug_info    0x000000000000faf3      0xa54 ./amazon-freertos/freertos/portable/heap_4.o
 .debug_info    0x0000000000010547      0xbae ./amazon-freertos/freertos/portable/port.o
 .debug_info    0x00000000000110f5      0x945 ./amazon-freertos/freertos/list.o
 .debug_info    0x0000000000011a3a     0x1fa4 ./amazon-freertos/freertos/queue.o
 .debug_info    0x00000000000139de     0x28bf ./amazon-freertos/freertos/tasks.o
 .debug_info    0x000000000001629d     0x152a ./amazon-freertos/freertos/timers.o
 .debug_info    0x00000000000177c7      0xc0b ./amazon-freertos/TraceRecorder/trcKernelPort.o
 .debug_info    0x00000000000183d2     0x25a6 ./amazon-freertos/TraceRecorder/trcSnapshotRecorder.o

.debug_abbrev   0x0000000000000000     0x3aa9
 .debug_abbrev  0x0000000000000000      0x25d ./utilities/fsl_debug_console.o
 .debug_abbrev  0x000000000000025d      0x1b3 ./utilities/fsl_str.o
 .debug_abbrev  0x0000000000000410      0x17a ./startup/startup_mk64f12.o
 .debug_abbrev  0x000000000000058a      0x249 ./source/TP4_FTOS.o
 .debug_abbrev  0x00000000000007d3       0x31 ./source/semihost_hardfault.o
 .debug_abbrev  0x0000000000000804      0x349 ./drivers/fsl_clock.o
 .debug_abbrev  0x0000000000000b4d      0x38a ./drivers/fsl_dspi.o
 .debug_abbrev  0x0000000000000ed7      0x382 ./drivers/fsl_i2c.o
 .debug_abbrev  0x0000000000001259      0x345 ./drivers/fsl_uart.o
 .debug_abbrev  0x000000000000159e      0x170 ./device/system_MK64F12.o
 .debug_abbrev  0x000000000000170e      0x21e ./component/uart/uart_adapter.o
 .debug_abbrev  0x000000000000192c      0x17d ./component/serial_manager/serial_manager.o
 .debug_abbrev  0x0000000000001aa9      0x1c5 ./component/serial_manager/serial_port_uart.o
 .debug_abbrev  0x0000000000001c6e      0x135 ./board/boards/board.o
 .debug_abbrev  0x0000000000001da3      0x252 ./board/boards/clock_config.o
 .debug_abbrev  0x0000000000001ff5       0x4b ./board/boards/peripherals.o
 .debug_abbrev  0x0000000000002040      0x2d5 ./board/boards/pin_mux.o
 .debug_abbrev  0x0000000000002315      0x27e ./amazon-freertos/freertos/portable/heap_4.o
 .debug_abbrev  0x0000000000002593      0x2d0 ./amazon-freertos/freertos/portable/port.o
 .debug_abbrev  0x0000000000002863      0x19b ./amazon-freertos/freertos/list.o
 .debug_abbrev  0x00000000000029fe      0x371 ./amazon-freertos/freertos/queue.o
 .debug_abbrev  0x0000000000002d6f      0x381 ./amazon-freertos/freertos/tasks.o
 .debug_abbrev  0x00000000000030f0      0x2fd ./amazon-freertos/freertos/timers.o
 .debug_abbrev  0x00000000000033ed      0x299 ./amazon-freertos/TraceRecorder/trcKernelPort.o
 .debug_abbrev  0x0000000000003686      0x423 ./amazon-freertos/TraceRecorder/trcSnapshotRecorder.o

.debug_aranges  0x0000000000000000     0x15a8
 .debug_aranges
                0x0000000000000000       0x80 ./utilities/fsl_debug_console.o
 .debug_aranges
                0x0000000000000080       0x38 ./utilities/fsl_str.o
 .debug_aranges
                0x00000000000000b8      0x330 ./startup/startup_mk64f12.o
 .debug_aranges
                0x00000000000003e8       0x48 ./source/TP4_FTOS.o
 .debug_aranges
                0x0000000000000430       0x20 ./source/semihost_hardfault.o
 .debug_aranges
                0x0000000000000450      0x1f0 ./drivers/fsl_clock.o
 .debug_aranges
                0x0000000000000640      0x1d8 ./drivers/fsl_dspi.o
 .debug_aranges
                0x0000000000000818      0x180 ./drivers/fsl_i2c.o
 .debug_aranges
                0x0000000000000998      0x170 ./drivers/fsl_uart.o
 .debug_aranges
                0x0000000000000b08       0x30 ./device/system_MK64F12.o
 .debug_aranges
                0x0000000000000b38       0x40 ./component/uart/uart_adapter.o
 .debug_aranges
                0x0000000000000b78       0x88 ./component/serial_manager/serial_manager.o
 .debug_aranges
                0x0000000000000c00       0x38 ./component/serial_manager/serial_port_uart.o
 .debug_aranges
                0x0000000000000c38       0x20 ./board/boards/board.o
 .debug_aranges
                0x0000000000000c58       0x80 ./board/boards/clock_config.o
 .debug_aranges
                0x0000000000000cd8       0x28 ./board/boards/peripherals.o
 .debug_aranges
                0x0000000000000d00       0x88 ./board/boards/pin_mux.o
 .debug_aranges
                0x0000000000000d88       0x50 ./amazon-freertos/freertos/portable/heap_4.o
 .debug_aranges
                0x0000000000000dd8       0x80 ./amazon-freertos/freertos/portable/port.o
 .debug_aranges
                0x0000000000000e58       0x40 ./amazon-freertos/freertos/list.o
 .debug_aranges
                0x0000000000000e98      0x138 ./amazon-freertos/freertos/queue.o
 .debug_aranges
                0x0000000000000fd0      0x200 ./amazon-freertos/freertos/tasks.o
 .debug_aranges
                0x00000000000011d0       0xe0 ./amazon-freertos/freertos/timers.o
 .debug_aranges
                0x00000000000012b0       0xd0 ./amazon-freertos/TraceRecorder/trcKernelPort.o
 .debug_aranges
                0x0000000000001380      0x228 ./amazon-freertos/TraceRecorder/trcSnapshotRecorder.o

.debug_ranges   0x0000000000000000     0x1418
 .debug_ranges  0x0000000000000000       0x70 ./utilities/fsl_debug_console.o
 .debug_ranges  0x0000000000000070       0x28 ./utilities/fsl_str.o
 .debug_ranges  0x0000000000000098      0x320 ./startup/startup_mk64f12.o
 .debug_ranges  0x00000000000003b8       0x38 ./source/TP4_FTOS.o
 .debug_ranges  0x00000000000003f0       0x10 ./source/semihost_hardfault.o
 .debug_ranges  0x0000000000000400      0x1e0 ./drivers/fsl_clock.o
 .debug_ranges  0x00000000000005e0      0x1c8 ./drivers/fsl_dspi.o
 .debug_ranges  0x00000000000007a8      0x170 ./drivers/fsl_i2c.o
 .debug_ranges  0x0000000000000918      0x160 ./drivers/fsl_uart.o
 .debug_ranges  0x0000000000000a78       0x20 ./device/system_MK64F12.o
 .debug_ranges  0x0000000000000a98       0x30 ./component/uart/uart_adapter.o
 .debug_ranges  0x0000000000000ac8       0x78 ./component/serial_manager/serial_manager.o
 .debug_ranges  0x0000000000000b40       0x28 ./component/serial_manager/serial_port_uart.o
 .debug_ranges  0x0000000000000b68       0x10 ./board/boards/board.o
 .debug_ranges  0x0000000000000b78       0x70 ./board/boards/clock_config.o
 .debug_ranges  0x0000000000000be8       0x18 ./board/boards/peripherals.o
 .debug_ranges  0x0000000000000c00       0x78 ./board/boards/pin_mux.o
 .debug_ranges  0x0000000000000c78       0x40 ./amazon-freertos/freertos/portable/heap_4.o
 .debug_ranges  0x0000000000000cb8       0x70 ./amazon-freertos/freertos/portable/port.o
 .debug_ranges  0x0000000000000d28       0x30 ./amazon-freertos/freertos/list.o
 .debug_ranges  0x0000000000000d58      0x128 ./amazon-freertos/freertos/queue.o
 .debug_ranges  0x0000000000000e80      0x1f0 ./amazon-freertos/freertos/tasks.o
 .debug_ranges  0x0000000000001070       0xd0 ./amazon-freertos/freertos/timers.o
 .debug_ranges  0x0000000000001140       0xc0 ./amazon-freertos/TraceRecorder/trcKernelPort.o
 .debug_ranges  0x0000000000001200      0x218 ./amazon-freertos/TraceRecorder/trcSnapshotRecorder.o

.debug_macro    0x0000000000000000    0x16664
 .debug_macro   0x0000000000000000      0x26a ./utilities/fsl_debug_console.o
 .debug_macro   0x000000000000026a      0xade ./utilities/fsl_debug_console.o
 .debug_macro   0x0000000000000d48       0x10 ./utilities/fsl_debug_console.o
 .debug_macro   0x0000000000000d58       0x16 ./utilities/fsl_debug_console.o
 .debug_macro   0x0000000000000d6e       0x10 ./utilities/fsl_debug_console.o
 .debug_macro   0x0000000000000d7e      0x12e ./utilities/fsl_debug_console.o
 .debug_macro   0x0000000000000eac       0x28 ./utilities/fsl_debug_console.o
 .debug_macro   0x0000000000000ed4      0x5b3 ./utilities/fsl_debug_console.o
 .debug_macro   0x0000000000001487      0x189 ./utilities/fsl_debug_console.o
 .debug_macro   0x0000000000001610      0x13f ./utilities/fsl_debug_console.o
 .debug_macro   0x000000000000174f       0x57 ./utilities/fsl_debug_console.o
 .debug_macro   0x00000000000017a6       0x1c ./utilities/fsl_debug_console.o
 .debug_macro   0x00000000000017c2       0x22 ./utilities/fsl_debug_console.o
 .debug_macro   0x00000000000017e4       0xdf ./utilities/fsl_debug_console.o
 .debug_macro   0x00000000000018c3      0xecf ./utilities/fsl_debug_console.o
 .debug_macro   0x0000000000002792       0x40 ./utilities/fsl_debug_console.o
 .debug_macro   0x00000000000027d2     0xe977 ./utilities/fsl_debug_console.o
 .debug_macro   0x0000000000011149       0x94 ./utilities/fsl_debug_console.o
 .debug_macro   0x00000000000111dd       0xe4 ./utilities/fsl_debug_console.o
 .debug_macro   0x00000000000112c1       0x88 ./utilities/fsl_debug_console.o
 .debug_macro   0x0000000000011349      0x9a6 ./utilities/fsl_debug_console.o
 .debug_macro   0x0000000000011cef      0x234 ./utilities/fsl_debug_console.o
 .debug_macro   0x0000000000011f23      0x15a ./utilities/fsl_debug_console.o
 .debug_macro   0x000000000001207d       0xdd ./utilities/fsl_debug_console.o
 .debug_macro   0x000000000001215a       0x1c ./utilities/fsl_debug_console.o
 .debug_macro   0x0000000000012176       0x26 ./utilities/fsl_debug_console.o
 .debug_macro   0x000000000001219c      0x30d ./utilities/fsl_debug_console.o
 .debug_macro   0x00000000000124a9       0xb5 ./utilities/fsl_debug_console.o
 .debug_macro   0x000000000001255e       0xc8 ./utilities/fsl_debug_console.o
 .debug_macro   0x0000000000012626       0x80 ./utilities/fsl_debug_console.o
 .debug_macro   0x00000000000126a6       0x7e ./utilities/fsl_debug_console.o
 .debug_macro   0x0000000000012724       0x56 ./utilities/fsl_debug_console.o
 .debug_macro   0x000000000001277a       0x16 ./utilities/fsl_debug_console.o
 .debug_macro   0x0000000000012790       0x22 ./utilities/fsl_debug_console.o
 .debug_macro   0x00000000000127b2       0x10 ./utilities/fsl_debug_console.o
 .debug_macro   0x00000000000127c2     0x127f ./utilities/fsl_debug_console.o
 .debug_macro   0x0000000000013a41       0xc9 ./utilities/fsl_debug_console.o
 .debug_macro   0x0000000000013b0a      0x174 ./utilities/fsl_debug_console.o
 .debug_macro   0x0000000000013c7e       0x34 ./utilities/fsl_debug_console.o
 .debug_macro   0x0000000000013cb2       0x10 ./utilities/fsl_debug_console.o
 .debug_macro   0x0000000000013cc2       0x32 ./utilities/fsl_debug_console.o
 .debug_macro   0x0000000000013cf4       0x34 ./utilities/fsl_debug_console.o
 .debug_macro   0x0000000000013d28      0x113 ./utilities/fsl_str.o
 .debug_macro   0x0000000000013e3b       0xc4 ./utilities/fsl_str.o
 .debug_macro   0x0000000000013eff       0x1c ./utilities/fsl_str.o
 .debug_macro   0x0000000000013f1b       0x29 ./startup/startup_mk64f12.o
 .debug_macro   0x0000000000013f44      0x26f ./source/TP4_FTOS.o
 .debug_macro   0x00000000000141b3       0xd8 ./source/TP4_FTOS.o
 .debug_macro   0x000000000001428b       0x22 ./source/TP4_FTOS.o
 .debug_macro   0x00000000000142ad       0x16 ./source/TP4_FTOS.o
 .debug_macro   0x00000000000142c3       0x10 ./source/TP4_FTOS.o
 .debug_macro   0x00000000000142d3       0x16 ./source/TP4_FTOS.o
 .debug_macro   0x00000000000142e9      0x1f1 ./source/TP4_FTOS.o
 .debug_macro   0x00000000000144da      0x1ba ./source/TP4_FTOS.o
 .debug_macro   0x0000000000014694       0x2e ./source/TP4_FTOS.o
 .debug_macro   0x00000000000146c2      0x189 ./source/TP4_FTOS.o
 .debug_macro   0x000000000001484b       0xc4 ./source/TP4_FTOS.o
 .debug_macro   0x000000000001490f       0x52 ./source/TP4_FTOS.o
 .debug_macro   0x0000000000014961       0x11 ./source/semihost_hardfault.o
 .debug_macro   0x0000000000014972      0x1ba ./drivers/fsl_clock.o
 .debug_macro   0x0000000000014b2c      0x103 ./drivers/fsl_dspi.o
 .debug_macro   0x0000000000014c2f       0x3a ./drivers/fsl_dspi.o
 .debug_macro   0x0000000000014c69      0x103 ./drivers/fsl_i2c.o
 .debug_macro   0x0000000000014d6c       0x1c ./drivers/fsl_i2c.o
 .debug_macro   0x0000000000014d88      0x10a ./drivers/fsl_uart.o
 .debug_macro   0x0000000000014e92       0x98 ./device/system_MK64F12.o
 .debug_macro   0x0000000000014f2a      0x1ca ./component/uart/uart_adapter.o
 .debug_macro   0x00000000000150f4       0x10 ./component/uart/uart_adapter.o
 .debug_macro   0x0000000000015104       0x1c ./component/uart/uart_adapter.o
 .debug_macro   0x0000000000015120      0x127 ./component/serial_manager/serial_manager.o
 .debug_macro   0x0000000000015247      0x1e2 ./component/serial_manager/serial_port_uart.o
 .debug_macro   0x0000000000015429       0x1c ./component/serial_manager/serial_port_uart.o
 .debug_macro   0x0000000000015445      0x144 ./board/boards/board.o
 .debug_macro   0x0000000000015589      0x15f ./board/boards/clock_config.o
 .debug_macro   0x00000000000156e8       0x1b ./board/boards/peripherals.o
 .debug_macro   0x0000000000015703      0x109 ./board/boards/pin_mux.o
 .debug_macro   0x000000000001580c      0x189 ./amazon-freertos/freertos/portable/heap_4.o
 .debug_macro   0x0000000000015995      0x223 ./amazon-freertos/freertos/portable/port.o
 .debug_macro   0x0000000000015bb8       0x16 ./amazon-freertos/freertos/portable/port.o
 .debug_macro   0x0000000000015bce      0x162 ./amazon-freertos/freertos/list.o
 .debug_macro   0x0000000000015d30      0x1cf ./amazon-freertos/freertos/queue.o
 .debug_macro   0x0000000000015eff      0x232 ./amazon-freertos/freertos/tasks.o
 .debug_macro   0x0000000000016131       0x10 ./amazon-freertos/freertos/tasks.o
 .debug_macro   0x0000000000016141      0x1b7 ./amazon-freertos/freertos/timers.o
 .debug_macro   0x00000000000162f8       0x97 ./amazon-freertos/freertos/timers.o
 .debug_macro   0x000000000001638f      0x170 ./amazon-freertos/TraceRecorder/trcKernelPort.o
 .debug_macro   0x00000000000164ff      0x165 ./amazon-freertos/TraceRecorder/trcSnapshotRecorder.o

.debug_line     0x0000000000000000    0x104ea
 .debug_line    0x0000000000000000      0x7e6 ./utilities/fsl_debug_console.o
 .debug_line    0x00000000000007e6      0x949 ./utilities/fsl_str.o
 .debug_line    0x000000000000112f      0x90e ./startup/startup_mk64f12.o
 .debug_line    0x0000000000001a3d      0x753 ./source/TP4_FTOS.o
 .debug_line    0x0000000000002190       0x5a ./source/semihost_hardfault.o
 .debug_line    0x00000000000021ea     0x1469 ./drivers/fsl_clock.o
 .debug_line    0x0000000000003653     0x172f ./drivers/fsl_dspi.o
 .debug_line    0x0000000000004d82     0x1375 ./drivers/fsl_i2c.o
 .debug_line    0x00000000000060f7     0x1140 ./drivers/fsl_uart.o
 .debug_line    0x0000000000007237      0x3b0 ./device/system_MK64F12.o
 .debug_line    0x00000000000075e7      0x57f ./component/uart/uart_adapter.o
 .debug_line    0x0000000000007b66      0x5ba ./component/serial_manager/serial_manager.o
 .debug_line    0x0000000000008120      0x594 ./component/serial_manager/serial_port_uart.o
 .debug_line    0x00000000000086b4      0x330 ./board/boards/board.o
 .debug_line    0x00000000000089e4      0x463 ./board/boards/clock_config.o
 .debug_line    0x0000000000008e47       0x78 ./board/boards/peripherals.o
 .debug_line    0x0000000000008ebf      0x576 ./board/boards/pin_mux.o
 .debug_line    0x0000000000009435      0x667 ./amazon-freertos/freertos/portable/heap_4.o
 .debug_line    0x0000000000009a9c      0x6be ./amazon-freertos/freertos/portable/port.o
 .debug_line    0x000000000000a15a      0x4c1 ./amazon-freertos/freertos/list.o
 .debug_line    0x000000000000a61b     0x15b6 ./amazon-freertos/freertos/queue.o
 .debug_line    0x000000000000bbd1     0x1c23 ./amazon-freertos/freertos/tasks.o
 .debug_line    0x000000000000d7f4      0xa67 ./amazon-freertos/freertos/timers.o
 .debug_line    0x000000000000e25b      0x7fe ./amazon-freertos/TraceRecorder/trcKernelPort.o
 .debug_line    0x000000000000ea59     0x1a91 ./amazon-freertos/TraceRecorder/trcSnapshotRecorder.o

.debug_str      0x0000000000000000    0x96c18
 .debug_str     0x0000000000000000    0x8945d ./utilities/fsl_debug_console.o
                                      0x895d4 (size before relaxing)
 .debug_str     0x000000000008945d      0x6c3 ./utilities/fsl_str.o
                                      0x798c9 (size before relaxing)
 .debug_str     0x0000000000089b20      0x7c2 ./startup/startup_mk64f12.o
                                       0x3751 (size before relaxing)
 .debug_str     0x000000000008a2e2     0x1e26 ./source/TP4_FTOS.o
                                      0x8a057 (size before relaxing)
 .debug_str     0x000000000008c108       0x1f ./source/semihost_hardfault.o
                                       0x2ee2 (size before relaxing)
 .debug_str     0x000000000008c127     0x1b10 ./drivers/fsl_clock.o
                                      0x7b70c (size before relaxing)
 .debug_str     0x000000000008dc37     0x18f0 ./drivers/fsl_dspi.o
                                      0x7b4ec (size before relaxing)
 .debug_str     0x000000000008f527      0xca2 ./drivers/fsl_i2c.o
                                      0x7ad86 (size before relaxing)
 .debug_str     0x00000000000901c9      0xcf0 ./drivers/fsl_uart.o
                                      0x7ae93 (size before relaxing)
 .debug_str     0x0000000000090eb9      0x111 ./device/system_MK64F12.o
                                      0x78166 (size before relaxing)
 .debug_str     0x0000000000090fca      0x350 ./component/uart/uart_adapter.o
                                      0x872a4 (size before relaxing)
 .debug_str     0x000000000009131a      0x381 ./component/serial_manager/serial_manager.o
                                      0x7979e (size before relaxing)
 .debug_str     0x000000000009169b       0xfc ./component/serial_manager/serial_port_uart.o
                                      0x86d3c (size before relaxing)
 .debug_str     0x0000000000091797       0x3e ./board/boards/board.o
                                      0x7a53c (size before relaxing)
 .debug_str     0x00000000000917d5      0x45c ./board/boards/clock_config.o
                                      0x7a17c (size before relaxing)
 .debug_str     0x0000000000091c31       0x4e ./board/boards/peripherals.o
                                       0x2f10 (size before relaxing)
 .debug_str     0x0000000000091c7f      0x76c ./board/boards/pin_mux.o
                                      0x7a1b5 (size before relaxing)
 .debug_str     0x00000000000923eb      0x2b6 ./amazon-freertos/freertos/portable/heap_4.o
                                      0x7f847 (size before relaxing)
 .debug_str     0x00000000000926a1      0x81f ./amazon-freertos/freertos/portable/port.o
                                      0x7fdd4 (size before relaxing)
 .debug_str     0x0000000000092ec0      0x122 ./amazon-freertos/freertos/list.o
                                      0x7f06e (size before relaxing)
 .debug_str     0x0000000000092fe2      0x883 ./amazon-freertos/freertos/queue.o
                                      0x80737 (size before relaxing)
 .debug_str     0x0000000000093865     0x1b51 ./amazon-freertos/freertos/tasks.o
                                      0x8147d (size before relaxing)
 .debug_str     0x00000000000953b6      0x596 ./amazon-freertos/freertos/timers.o
                                      0x80c19 (size before relaxing)
 .debug_str     0x000000000009594c      0x310 ./amazon-freertos/TraceRecorder/trcKernelPort.o
                                      0x7ff9c (size before relaxing)
 .debug_str     0x0000000000095c5c      0xfbc ./amazon-freertos/TraceRecorder/trcSnapshotRecorder.o
                                      0x7f7f9 (size before relaxing)

.comment        0x0000000000000000       0x75
 .comment       0x0000000000000000       0x75 ./utilities/fsl_debug_console.o
                                         0x76 (size before relaxing)
 .comment       0x0000000000000075       0x76 ./utilities/fsl_str.o
 .comment       0x0000000000000075       0x76 ./startup/startup_mk64f12.o
 .comment       0x0000000000000075       0x76 ./source/TP4_FTOS.o
 .comment       0x0000000000000075       0x76 ./source/semihost_hardfault.o
 .comment       0x0000000000000075       0x76 ./drivers/fsl_clock.o
 .comment       0x0000000000000075       0x76 ./drivers/fsl_dspi.o
 .comment       0x0000000000000075       0x76 ./drivers/fsl_i2c.o
 .comment       0x0000000000000075       0x76 ./drivers/fsl_uart.o
 .comment       0x0000000000000075       0x76 ./device/system_MK64F12.o
 .comment       0x0000000000000075       0x76 ./component/uart/uart_adapter.o
 .comment       0x0000000000000075       0x76 ./component/serial_manager/serial_manager.o
 .comment       0x0000000000000075       0x76 ./component/serial_manager/serial_port_uart.o
 .comment       0x0000000000000075       0x76 ./board/boards/board.o
 .comment       0x0000000000000075       0x76 ./board/boards/clock_config.o
 .comment       0x0000000000000075       0x76 ./board/boards/peripherals.o
 .comment       0x0000000000000075       0x76 ./board/boards/pin_mux.o
 .comment       0x0000000000000075       0x76 ./amazon-freertos/freertos/portable/heap_4.o
 .comment       0x0000000000000075       0x76 ./amazon-freertos/freertos/portable/port.o
 .comment       0x0000000000000075       0x76 ./amazon-freertos/freertos/list.o
 .comment       0x0000000000000075       0x76 ./amazon-freertos/freertos/queue.o
 .comment       0x0000000000000075       0x76 ./amazon-freertos/freertos/tasks.o
 .comment       0x0000000000000075       0x76 ./amazon-freertos/freertos/timers.o
 .comment       0x0000000000000075       0x76 ./amazon-freertos/TraceRecorder/trcKernelPort.o
 .comment       0x0000000000000075       0x76 ./amazon-freertos/TraceRecorder/trcSnapshotRecorder.o
 .comment       0x0000000000000075       0x76 /usr/local/mcuxpressoide-11.0.0_2516/ide/plugins/com.nxp.mcuxpresso.tools.linux_11.0.0.201905131304/tools/bin/../lib/gcc/arm-none-eabi/8.2.1/../../../../arm-none-eabi/lib/thumb/v7e-m+fp/hard/libcr_nohost_nf.a(_cr__main.o)
 .comment       0x0000000000000075       0x76 /usr/local/mcuxpressoide-11.0.0_2516/ide/plugins/com.nxp.mcuxpresso.tools.linux_11.0.0.201905131304/tools/bin/../lib/gcc/arm-none-eabi/8.2.1/../../../../arm-none-eabi/lib/thumb/v7e-m+fp/hard/libcr_nohost_nf.a(_cr_assert.o)
 .comment       0x0000000000000075       0x76 /usr/local/mcuxpressoide-11.0.0_2516/ide/plugins/com.nxp.mcuxpresso.tools.linux_11.0.0.201905131304/tools/bin/../lib/gcc/arm-none-eabi/8.2.1/../../../../arm-none-eabi/lib/thumb/v7e-m+fp/hard/libcr_nohost_nf.a(__ciob.o)
 .comment       0x0000000000000075       0x76 /usr/local/mcuxpressoide-11.0.0_2516/ide/plugins/com.nxp.mcuxpresso.tools.linux_11.0.0.201905131304/tools/bin/../lib/gcc/arm-none-eabi/8.2.1/../../../../arm-none-eabi/lib/thumb/v7e-m+fp/hard/libcr_nohost_nf.a(__sys_appexit.o)
 .comment       0x0000000000000075       0x76 /usr/local/mcuxpressoide-11.0.0_2516/ide/plugins/com.nxp.mcuxpresso.tools.linux_11.0.0.201905131304/tools/bin/../lib/gcc/arm-none-eabi/8.2.1/../../../../arm-none-eabi/lib/thumb/v7e-m+fp/hard/libcr_c.a(memcpy.o)
 .comment       0x0000000000000075       0x76 /usr/local/mcuxpressoide-11.0.0_2516/ide/plugins/com.nxp.mcuxpresso.tools.linux_11.0.0.201905131304/tools/bin/../lib/gcc/arm-none-eabi/8.2.1/../../../../arm-none-eabi/lib/thumb/v7e-m+fp/hard/libcr_c.a(memset.o)
 .comment       0x0000000000000075       0x76 /usr/local/mcuxpressoide-11.0.0_2516/ide/plugins/com.nxp.mcuxpresso.tools.linux_11.0.0.201905131304/tools/bin/../lib/gcc/arm-none-eabi/8.2.1/../../../../arm-none-eabi/lib/thumb/v7e-m+fp/hard/libcr_c.a(_deferredlazyseek.o)
 .comment       0x0000000000000075       0x76 /usr/local/mcuxpressoide-11.0.0_2516/ide/plugins/com.nxp.mcuxpresso.tools.linux_11.0.0.201905131304/tools/bin/../lib/gcc/arm-none-eabi/8.2.1/../../../../arm-none-eabi/lib/thumb/v7e-m+fp/hard/libcr_c.a(_fflush.o)
 .comment       0x0000000000000075       0x76 /usr/local/mcuxpressoide-11.0.0_2516/ide/plugins/com.nxp.mcuxpresso.tools.linux_11.0.0.201905131304/tools/bin/../lib/gcc/arm-none-eabi/8.2.1/../../../../arm-none-eabi/lib/thumb/v7e-m+fp/hard/libcr_c.a(_writebuf.o)
 .comment       0x0000000000000075       0x76 /usr/local/mcuxpressoide-11.0.0_2516/ide/plugins/com.nxp.mcuxpresso.tools.linux_11.0.0.201905131304/tools/bin/../lib/gcc/arm-none-eabi/8.2.1/../../../../arm-none-eabi/lib/thumb/v7e-m+fp/hard/libcr_c.a(alloc.o)
 .comment       0x0000000000000075       0x76 /usr/local/mcuxpressoide-11.0.0_2516/ide/plugins/com.nxp.mcuxpresso.tools.linux_11.0.0.201905131304/tools/bin/../lib/gcc/arm-none-eabi/8.2.1/../../../../arm-none-eabi/lib/thumb/v7e-m+fp/hard/libcr_c.a(fputs.o)
 .comment       0x0000000000000075       0x76 /usr/local/mcuxpressoide-11.0.0_2516/ide/plugins/com.nxp.mcuxpresso.tools.linux_11.0.0.201905131304/tools/bin/../lib/gcc/arm-none-eabi/8.2.1/../../../../arm-none-eabi/lib/thumb/v7e-m+fp/hard/libcr_c.a(fseek.o)
 .comment       0x0000000000000075       0x76 /usr/local/mcuxpressoide-11.0.0_2516/ide/plugins/com.nxp.mcuxpresso.tools.linux_11.0.0.201905131304/tools/bin/../lib/gcc/arm-none-eabi/8.2.1/../../../../arm-none-eabi/lib/thumb/v7e-m+fp/hard/libcr_c.a(ftell.o)
 .comment       0x0000000000000075       0x76 /usr/local/mcuxpressoide-11.0.0_2516/ide/plugins/com.nxp.mcuxpresso.tools.linux_11.0.0.201905131304/tools/bin/../lib/gcc/arm-none-eabi/8.2.1/../../../../arm-none-eabi/lib/thumb/v7e-m+fp/hard/libcr_c.a(initio.o)
 .comment       0x0000000000000075       0x76 /usr/local/mcuxpressoide-11.0.0_2516/ide/plugins/com.nxp.mcuxpresso.tools.linux_11.0.0.201905131304/tools/bin/../lib/gcc/arm-none-eabi/8.2.1/../../../../arm-none-eabi/lib/thumb/v7e-m+fp/hard/libcr_c.a(setvbuf.o)
 .comment       0x0000000000000075       0x76 /usr/local/mcuxpressoide-11.0.0_2516/ide/plugins/com.nxp.mcuxpresso.tools.linux_11.0.0.201905131304/tools/bin/../lib/gcc/arm-none-eabi/8.2.1/../../../../arm-none-eabi/lib/thumb/v7e-m+fp/hard/libcr_c.a(stdlib.o)
 .comment       0x0000000000000075       0x76 /usr/local/mcuxpressoide-11.0.0_2516/ide/plugins/com.nxp.mcuxpresso.tools.linux_11.0.0.201905131304/tools/bin/../lib/gcc/arm-none-eabi/8.2.1/../../../../arm-none-eabi/lib/thumb/v7e-m+fp/hard/libcr_c.a(strlen.o)
 .comment       0x0000000000000075       0x76 /usr/local/mcuxpressoide-11.0.0_2516/ide/plugins/com.nxp.mcuxpresso.tools.linux_11.0.0.201905131304/tools/bin/../lib/gcc/arm-none-eabi/8.2.1/../../../../arm-none-eabi/lib/thumb/v7e-m+fp/hard/libcr_c.a(__init_alloc.o)
 .comment       0x0000000000000075       0x76 /usr/local/mcuxpressoide-11.0.0_2516/ide/plugins/com.nxp.mcuxpresso.tools.linux_11.0.0.201905131304/tools/bin/../lib/gcc/arm-none-eabi/8.2.1/../../../../arm-none-eabi/lib/thumb/v7e-m+fp/hard/libcr_c.a(_cr_sbrk.o)
 .comment       0x0000000000000075       0x76 /usr/local/mcuxpressoide-11.0.0_2516/ide/plugins/com.nxp.mcuxpresso.tools.linux_11.0.0.201905131304/tools/bin/../lib/gcc/arm-none-eabi/8.2.1/../../../../arm-none-eabi/lib/thumb/v7e-m+fp/hard/libcr_c.a(_fdopen.o)
 .comment       0x0000000000000075       0x76 /usr/local/mcuxpressoide-11.0.0_2516/ide/plugins/com.nxp.mcuxpresso.tools.linux_11.0.0.201905131304/tools/bin/../lib/gcc/arm-none-eabi/8.2.1/../../../../arm-none-eabi/lib/thumb/v7e-m+fp/hard/libcr_c.a(errno.o)
 .comment       0x0000000000000075       0x76 /usr/local/mcuxpressoide-11.0.0_2516/ide/plugins/com.nxp.mcuxpresso.tools.linux_11.0.0.201905131304/tools/bin/../lib/gcc/arm-none-eabi/8.2.1/../../../../arm-none-eabi/lib/thumb/v7e-m+fp/hard/libcr_c.a(fclose.o)
 .comment       0x0000000000000075       0x76 /usr/local/mcuxpressoide-11.0.0_2516/ide/plugins/com.nxp.mcuxpresso.tools.linux_11.0.0.201905131304/tools/bin/../lib/gcc/arm-none-eabi/8.2.1/../../../../arm-none-eabi/lib/thumb/v7e-m+fp/hard/libcr_c.a(fflush.o)
 .comment       0x0000000000000075       0x76 /usr/local/mcuxpressoide-11.0.0_2516/ide/plugins/com.nxp.mcuxpresso.tools.linux_11.0.0.201905131304/tools/bin/../lib/gcc/arm-none-eabi/8.2.1/../../../../arm-none-eabi/lib/thumb/v7e-m+fp/hard/libcr_c.a(remove.o)
 .comment       0x0000000000000075       0x76 /usr/local/mcuxpressoide-11.0.0_2516/ide/plugins/com.nxp.mcuxpresso.tools.linux_11.0.0.201905131304/tools/bin/../lib/gcc/arm-none-eabi/8.2.1/../../../../arm-none-eabi/lib/thumb/v7e-m+fp/hard/libcr_c.a(_cr_check_heap.o)
 .comment       0x0000000000000075       0x76 /usr/local/mcuxpressoide-11.0.0_2516/ide/plugins/com.nxp.mcuxpresso.tools.linux_11.0.0.201905131304/tools/bin/../lib/gcc/arm-none-eabi/8.2.1/../../../../arm-none-eabi/lib/thumb/v7e-m+fp/hard/libcr_c.a(_do_fflush.o)
 .comment       0x0000000000000075       0x76 /usr/local/mcuxpressoide-11.0.0_2516/ide/plugins/com.nxp.mcuxpresso.tools.linux_11.0.0.201905131304/tools/bin/../lib/gcc/arm-none-eabi/8.2.1/../../../../arm-none-eabi/lib/thumb/v7e-m+fp/hard/libcr_nohost_nf.a(__sys_close.o)
 .comment       0x0000000000000075       0x76 /usr/local/mcuxpressoide-11.0.0_2516/ide/plugins/com.nxp.mcuxpresso.tools.linux_11.0.0.201905131304/tools/bin/../lib/gcc/arm-none-eabi/8.2.1/../../../../arm-none-eabi/lib/thumb/v7e-m+fp/hard/libcr_nohost_nf.a(__sys_flen.o)
 .comment       0x0000000000000075       0x76 /usr/local/mcuxpressoide-11.0.0_2516/ide/plugins/com.nxp.mcuxpresso.tools.linux_11.0.0.201905131304/tools/bin/../lib/gcc/arm-none-eabi/8.2.1/../../../../arm-none-eabi/lib/thumb/v7e-m+fp/hard/libcr_nohost_nf.a(__sys_istty.o)
 .comment       0x0000000000000075       0x76 /usr/local/mcuxpressoide-11.0.0_2516/ide/plugins/com.nxp.mcuxpresso.tools.linux_11.0.0.201905131304/tools/bin/../lib/gcc/arm-none-eabi/8.2.1/../../../../arm-none-eabi/lib/thumb/v7e-m+fp/hard/libcr_nohost_nf.a(__sys_remove.o)
 .comment       0x0000000000000075       0x76 /usr/local/mcuxpressoide-11.0.0_2516/ide/plugins/com.nxp.mcuxpresso.tools.linux_11.0.0.201905131304/tools/bin/../lib/gcc/arm-none-eabi/8.2.1/../../../../arm-none-eabi/lib/thumb/v7e-m+fp/hard/libcr_nohost_nf.a(__sys_seek.o)
 .comment       0x0000000000000075       0x76 /usr/local/mcuxpressoide-11.0.0_2516/ide/plugins/com.nxp.mcuxpresso.tools.linux_11.0.0.201905131304/tools/bin/../lib/gcc/arm-none-eabi/8.2.1/../../../../arm-none-eabi/lib/thumb/v7e-m+fp/hard/libcr_nohost_nf.a(__sys_tmpnam.o)
 .comment       0x0000000000000075       0x76 /usr/local/mcuxpressoide-11.0.0_2516/ide/plugins/com.nxp.mcuxpresso.tools.linux_11.0.0.201905131304/tools/bin/../lib/gcc/arm-none-eabi/8.2.1/../../../../arm-none-eabi/lib/thumb/v7e-m+fp/hard/libcr_nohost_nf.a(__sys_write.o)

.ARM.attributes
                0x0000000000000000       0x32
 .ARM.attributes
                0x0000000000000000       0x34 ./utilities/fsl_debug_console.o
 .ARM.attributes
                0x0000000000000034       0x34 ./utilities/fsl_str.o
 .ARM.attributes
                0x0000000000000068       0x34 ./startup/startup_mk64f12.o
 .ARM.attributes
                0x000000000000009c       0x34 ./source/TP4_FTOS.o
 .ARM.attributes
                0x00000000000000d0       0x34 ./source/semihost_hardfault.o
 .ARM.attributes
                0x0000000000000104       0x34 ./drivers/fsl_clock.o
 .ARM.attributes
                0x0000000000000138       0x34 ./drivers/fsl_dspi.o
 .ARM.attributes
                0x000000000000016c       0x34 ./drivers/fsl_i2c.o
 .ARM.attributes
                0x00000000000001a0       0x34 ./drivers/fsl_uart.o
 .ARM.attributes
                0x00000000000001d4       0x34 ./device/system_MK64F12.o
 .ARM.attributes
                0x0000000000000208       0x34 ./component/uart/uart_adapter.o
 .ARM.attributes
                0x000000000000023c       0x34 ./component/serial_manager/serial_manager.o
 .ARM.attributes
                0x0000000000000270       0x34 ./component/serial_manager/serial_port_uart.o
 .ARM.attributes
                0x00000000000002a4       0x34 ./board/boards/board.o
 .ARM.attributes
                0x00000000000002d8       0x34 ./board/boards/clock_config.o
 .ARM.attributes
                0x000000000000030c       0x34 ./board/boards/peripherals.o
 .ARM.attributes
                0x0000000000000340       0x34 ./board/boards/pin_mux.o
 .ARM.attributes
                0x0000000000000374       0x34 ./amazon-freertos/freertos/portable/heap_4.o
 .ARM.attributes
                0x00000000000003a8       0x34 ./amazon-freertos/freertos/portable/port.o
 .ARM.attributes
                0x00000000000003dc       0x34 ./amazon-freertos/freertos/list.o
 .ARM.attributes
                0x0000000000000410       0x34 ./amazon-freertos/freertos/queue.o
 .ARM.attributes
                0x0000000000000444       0x34 ./amazon-freertos/freertos/tasks.o
 .ARM.attributes
                0x0000000000000478       0x34 ./amazon-freertos/freertos/timers.o
 .ARM.attributes
                0x00000000000004ac       0x34 ./amazon-freertos/TraceRecorder/trcKernelPort.o
 .ARM.attributes
                0x00000000000004e0       0x34 ./amazon-freertos/TraceRecorder/trcSnapshotRecorder.o
 .ARM.attributes
                0x0000000000000514       0x34 /usr/local/mcuxpressoide-11.0.0_2516/ide/plugins/com.nxp.mcuxpresso.tools.linux_11.0.0.201905131304/tools/bin/../lib/gcc/arm-none-eabi/8.2.1/../../../../arm-none-eabi/lib/thumb/v7e-m+fp/hard/libcr_nohost_nf.a(_cr__main.o)
 .ARM.attributes
                0x0000000000000548       0x34 /usr/local/mcuxpressoide-11.0.0_2516/ide/plugins/com.nxp.mcuxpresso.tools.linux_11.0.0.201905131304/tools/bin/../lib/gcc/arm-none-eabi/8.2.1/../../../../arm-none-eabi/lib/thumb/v7e-m+fp/hard/libcr_nohost_nf.a(_cr_assert.o)
 .ARM.attributes
                0x000000000000057c       0x39 /usr/local/mcuxpressoide-11.0.0_2516/ide/plugins/com.nxp.mcuxpresso.tools.linux_11.0.0.201905131304/tools/bin/../lib/gcc/arm-none-eabi/8.2.1/../../../../arm-none-eabi/lib/thumb/v7e-m+fp/hard/libcr_nohost_nf.a(__ciob.o)
 .ARM.attributes
                0x00000000000005b5       0x34 /usr/local/mcuxpressoide-11.0.0_2516/ide/plugins/com.nxp.mcuxpresso.tools.linux_11.0.0.201905131304/tools/bin/../lib/gcc/arm-none-eabi/8.2.1/../../../../arm-none-eabi/lib/thumb/v7e-m+fp/hard/libcr_nohost_nf.a(__sys_appexit.o)
 .ARM.attributes
                0x00000000000005e9       0x34 /usr/local/mcuxpressoide-11.0.0_2516/ide/plugins/com.nxp.mcuxpresso.tools.linux_11.0.0.201905131304/tools/bin/../lib/gcc/arm-none-eabi/8.2.1/../../../../arm-none-eabi/lib/thumb/v7e-m+fp/hard/libcr_c.a(memcpy.o)
 .ARM.attributes
                0x000000000000061d       0x34 /usr/local/mcuxpressoide-11.0.0_2516/ide/plugins/com.nxp.mcuxpresso.tools.linux_11.0.0.201905131304/tools/bin/../lib/gcc/arm-none-eabi/8.2.1/../../../../arm-none-eabi/lib/thumb/v7e-m+fp/hard/libcr_c.a(memset.o)
 .ARM.attributes
                0x0000000000000651       0x34 /usr/local/mcuxpressoide-11.0.0_2516/ide/plugins/com.nxp.mcuxpresso.tools.linux_11.0.0.201905131304/tools/bin/../lib/gcc/arm-none-eabi/8.2.1/../../../../arm-none-eabi/lib/thumb/v7e-m+fp/hard/libcr_c.a(_deferredlazyseek.o)
 .ARM.attributes
                0x0000000000000685       0x34 /usr/local/mcuxpressoide-11.0.0_2516/ide/plugins/com.nxp.mcuxpresso.tools.linux_11.0.0.201905131304/tools/bin/../lib/gcc/arm-none-eabi/8.2.1/../../../../arm-none-eabi/lib/thumb/v7e-m+fp/hard/libcr_c.a(_fflush.o)
 .ARM.attributes
                0x00000000000006b9       0x34 /usr/local/mcuxpressoide-11.0.0_2516/ide/plugins/com.nxp.mcuxpresso.tools.linux_11.0.0.201905131304/tools/bin/../lib/gcc/arm-none-eabi/8.2.1/../../../../arm-none-eabi/lib/thumb/v7e-m+fp/hard/libcr_c.a(_writebuf.o)
 .ARM.attributes
                0x00000000000006ed       0x34 /usr/local/mcuxpressoide-11.0.0_2516/ide/plugins/com.nxp.mcuxpresso.tools.linux_11.0.0.201905131304/tools/bin/../lib/gcc/arm-none-eabi/8.2.1/../../../../arm-none-eabi/lib/thumb/v7e-m+fp/hard/libcr_c.a(alloc.o)
 .ARM.attributes
                0x0000000000000721       0x34 /usr/local/mcuxpressoide-11.0.0_2516/ide/plugins/com.nxp.mcuxpresso.tools.linux_11.0.0.201905131304/tools/bin/../lib/gcc/arm-none-eabi/8.2.1/../../../../arm-none-eabi/lib/thumb/v7e-m+fp/hard/libcr_c.a(fputs.o)
 .ARM.attributes
                0x0000000000000755       0x34 /usr/local/mcuxpressoide-11.0.0_2516/ide/plugins/com.nxp.mcuxpresso.tools.linux_11.0.0.201905131304/tools/bin/../lib/gcc/arm-none-eabi/8.2.1/../../../../arm-none-eabi/lib/thumb/v7e-m+fp/hard/libcr_c.a(fseek.o)
 .ARM.attributes
                0x0000000000000789       0x34 /usr/local/mcuxpressoide-11.0.0_2516/ide/plugins/com.nxp.mcuxpresso.tools.linux_11.0.0.201905131304/tools/bin/../lib/gcc/arm-none-eabi/8.2.1/../../../../arm-none-eabi/lib/thumb/v7e-m+fp/hard/libcr_c.a(ftell.o)
 .ARM.attributes
                0x00000000000007bd       0x34 /usr/local/mcuxpressoide-11.0.0_2516/ide/plugins/com.nxp.mcuxpresso.tools.linux_11.0.0.201905131304/tools/bin/../lib/gcc/arm-none-eabi/8.2.1/../../../../arm-none-eabi/lib/thumb/v7e-m+fp/hard/libcr_c.a(initio.o)
 .ARM.attributes
                0x00000000000007f1       0x34 /usr/local/mcuxpressoide-11.0.0_2516/ide/plugins/com.nxp.mcuxpresso.tools.linux_11.0.0.201905131304/tools/bin/../lib/gcc/arm-none-eabi/8.2.1/../../../../arm-none-eabi/lib/thumb/v7e-m+fp/hard/libcr_c.a(setvbuf.o)
 .ARM.attributes
                0x0000000000000825       0x34 /usr/local/mcuxpressoide-11.0.0_2516/ide/plugins/com.nxp.mcuxpresso.tools.linux_11.0.0.201905131304/tools/bin/../lib/gcc/arm-none-eabi/8.2.1/../../../../arm-none-eabi/lib/thumb/v7e-m+fp/hard/libcr_c.a(stdlib.o)
 .ARM.attributes
                0x0000000000000859       0x34 /usr/local/mcuxpressoide-11.0.0_2516/ide/plugins/com.nxp.mcuxpresso.tools.linux_11.0.0.201905131304/tools/bin/../lib/gcc/arm-none-eabi/8.2.1/../../../../arm-none-eabi/lib/thumb/v7e-m+fp/hard/libcr_c.a(strlen.o)
 .ARM.attributes
                0x000000000000088d       0x34 /usr/local/mcuxpressoide-11.0.0_2516/ide/plugins/com.nxp.mcuxpresso.tools.linux_11.0.0.201905131304/tools/bin/../lib/gcc/arm-none-eabi/8.2.1/../../../../arm-none-eabi/lib/thumb/v7e-m+fp/hard/libcr_c.a(__init_alloc.o)
 .ARM.attributes
                0x00000000000008c1       0x34 /usr/local/mcuxpressoide-11.0.0_2516/ide/plugins/com.nxp.mcuxpresso.tools.linux_11.0.0.201905131304/tools/bin/../lib/gcc/arm-none-eabi/8.2.1/../../../../arm-none-eabi/lib/thumb/v7e-m+fp/hard/libcr_c.a(_cr_sbrk.o)
 .ARM.attributes
                0x00000000000008f5       0x34 /usr/local/mcuxpressoide-11.0.0_2516/ide/plugins/com.nxp.mcuxpresso.tools.linux_11.0.0.201905131304/tools/bin/../lib/gcc/arm-none-eabi/8.2.1/../../../../arm-none-eabi/lib/thumb/v7e-m+fp/hard/libcr_c.a(_fdopen.o)
 .ARM.attributes
                0x0000000000000929       0x39 /usr/local/mcuxpressoide-11.0.0_2516/ide/plugins/com.nxp.mcuxpresso.tools.linux_11.0.0.201905131304/tools/bin/../lib/gcc/arm-none-eabi/8.2.1/../../../../arm-none-eabi/lib/thumb/v7e-m+fp/hard/libcr_c.a(errno.o)
 .ARM.attributes
                0x0000000000000962       0x34 /usr/local/mcuxpressoide-11.0.0_2516/ide/plugins/com.nxp.mcuxpresso.tools.linux_11.0.0.201905131304/tools/bin/../lib/gcc/arm-none-eabi/8.2.1/../../../../arm-none-eabi/lib/thumb/v7e-m+fp/hard/libcr_c.a(fclose.o)
 .ARM.attributes
                0x0000000000000996       0x34 /usr/local/mcuxpressoide-11.0.0_2516/ide/plugins/com.nxp.mcuxpresso.tools.linux_11.0.0.201905131304/tools/bin/../lib/gcc/arm-none-eabi/8.2.1/../../../../arm-none-eabi/lib/thumb/v7e-m+fp/hard/libcr_c.a(fflush.o)
 .ARM.attributes
                0x00000000000009ca       0x34 /usr/local/mcuxpressoide-11.0.0_2516/ide/plugins/com.nxp.mcuxpresso.tools.linux_11.0.0.201905131304/tools/bin/../lib/gcc/arm-none-eabi/8.2.1/../../../../arm-none-eabi/lib/thumb/v7e-m+fp/hard/libcr_c.a(remove.o)
 .ARM.attributes
                0x00000000000009fe       0x34 /usr/local/mcuxpressoide-11.0.0_2516/ide/plugins/com.nxp.mcuxpresso.tools.linux_11.0.0.201905131304/tools/bin/../lib/gcc/arm-none-eabi/8.2.1/../../../../arm-none-eabi/lib/thumb/v7e-m+fp/hard/libcr_c.a(_cr_check_heap.o)
 .ARM.attributes
                0x0000000000000a32       0x34 /usr/local/mcuxpressoide-11.0.0_2516/ide/plugins/com.nxp.mcuxpresso.tools.linux_11.0.0.201905131304/tools/bin/../lib/gcc/arm-none-eabi/8.2.1/../../../../arm-none-eabi/lib/thumb/v7e-m+fp/hard/libcr_c.a(_do_fflush.o)
 .ARM.attributes
                0x0000000000000a66       0x20 /usr/local/mcuxpressoide-11.0.0_2516/ide/plugins/com.nxp.mcuxpresso.tools.linux_11.0.0.201905131304/tools/bin/../lib/gcc/arm-none-eabi/8.2.1/thumb/v7e-m+fp/hard/libcr_eabihelpers.a(memcpy.o)
 .ARM.attributes
                0x0000000000000a86       0x34 /usr/local/mcuxpressoide-11.0.0_2516/ide/plugins/com.nxp.mcuxpresso.tools.linux_11.0.0.201905131304/tools/bin/../lib/gcc/arm-none-eabi/8.2.1/../../../../arm-none-eabi/lib/thumb/v7e-m+fp/hard/libcr_nohost_nf.a(__sys_close.o)
 .ARM.attributes
                0x0000000000000aba       0x34 /usr/local/mcuxpressoide-11.0.0_2516/ide/plugins/com.nxp.mcuxpresso.tools.linux_11.0.0.201905131304/tools/bin/../lib/gcc/arm-none-eabi/8.2.1/../../../../arm-none-eabi/lib/thumb/v7e-m+fp/hard/libcr_nohost_nf.a(__sys_flen.o)
 .ARM.attributes
                0x0000000000000aee       0x34 /usr/local/mcuxpressoide-11.0.0_2516/ide/plugins/com.nxp.mcuxpresso.tools.linux_11.0.0.201905131304/tools/bin/../lib/gcc/arm-none-eabi/8.2.1/../../../../arm-none-eabi/lib/thumb/v7e-m+fp/hard/libcr_nohost_nf.a(__sys_istty.o)
 .ARM.attributes
                0x0000000000000b22       0x34 /usr/local/mcuxpressoide-11.0.0_2516/ide/plugins/com.nxp.mcuxpresso.tools.linux_11.0.0.201905131304/tools/bin/../lib/gcc/arm-none-eabi/8.2.1/../../../../arm-none-eabi/lib/thumb/v7e-m+fp/hard/libcr_nohost_nf.a(__sys_remove.o)
 .ARM.attributes
                0x0000000000000b56       0x34 /usr/local/mcuxpressoide-11.0.0_2516/ide/plugins/com.nxp.mcuxpresso.tools.linux_11.0.0.201905131304/tools/bin/../lib/gcc/arm-none-eabi/8.2.1/../../../../arm-none-eabi/lib/thumb/v7e-m+fp/hard/libcr_nohost_nf.a(__sys_seek.o)
 .ARM.attributes
                0x0000000000000b8a       0x34 /usr/local/mcuxpressoide-11.0.0_2516/ide/plugins/com.nxp.mcuxpresso.tools.linux_11.0.0.201905131304/tools/bin/../lib/gcc/arm-none-eabi/8.2.1/../../../../arm-none-eabi/lib/thumb/v7e-m+fp/hard/libcr_nohost_nf.a(__sys_tmpnam.o)
 .ARM.attributes
                0x0000000000000bbe       0x34 /usr/local/mcuxpressoide-11.0.0_2516/ide/plugins/com.nxp.mcuxpresso.tools.linux_11.0.0.201905131304/tools/bin/../lib/gcc/arm-none-eabi/8.2.1/../../../../arm-none-eabi/lib/thumb/v7e-m+fp/hard/libcr_nohost_nf.a(__sys_write.o)

.debug_frame    0x0000000000000000     0x5420
 .debug_frame   0x0000000000000000      0x208 ./utilities/fsl_debug_console.o
 .debug_frame   0x0000000000000208       0xb4 ./utilities/fsl_str.o
 .debug_frame   0x00000000000002bc      0x904 ./startup/startup_mk64f12.o
 .debug_frame   0x0000000000000bc0       0xd0 ./source/TP4_FTOS.o
 .debug_frame   0x0000000000000c90       0x20 ./source/semihost_hardfault.o
 .debug_frame   0x0000000000000cb0      0x850 ./drivers/fsl_clock.o
 .debug_frame   0x0000000000001500      0x834 ./drivers/fsl_dspi.o
 .debug_frame   0x0000000000001d34      0x694 ./drivers/fsl_i2c.o
 .debug_frame   0x00000000000023c8      0x5ec ./drivers/fsl_uart.o
 .debug_frame   0x00000000000029b4       0x74 ./device/system_MK64F12.o
 .debug_frame   0x0000000000002a28       0xc8 ./component/uart/uart_adapter.o
 .debug_frame   0x0000000000002af0      0x208 ./component/serial_manager/serial_manager.o
 .debug_frame   0x0000000000002cf8       0xa0 ./component/serial_manager/serial_port_uart.o
 .debug_frame   0x0000000000002d98       0x34 ./board/boards/board.o
 .debug_frame   0x0000000000002dcc      0x1ec ./board/boards/clock_config.o
 .debug_frame   0x0000000000002fb8       0x4c ./board/boards/peripherals.o
 .debug_frame   0x0000000000003004      0x1f8 ./board/boards/pin_mux.o
 .debug_frame   0x00000000000031fc      0x108 ./amazon-freertos/freertos/portable/heap_4.o
 .debug_frame   0x0000000000003304      0x198 ./amazon-freertos/freertos/portable/port.o
 .debug_frame   0x000000000000349c       0xd8 ./amazon-freertos/freertos/list.o
 .debug_frame   0x0000000000003574      0x588 ./amazon-freertos/freertos/queue.o
 .debug_frame   0x0000000000003afc      0x8d8 ./amazon-freertos/freertos/tasks.o
 .debug_frame   0x00000000000043d4      0x3b0 ./amazon-freertos/freertos/timers.o
 .debug_frame   0x0000000000004784      0x33c ./amazon-freertos/TraceRecorder/trcKernelPort.o
 .debug_frame   0x0000000000004ac0      0x960 ./amazon-freertos/TraceRecorder/trcSnapshotRecorder.o

Cross Reference Table

Symbol                                            File
ADC0_DriverIRQHandler                             ./startup/startup_mk64f12.o
ADC0_IRQHandler                                   ./startup/startup_mk64f12.o
ADC16_ClearStatusFlags                            ./drivers/fsl_adc16.o
ADC16_Deinit                                      ./drivers/fsl_adc16.o
ADC16_DoAutoCalibration                           ./drivers/fsl_adc16.o
ADC16_GetChannelStatusFlags                       ./drivers/fsl_adc16.o
ADC16_GetDefaultConfig                            ./drivers/fsl_adc16.o
ADC16_GetStatusFlags                              ./drivers/fsl_adc16.o
ADC16_Init                                        ./drivers/fsl_adc16.o
ADC16_SetChannelConfig                            ./drivers/fsl_adc16.o
ADC16_SetChannelMuxMode                           ./drivers/fsl_adc16.o
ADC16_SetHardwareAverage                          ./drivers/fsl_adc16.o
ADC16_SetHardwareCompareConfig                    ./drivers/fsl_adc16.o
ADC1_DriverIRQHandler                             ./startup/startup_mk64f12.o
ADC1_IRQHandler                                   ./startup/startup_mk64f12.o
BOARD_BootClockRUN                                ./board/boards/clock_config.o
BOARD_BootClockVLPR                               ./board/boards/clock_config.o
BOARD_InitACCELPins                               ./board/boards/pin_mux.o
BOARD_InitBootClocks                              ./board/boards/clock_config.o
                                                  ./source/TP4_FTOS.o
BOARD_InitBootPeripherals                         ./board/boards/peripherals.o
                                                  ./source/TP4_FTOS.o
BOARD_InitBootPins                                ./board/boards/pin_mux.o
                                                  ./source/TP4_FTOS.o
BOARD_InitButtonsPins                             ./board/boards/pin_mux.o
BOARD_InitDEBUG_UARTPins                          ./board/boards/pin_mux.o
BOARD_InitDebugConsole                            ./board/boards/board.o
                                                  ./source/TP4_FTOS.o
BOARD_InitENETPins                                ./board/boards/pin_mux.o
BOARD_InitLEDsPins                                ./board/boards/pin_mux.o
BOARD_InitOSCPins                                 ./board/boards/pin_mux.o
BOARD_InitPeripherals                             ./board/boards/peripherals.o
BOARD_InitPins                                    ./board/boards/pin_mux.o
BOARD_InitSDHCPins                                ./board/boards/pin_mux.o
BOARD_InitUSBPins                                 ./board/boards/pin_mux.o
BusFault_Handler                                  ./startup/startup_mk64f12.o
CAN0_Bus_Off_IRQHandler                           ./startup/startup_mk64f12.o
CAN0_DriverIRQHandler                             ./startup/startup_mk64f12.o
CAN0_Error_IRQHandler                             ./startup/startup_mk64f12.o
CAN0_ORed_Message_buffer_IRQHandler               ./startup/startup_mk64f12.o
CAN0_Rx_Warning_IRQHandler                        ./startup/startup_mk64f12.o
CAN0_Tx_Warning_IRQHandler                        ./startup/startup_mk64f12.o
CAN0_Wake_Up_IRQHandler                           ./startup/startup_mk64f12.o
CLOCK_BootToBlpeMode                              ./drivers/fsl_clock.o
CLOCK_BootToBlpiMode                              ./drivers/fsl_clock.o
                                                  ./board/boards/clock_config.o
CLOCK_BootToFeeMode                               ./drivers/fsl_clock.o
CLOCK_BootToFeiMode                               ./drivers/fsl_clock.o
CLOCK_BootToPeeMode                               ./drivers/fsl_clock.o
                                                  ./board/boards/clock_config.o
CLOCK_CalcPllDiv                                  ./drivers/fsl_clock.o
CLOCK_ClearStatusFlags                            ./drivers/fsl_clock.o
CLOCK_DeinitOsc0                                  ./drivers/fsl_clock.o
CLOCK_EnablePll0                                  ./drivers/fsl_clock.o
CLOCK_EnableUsbfs0Clock                           ./drivers/fsl_clock.o
                                                  ./board/boards/clock_config.o
CLOCK_ExternalModeToFbeModeQuick                  ./drivers/fsl_clock.o
CLOCK_GetBusClkFreq                               ./drivers/fsl_clock.o
CLOCK_GetCoreSysClkFreq                           ./drivers/fsl_clock.o
                                                  ./board/boards/board.o
CLOCK_GetEr32kClkFreq                             ./drivers/fsl_clock.o
CLOCK_GetFixedFreqClkFreq                         ./drivers/fsl_clock.o
CLOCK_GetFlashClkFreq                             ./drivers/fsl_clock.o
CLOCK_GetFlexBusClkFreq                           ./drivers/fsl_clock.o
CLOCK_GetFllFreq                                  ./drivers/fsl_clock.o
CLOCK_GetFreq                                     ./drivers/fsl_clock.o
CLOCK_GetInternalRefClkFreq                       ./drivers/fsl_clock.o
CLOCK_GetMode                                     ./drivers/fsl_clock.o
CLOCK_GetOsc0ErClkFreq                            ./drivers/fsl_clock.o
CLOCK_GetOutClkFreq                               ./drivers/fsl_clock.o
CLOCK_GetPlatClkFreq                              ./drivers/fsl_clock.o
CLOCK_GetPll0Freq                                 ./drivers/fsl_clock.o
CLOCK_GetPllFllSelClkFreq                         ./drivers/fsl_clock.o
CLOCK_GetStatusFlags                              ./drivers/fsl_clock.o
CLOCK_InitOsc0                                    ./drivers/fsl_clock.o
                                                  ./board/boards/clock_config.o
CLOCK_InternalModeToFbiModeQuick                  ./drivers/fsl_clock.o
CLOCK_SetBlpeMode                                 ./drivers/fsl_clock.o
CLOCK_SetBlpiMode                                 ./drivers/fsl_clock.o
CLOCK_SetExternalRefClkConfig                     ./drivers/fsl_clock.o
CLOCK_SetFbeMode                                  ./drivers/fsl_clock.o
CLOCK_SetFbiMode                                  ./drivers/fsl_clock.o
CLOCK_SetFeeMode                                  ./drivers/fsl_clock.o
CLOCK_SetFeiMode                                  ./drivers/fsl_clock.o
CLOCK_SetInternalRefClkConfig                     ./drivers/fsl_clock.o
                                                  ./board/boards/clock_config.o
CLOCK_SetMcgConfig                                ./drivers/fsl_clock.o
CLOCK_SetOsc0MonitorMode                          ./drivers/fsl_clock.o
CLOCK_SetPbeMode                                  ./drivers/fsl_clock.o
CLOCK_SetPeeMode                                  ./drivers/fsl_clock.o
CLOCK_SetPll0MonitorMode                          ./drivers/fsl_clock.o
CLOCK_SetRtcOscMonitorMode                        ./drivers/fsl_clock.o
CLOCK_SetSimConfig                                ./drivers/fsl_clock.o
                                                  ./board/boards/clock_config.o
CLOCK_TrimInternalRefClk                          ./drivers/fsl_clock.o
CMP0_DriverIRQHandler                             ./startup/startup_mk64f12.o
CMP0_IRQHandler                                   ./startup/startup_mk64f12.o
CMP1_DriverIRQHandler                             ./startup/startup_mk64f12.o
CMP1_IRQHandler                                   ./startup/startup_mk64f12.o
CMP2_DriverIRQHandler                             ./startup/startup_mk64f12.o
CMP2_IRQHandler                                   ./startup/startup_mk64f12.o
CMT_DriverIRQHandler                              ./startup/startup_mk64f12.o
CMT_IRQHandler                                    ./startup/startup_mk64f12.o
CurrentFilterGroup                                ./amazon-freertos/TraceRecorder/trcSnapshotRecorder.o
                                                  ./amazon-freertos/freertos/tasks.o
                                                  ./amazon-freertos/freertos/queue.o
CurrentFilterMask                                 ./amazon-freertos/TraceRecorder/trcSnapshotRecorder.o
                                                  ./amazon-freertos/freertos/tasks.o
                                                  ./amazon-freertos/freertos/queue.o
DAC0_DriverIRQHandler                             ./startup/startup_mk64f12.o
DAC0_IRQHandler                                   ./startup/startup_mk64f12.o
DAC1_DriverIRQHandler                             ./startup/startup_mk64f12.o
DAC1_IRQHandler                                   ./startup/startup_mk64f12.o
DMA0_DriverIRQHandler                             ./startup/startup_mk64f12.o
DMA0_IRQHandler                                   ./startup/startup_mk64f12.o
DMA10_DriverIRQHandler                            ./startup/startup_mk64f12.o
DMA10_IRQHandler                                  ./startup/startup_mk64f12.o
DMA11_DriverIRQHandler                            ./startup/startup_mk64f12.o
DMA11_IRQHandler                                  ./startup/startup_mk64f12.o
DMA12_DriverIRQHandler                            ./startup/startup_mk64f12.o
DMA12_IRQHandler                                  ./startup/startup_mk64f12.o
DMA13_DriverIRQHandler                            ./startup/startup_mk64f12.o
DMA13_IRQHandler                                  ./startup/startup_mk64f12.o
DMA14_DriverIRQHandler                            ./startup/startup_mk64f12.o
DMA14_IRQHandler                                  ./startup/startup_mk64f12.o
DMA15_DriverIRQHandler                            ./startup/startup_mk64f12.o
DMA15_IRQHandler                                  ./startup/startup_mk64f12.o
DMA1_DriverIRQHandler                             ./startup/startup_mk64f12.o
DMA1_IRQHandler                                   ./startup/startup_mk64f12.o
DMA2_DriverIRQHandler                             ./startup/startup_mk64f12.o
DMA2_IRQHandler                                   ./startup/startup_mk64f12.o
DMA3_DriverIRQHandler                             ./startup/startup_mk64f12.o
DMA3_IRQHandler                                   ./startup/startup_mk64f12.o
DMA4_DriverIRQHandler                             ./startup/startup_mk64f12.o
DMA4_IRQHandler                                   ./startup/startup_mk64f12.o
DMA5_DriverIRQHandler                             ./startup/startup_mk64f12.o
DMA5_IRQHandler                                   ./startup/startup_mk64f12.o
DMA6_DriverIRQHandler                             ./startup/startup_mk64f12.o
DMA6_IRQHandler                                   ./startup/startup_mk64f12.o
DMA7_DriverIRQHandler                             ./startup/startup_mk64f12.o
DMA7_IRQHandler                                   ./startup/startup_mk64f12.o
DMA8_DriverIRQHandler                             ./startup/startup_mk64f12.o
DMA8_IRQHandler                                   ./startup/startup_mk64f12.o
DMA9_DriverIRQHandler                             ./startup/startup_mk64f12.o
DMA9_IRQHandler                                   ./startup/startup_mk64f12.o
DMA_Error_DriverIRQHandler                        ./startup/startup_mk64f12.o
DMA_Error_IRQHandler                              ./startup/startup_mk64f12.o
DSPI_Deinit                                       ./drivers/fsl_dspi.o
DSPI_EnableInterrupts                             ./drivers/fsl_dspi.o
DSPI_GetDefaultDataCommandConfig                  ./drivers/fsl_dspi.o
DSPI_GetDummyDataInstance                         ./drivers/fsl_dspi.o
DSPI_GetInstance                                  ./drivers/fsl_dspi.o
DSPI_MasterGetDefaultConfig                       ./drivers/fsl_dspi.o
DSPI_MasterHalfDuplexTransferBlocking             ./drivers/fsl_dspi.o
DSPI_MasterHalfDuplexTransferNonBlocking          ./drivers/fsl_dspi.o
DSPI_MasterInit                                   ./drivers/fsl_dspi.o
DSPI_MasterSetBaudRate                            ./drivers/fsl_dspi.o
DSPI_MasterSetDelayScaler                         ./drivers/fsl_dspi.o
DSPI_MasterSetDelayTimes                          ./drivers/fsl_dspi.o
DSPI_MasterTransferAbort                          ./drivers/fsl_dspi.o
DSPI_MasterTransferBlocking                       ./drivers/fsl_dspi.o
DSPI_MasterTransferCreateHandle                   ./drivers/fsl_dspi.o
DSPI_MasterTransferGetCount                       ./drivers/fsl_dspi.o
DSPI_MasterTransferHandleIRQ                      ./drivers/fsl_dspi.o
DSPI_MasterTransferNonBlocking                    ./drivers/fsl_dspi.o
DSPI_MasterWriteCommandDataBlocking               ./drivers/fsl_dspi.o
DSPI_MasterWriteDataBlocking                      ./drivers/fsl_dspi.o
DSPI_SetDummyData                                 ./drivers/fsl_dspi.o
DSPI_SlaveGetDefaultConfig                        ./drivers/fsl_dspi.o
DSPI_SlaveInit                                    ./drivers/fsl_dspi.o
DSPI_SlaveTransferAbort                           ./drivers/fsl_dspi.o
DSPI_SlaveTransferCreateHandle                    ./drivers/fsl_dspi.o
DSPI_SlaveTransferGetCount                        ./drivers/fsl_dspi.o
DSPI_SlaveTransferHandleIRQ                       ./drivers/fsl_dspi.o
DSPI_SlaveTransferNonBlocking                     ./drivers/fsl_dspi.o
DSPI_SlaveWriteDataBlocking                       ./drivers/fsl_dspi.o
DbgConsole_Deinit                                 ./utilities/fsl_debug_console.o
DbgConsole_Flush                                  ./utilities/fsl_debug_console.o
DbgConsole_Getchar                                ./utilities/fsl_debug_console.o
DbgConsole_Init                                   ./utilities/fsl_debug_console.o
                                                  ./board/boards/board.o
DbgConsole_Printf                                 ./utilities/fsl_debug_console.o
                                                  ./source/TP4_FTOS.o
DbgConsole_Putchar                                ./utilities/fsl_debug_console.o
DbgConsole_ReadCharacter                          ./utilities/fsl_debug_console.o
DbgConsole_ReadLine                               ./utilities/fsl_debug_console.o
DbgConsole_ReadOneCharacter                       ./utilities/fsl_debug_console.o
DbgConsole_Scanf                                  ./utilities/fsl_debug_console.o
DbgConsole_SendData                               ./utilities/fsl_debug_console.o
DbgConsole_SendDataReliable                       ./utilities/fsl_debug_console.o
DebugMon_Handler                                  ./startup/startup_mk64f12.o
ENET_1588_Timer_DriverIRQHandler                  ./startup/startup_mk64f12.o
ENET_1588_Timer_IRQHandler                        ./startup/startup_mk64f12.o
ENET_Error_DriverIRQHandler                       ./startup/startup_mk64f12.o
ENET_Error_IRQHandler                             ./startup/startup_mk64f12.o
ENET_Receive_DriverIRQHandler                     ./startup/startup_mk64f12.o
ENET_Receive_IRQHandler                           ./startup/startup_mk64f12.o
ENET_Transmit_DriverIRQHandler                    ./startup/startup_mk64f12.o
ENET_Transmit_IRQHandler                          ./startup/startup_mk64f12.o
FTFE_DriverIRQHandler                             ./startup/startup_mk64f12.o
FTFE_IRQHandler                                   ./startup/startup_mk64f12.o
FTM0_DriverIRQHandler                             ./startup/startup_mk64f12.o
FTM0_IRQHandler                                   ./startup/startup_mk64f12.o
FTM1_DriverIRQHandler                             ./startup/startup_mk64f12.o
FTM1_IRQHandler                                   ./startup/startup_mk64f12.o
FTM2_DriverIRQHandler                             ./startup/startup_mk64f12.o
FTM2_IRQHandler                                   ./startup/startup_mk64f12.o
FTM3_DriverIRQHandler                             ./startup/startup_mk64f12.o
FTM3_IRQHandler                                   ./startup/startup_mk64f12.o
Flash_Config                                      ./startup/startup_mk64f12.o
GPIO_PinInit                                      ./drivers/fsl_gpio.o
                                                  ./board/boards/pin_mux.o
GPIO_PortClearInterruptFlags                      ./drivers/fsl_gpio.o
GPIO_PortGetInterruptFlags                        ./drivers/fsl_gpio.o
HAL_UartDeinit                                    ./component/uart/uart_adapter.o
                                                  ./component/serial_manager/serial_port_uart.o
HAL_UartInit                                      ./component/uart/uart_adapter.o
                                                  ./component/serial_manager/serial_port_uart.o
HAL_UartReceiveBlocking                           ./component/uart/uart_adapter.o
                                                  ./component/serial_manager/serial_port_uart.o
HAL_UartSendBlocking                              ./component/uart/uart_adapter.o
                                                  ./component/serial_manager/serial_port_uart.o
HardFault_Handler                                 ./source/semihost_hardfault.o
                                                  ./startup/startup_mk64f12.o
I2C0_DriverIRQHandler                             ./drivers/fsl_i2c.o
                                                  ./startup/startup_mk64f12.o
I2C0_IRQHandler                                   ./startup/startup_mk64f12.o
I2C1_DriverIRQHandler                             ./drivers/fsl_i2c.o
                                                  ./startup/startup_mk64f12.o
I2C1_IRQHandler                                   ./startup/startup_mk64f12.o
I2C2_DriverIRQHandler                             ./drivers/fsl_i2c.o
                                                  ./startup/startup_mk64f12.o
I2C2_IRQHandler                                   ./startup/startup_mk64f12.o
I2C_DisableInterrupts                             ./drivers/fsl_i2c.o
I2C_EnableInterrupts                              ./drivers/fsl_i2c.o
I2C_GetInstance                                   ./drivers/fsl_i2c.o
I2C_MasterDeinit                                  ./drivers/fsl_i2c.o
I2C_MasterGetDefaultConfig                        ./drivers/fsl_i2c.o
I2C_MasterGetStatusFlags                          ./drivers/fsl_i2c.o
I2C_MasterInit                                    ./drivers/fsl_i2c.o
I2C_MasterReadBlocking                            ./drivers/fsl_i2c.o
I2C_MasterRepeatedStart                           ./drivers/fsl_i2c.o
I2C_MasterSetBaudRate                             ./drivers/fsl_i2c.o
I2C_MasterStart                                   ./drivers/fsl_i2c.o
I2C_MasterStop                                    ./drivers/fsl_i2c.o
I2C_MasterTransferAbort                           ./drivers/fsl_i2c.o
I2C_MasterTransferBlocking                        ./drivers/fsl_i2c.o
I2C_MasterTransferCreateHandle                    ./drivers/fsl_i2c.o
I2C_MasterTransferGetCount                        ./drivers/fsl_i2c.o
I2C_MasterTransferHandleIRQ                       ./drivers/fsl_i2c.o
I2C_MasterTransferNonBlocking                     ./drivers/fsl_i2c.o
I2C_MasterWriteBlocking                           ./drivers/fsl_i2c.o
I2C_SlaveDeinit                                   ./drivers/fsl_i2c.o
I2C_SlaveGetDefaultConfig                         ./drivers/fsl_i2c.o
I2C_SlaveInit                                     ./drivers/fsl_i2c.o
I2C_SlaveReadBlocking                             ./drivers/fsl_i2c.o
I2C_SlaveTransferAbort                            ./drivers/fsl_i2c.o
I2C_SlaveTransferCreateHandle                     ./drivers/fsl_i2c.o
I2C_SlaveTransferGetCount                         ./drivers/fsl_i2c.o
I2C_SlaveTransferHandleIRQ                        ./drivers/fsl_i2c.o
I2C_SlaveTransferNonBlocking                      ./drivers/fsl_i2c.o
I2C_SlaveWriteBlocking                            ./drivers/fsl_i2c.o
I2S0_Rx_DriverIRQHandler                          ./startup/startup_mk64f12.o
I2S0_Rx_IRQHandler                                ./startup/startup_mk64f12.o
I2S0_Tx_DriverIRQHandler                          ./startup/startup_mk64f12.o
I2S0_Tx_IRQHandler                                ./startup/startup_mk64f12.o
Init_ADC                                          ./source/TP4_FTOS.o
IntDefaultHandler                                 ./startup/startup_mk64f12.o
LIST_AddHead                                      ./component/lists/generic_list.o
LIST_AddPrevElement                               ./component/lists/generic_list.o
LIST_AddTail                                      ./component/lists/generic_list.o
LIST_GetAvailableSize                             ./component/lists/generic_list.o
LIST_GetHead                                      ./component/lists/generic_list.o
LIST_GetList                                      ./component/lists/generic_list.o
LIST_GetNext                                      ./component/lists/generic_list.o
LIST_GetPrev                                      ./component/lists/generic_list.o
LIST_GetSize                                      ./component/lists/generic_list.o
LIST_Init                                         ./component/lists/generic_list.o
LIST_RemoveElement                                ./component/lists/generic_list.o
LIST_RemoveHead                                   ./component/lists/generic_list.o
LLWU_DriverIRQHandler                             ./startup/startup_mk64f12.o
LLWU_IRQHandler                                   ./startup/startup_mk64f12.o
LPTMR0_DriverIRQHandler                           ./startup/startup_mk64f12.o
LPTMR0_IRQHandler                                 ./startup/startup_mk64f12.o
LVD_LVW_DriverIRQHandler                          ./startup/startup_mk64f12.o
LVD_LVW_IRQHandler                                ./startup/startup_mk64f12.o
MCG_DriverIRQHandler                              ./startup/startup_mk64f12.o
MCG_IRQHandler                                    ./startup/startup_mk64f12.o
MCM_DriverIRQHandler                              ./startup/startup_mk64f12.o
MCM_IRQHandler                                    ./startup/startup_mk64f12.o
MemManage_Handler                                 ./startup/startup_mk64f12.o
MyWrapper                                         ./amazon-freertos/freertos/queue.o
NMI_Handler                                       ./startup/startup_mk64f12.o
PDB0_DriverIRQHandler                             ./startup/startup_mk64f12.o
PDB0_IRQHandler                                   ./startup/startup_mk64f12.o
PIT0_DriverIRQHandler                             ./startup/startup_mk64f12.o
PIT0_IRQHandler                                   ./startup/startup_mk64f12.o
PIT1_DriverIRQHandler                             ./startup/startup_mk64f12.o
PIT1_IRQHandler                                   ./startup/startup_mk64f12.o
PIT2_DriverIRQHandler                             ./startup/startup_mk64f12.o
PIT2_IRQHandler                                   ./startup/startup_mk64f12.o
PIT3_DriverIRQHandler                             ./startup/startup_mk64f12.o
PIT3_IRQHandler                                   ./startup/startup_mk64f12.o
PORTA_DriverIRQHandler                            ./startup/startup_mk64f12.o
PORTA_IRQHandler                                  ./startup/startup_mk64f12.o
PORTB_DriverIRQHandler                            ./startup/startup_mk64f12.o
PORTB_IRQHandler                                  ./startup/startup_mk64f12.o
PORTC_DriverIRQHandler                            ./startup/startup_mk64f12.o
PORTC_IRQHandler                                  ./startup/startup_mk64f12.o
PORTD_DriverIRQHandler                            ./startup/startup_mk64f12.o
PORTD_IRQHandler                                  ./startup/startup_mk64f12.o
PORTE_DriverIRQHandler                            ./startup/startup_mk64f12.o
PORTE_IRQHandler                                  ./startup/startup_mk64f12.o
PendSV_Handler                                    ./amazon-freertos/freertos/portable/port.o
                                                  ./startup/startup_mk64f12.o
RNG_DriverIRQHandler                              ./startup/startup_mk64f12.o
RNG_IRQHandler                                    ./startup/startup_mk64f12.o
RTC_ClearStatusFlags                              ./drivers/fsl_rtc.o
RTC_DisableInterrupts                             ./drivers/fsl_rtc.o
RTC_DriverIRQHandler                              ./startup/startup_mk64f12.o
RTC_EnableInterrupts                              ./drivers/fsl_rtc.o
RTC_GetAlarm                                      ./drivers/fsl_rtc.o
RTC_GetDatetime                                   ./drivers/fsl_rtc.o
RTC_GetDefaultConfig                              ./drivers/fsl_rtc.o
RTC_GetEnabledInterrupts                          ./drivers/fsl_rtc.o
RTC_GetStatusFlags                                ./drivers/fsl_rtc.o
RTC_IRQHandler                                    ./startup/startup_mk64f12.o
RTC_Init                                          ./drivers/fsl_rtc.o
RTC_Seconds_DriverIRQHandler                      ./startup/startup_mk64f12.o
RTC_Seconds_IRQHandler                            ./startup/startup_mk64f12.o
RTC_SetAlarm                                      ./drivers/fsl_rtc.o
RTC_SetDatetime                                   ./drivers/fsl_rtc.o
Read_Collision_DriverIRQHandler                   ./startup/startup_mk64f12.o
Read_Collision_IRQHandler                         ./startup/startup_mk64f12.o
RecorderData                                      ./amazon-freertos/TraceRecorder/trcSnapshotRecorder.o
RecorderDataPtr                                   ./amazon-freertos/TraceRecorder/trcSnapshotRecorder.o
                                                  ./amazon-freertos/TraceRecorder/trcKernelPort.o
Reserved71_DriverIRQHandler                       ./startup/startup_mk64f12.o
Reserved71_IRQHandler                             ./startup/startup_mk64f12.o
ResetISR                                          ./startup/startup_mk64f12.o
SDHC_DriverIRQHandler                             ./startup/startup_mk64f12.o
SDHC_IRQHandler                                   ./startup/startup_mk64f12.o
SDK_DelayAtLeastUs                                ./drivers/fsl_clock.o
SDK_Free                                          ./drivers/fsl_common.o
SDK_Malloc                                        ./drivers/fsl_common.o
SEGGER_RTT_AllocDownBuffer                        ./amazon-freertos/TraceRecorder/streamports/Jlink_RTT/SEGGER_RTT.o
SEGGER_RTT_AllocUpBuffer                          ./amazon-freertos/TraceRecorder/streamports/Jlink_RTT/SEGGER_RTT.o
SEGGER_RTT_ConfigDownBuffer                       ./amazon-freertos/TraceRecorder/streamports/Jlink_RTT/SEGGER_RTT.o
SEGGER_RTT_ConfigUpBuffer                         ./amazon-freertos/TraceRecorder/streamports/Jlink_RTT/SEGGER_RTT.o
SEGGER_RTT_GetKey                                 ./amazon-freertos/TraceRecorder/streamports/Jlink_RTT/SEGGER_RTT.o
SEGGER_RTT_HasData                                ./amazon-freertos/TraceRecorder/streamports/Jlink_RTT/SEGGER_RTT.o
SEGGER_RTT_HasKey                                 ./amazon-freertos/TraceRecorder/streamports/Jlink_RTT/SEGGER_RTT.o
SEGGER_RTT_Init                                   ./amazon-freertos/TraceRecorder/streamports/Jlink_RTT/SEGGER_RTT.o
SEGGER_RTT_Read                                   ./amazon-freertos/TraceRecorder/streamports/Jlink_RTT/SEGGER_RTT.o
SEGGER_RTT_ReadNoLock                             ./amazon-freertos/TraceRecorder/streamports/Jlink_RTT/SEGGER_RTT.o
SEGGER_RTT_SetFlagsDownBuffer                     ./amazon-freertos/TraceRecorder/streamports/Jlink_RTT/SEGGER_RTT.o
SEGGER_RTT_SetFlagsUpBuffer                       ./amazon-freertos/TraceRecorder/streamports/Jlink_RTT/SEGGER_RTT.o
SEGGER_RTT_SetNameDownBuffer                      ./amazon-freertos/TraceRecorder/streamports/Jlink_RTT/SEGGER_RTT.o
SEGGER_RTT_SetNameUpBuffer                        ./amazon-freertos/TraceRecorder/streamports/Jlink_RTT/SEGGER_RTT.o
SEGGER_RTT_SetTerminal                            ./amazon-freertos/TraceRecorder/streamports/Jlink_RTT/SEGGER_RTT.o
SEGGER_RTT_TerminalOut                            ./amazon-freertos/TraceRecorder/streamports/Jlink_RTT/SEGGER_RTT.o
SEGGER_RTT_WaitKey                                ./amazon-freertos/TraceRecorder/streamports/Jlink_RTT/SEGGER_RTT.o
SEGGER_RTT_Write                                  ./amazon-freertos/TraceRecorder/streamports/Jlink_RTT/SEGGER_RTT.o
SEGGER_RTT_WriteNoLock                            ./amazon-freertos/TraceRecorder/streamports/Jlink_RTT/SEGGER_RTT.o
SEGGER_RTT_WriteSkipNoLock                        ./amazon-freertos/TraceRecorder/streamports/Jlink_RTT/SEGGER_RTT.o
SEGGER_RTT_WriteString                            ./amazon-freertos/TraceRecorder/streamports/Jlink_RTT/SEGGER_RTT.o
SEGGER_RTT_WriteWithOverwriteNoLock               ./amazon-freertos/TraceRecorder/streamports/Jlink_RTT/SEGGER_RTT.o
SMC_PostExitStopModes                             ./drivers/fsl_smc.o
SMC_PostExitWaitModes                             ./drivers/fsl_smc.o
SMC_PreEnterStopModes                             ./drivers/fsl_smc.o
SMC_PreEnterWaitModes                             ./drivers/fsl_smc.o
SMC_SetPowerModeLls                               ./drivers/fsl_smc.o
SMC_SetPowerModeRun                               ./drivers/fsl_smc.o
SMC_SetPowerModeStop                              ./drivers/fsl_smc.o
SMC_SetPowerModeVlls                              ./drivers/fsl_smc.o
SMC_SetPowerModeVlpr                              ./drivers/fsl_smc.o
                                                  ./board/boards/clock_config.o
SMC_SetPowerModeVlps                              ./drivers/fsl_smc.o
SMC_SetPowerModeVlpw                              ./drivers/fsl_smc.o
SMC_SetPowerModeWait                              ./drivers/fsl_smc.o
SPI0_DriverIRQHandler                             ./drivers/fsl_dspi.o
                                                  ./startup/startup_mk64f12.o
SPI0_IRQHandler                                   ./startup/startup_mk64f12.o
SPI1_DriverIRQHandler                             ./drivers/fsl_dspi.o
                                                  ./startup/startup_mk64f12.o
SPI1_IRQHandler                                   ./startup/startup_mk64f12.o
SPI2_DriverIRQHandler                             ./drivers/fsl_dspi.o
                                                  ./startup/startup_mk64f12.o
SPI2_IRQHandler                                   ./startup/startup_mk64f12.o
SVC_Handler                                       ./amazon-freertos/freertos/portable/port.o
                                                  ./startup/startup_mk64f12.o
SWI_DriverIRQHandler                              ./startup/startup_mk64f12.o
SWI_IRQHandler                                    ./startup/startup_mk64f12.o
SerialManager_CloseReadHandle                     ./component/serial_manager/serial_manager.o
                                                  ./utilities/fsl_debug_console.o
SerialManager_CloseWriteHandle                    ./component/serial_manager/serial_manager.o
                                                  ./utilities/fsl_debug_console.o
SerialManager_Deinit                              ./component/serial_manager/serial_manager.o
SerialManager_EnterLowpower                       ./component/serial_manager/serial_manager.o
SerialManager_ExitLowpower                        ./component/serial_manager/serial_manager.o
SerialManager_Init                                ./component/serial_manager/serial_manager.o
                                                  ./utilities/fsl_debug_console.o
SerialManager_OpenReadHandle                      ./component/serial_manager/serial_manager.o
                                                  ./utilities/fsl_debug_console.o
SerialManager_OpenWriteHandle                     ./component/serial_manager/serial_manager.o
                                                  ./utilities/fsl_debug_console.o
SerialManager_ReadBlocking                        ./component/serial_manager/serial_manager.o
                                                  ./utilities/fsl_debug_console.o
SerialManager_WriteBlocking                       ./component/serial_manager/serial_manager.o
                                                  ./utilities/fsl_debug_console.o
Serial_UartDeinit                                 ./component/serial_manager/serial_port_uart.o
                                                  ./component/serial_manager/serial_manager.o
Serial_UartInit                                   ./component/serial_manager/serial_port_uart.o
                                                  ./component/serial_manager/serial_manager.o
Serial_UartRead                                   ./component/serial_manager/serial_port_uart.o
                                                  ./component/serial_manager/serial_manager.o
Serial_UartWrite                                  ./component/serial_manager/serial_port_uart.o
                                                  ./component/serial_manager/serial_manager.o
StrFormatPrintf                                   ./utilities/fsl_str.o
                                                  ./utilities/fsl_debug_console.o
StrFormatScanf                                    ./utilities/fsl_str.o
                                                  ./utilities/fsl_debug_console.o
SysTick_Handler                                   ./amazon-freertos/freertos/portable/port.o
                                                  ./startup/startup_mk64f12.o
SystemCoreClock                                   ./device/system_MK64F12.o
                                                  ./amazon-freertos/TraceRecorder/trcSnapshotRecorder.o
                                                  ./amazon-freertos/freertos/portable/port.o
                                                  ./board/boards/clock_config.o
SystemCoreClockUpdate                             ./device/system_MK64F12.o
SystemInit                                        ./device/system_MK64F12.o
                                                  ./startup/startup_mk64f12.o
SystemInitHook                                    ./device/system_MK64F12.o
TraceQueueClassTable                              ./amazon-freertos/TraceRecorder/trcKernelPort.o
                                                  ./amazon-freertos/freertos/queue.o
UART0_DriverIRQHandler                            ./drivers/fsl_uart.o
UART0_ERR_DriverIRQHandler                        ./startup/startup_mk64f12.o
UART0_ERR_IRQHandler                              ./startup/startup_mk64f12.o
UART0_LON_DriverIRQHandler                        ./startup/startup_mk64f12.o
UART0_LON_IRQHandler                              ./startup/startup_mk64f12.o
UART0_RX_TX_DriverIRQHandler                      ./drivers/fsl_uart.o
                                                  ./startup/startup_mk64f12.o
UART0_RX_TX_IRQHandler                            ./startup/startup_mk64f12.o
UART1_DriverIRQHandler                            ./drivers/fsl_uart.o
UART1_ERR_DriverIRQHandler                        ./startup/startup_mk64f12.o
UART1_ERR_IRQHandler                              ./startup/startup_mk64f12.o
UART1_RX_TX_DriverIRQHandler                      ./drivers/fsl_uart.o
                                                  ./startup/startup_mk64f12.o
UART1_RX_TX_IRQHandler                            ./startup/startup_mk64f12.o
UART2_DriverIRQHandler                            ./drivers/fsl_uart.o
UART2_ERR_DriverIRQHandler                        ./startup/startup_mk64f12.o
UART2_ERR_IRQHandler                              ./startup/startup_mk64f12.o
UART2_RX_TX_DriverIRQHandler                      ./drivers/fsl_uart.o
                                                  ./startup/startup_mk64f12.o
UART2_RX_TX_IRQHandler                            ./startup/startup_mk64f12.o
UART3_DriverIRQHandler                            ./drivers/fsl_uart.o
UART3_ERR_DriverIRQHandler                        ./startup/startup_mk64f12.o
UART3_ERR_IRQHandler                              ./startup/startup_mk64f12.o
UART3_RX_TX_DriverIRQHandler                      ./drivers/fsl_uart.o
                                                  ./startup/startup_mk64f12.o
UART3_RX_TX_IRQHandler                            ./startup/startup_mk64f12.o
UART4_DriverIRQHandler                            ./drivers/fsl_uart.o
UART4_ERR_DriverIRQHandler                        ./startup/startup_mk64f12.o
UART4_ERR_IRQHandler                              ./startup/startup_mk64f12.o
UART4_RX_TX_DriverIRQHandler                      ./drivers/fsl_uart.o
                                                  ./startup/startup_mk64f12.o
UART4_RX_TX_IRQHandler                            ./startup/startup_mk64f12.o
UART5_DriverIRQHandler                            ./drivers/fsl_uart.o
UART5_ERR_DriverIRQHandler                        ./startup/startup_mk64f12.o
UART5_ERR_IRQHandler                              ./startup/startup_mk64f12.o
UART5_RX_TX_DriverIRQHandler                      ./drivers/fsl_uart.o
                                                  ./startup/startup_mk64f12.o
UART5_RX_TX_IRQHandler                            ./startup/startup_mk64f12.o
UART_ClearStatusFlags                             ./drivers/fsl_uart.o
UART_Deinit                                       ./drivers/fsl_uart.o
                                                  ./component/uart/uart_adapter.o
UART_DisableInterrupts                            ./drivers/fsl_uart.o
UART_EnableInterrupts                             ./drivers/fsl_uart.o
UART_GetDefaultConfig                             ./drivers/fsl_uart.o
